{
  "contracts/BCToken.sol": {
    "BCToken": {
      "abi": [
        {
          "inputs": [
            {
              "internalType": "address",
              "name": "_nftAddress",
              "type": "address"
            },
            {
              "internalType": "address payable",
              "name": "routerAddress",
              "type": "address"
            },
            {
              "internalType": "address",
              "name": "_usdtAddress",
              "type": "address"
            },
            {
              "internalType": "uint256",
              "name": "_presaleEndsIn",
              "type": "uint256"
            }
          ],
          "stateMutability": "nonpayable",
          "type": "constructor"
        },
        {
          "anonymous": false,
          "inputs": [
            {
              "indexed": true,
              "internalType": "address",
              "name": "owner",
              "type": "address"
            },
            {
              "indexed": true,
              "internalType": "address",
              "name": "spender",
              "type": "address"
            },
            {
              "indexed": false,
              "internalType": "uint256",
              "name": "value",
              "type": "uint256"
            }
          ],
          "name": "Approval",
          "type": "event"
        },
        {
          "anonymous": false,
          "inputs": [
            {
              "indexed": true,
              "internalType": "address",
              "name": "previousOwner",
              "type": "address"
            },
            {
              "indexed": true,
              "internalType": "address",
              "name": "newOwner",
              "type": "address"
            }
          ],
          "name": "OwnershipTransferred",
          "type": "event"
        },
        {
          "anonymous": false,
          "inputs": [
            {
              "indexed": false,
              "internalType": "uint256",
              "name": "tokensSwapped",
              "type": "uint256"
            },
            {
              "indexed": false,
              "internalType": "uint256",
              "name": "usdtReceived",
              "type": "uint256"
            },
            {
              "indexed": false,
              "internalType": "uint256",
              "name": "tokensIntoLiqudity",
              "type": "uint256"
            }
          ],
          "name": "SwapAndLiquify",
          "type": "event"
        },
        {
          "anonymous": false,
          "inputs": [
            {
              "indexed": true,
              "internalType": "address",
              "name": "from",
              "type": "address"
            },
            {
              "indexed": true,
              "internalType": "address",
              "name": "to",
              "type": "address"
            },
            {
              "indexed": false,
              "internalType": "uint256",
              "name": "value",
              "type": "uint256"
            }
          ],
          "name": "Transfer",
          "type": "event"
        },
        {
          "inputs": [],
          "name": "_maxTxAmount",
          "outputs": [
            {
              "internalType": "uint256",
              "name": "",
              "type": "uint256"
            }
          ],
          "stateMutability": "view",
          "type": "function"
        },
        {
          "inputs": [],
          "name": "_rewardFee",
          "outputs": [
            {
              "internalType": "uint256",
              "name": "",
              "type": "uint256"
            }
          ],
          "stateMutability": "view",
          "type": "function"
        },
        {
          "inputs": [],
          "name": "_taxFee",
          "outputs": [
            {
              "internalType": "uint256",
              "name": "",
              "type": "uint256"
            }
          ],
          "stateMutability": "view",
          "type": "function"
        },
        {
          "inputs": [],
          "name": "_taxNFTFee",
          "outputs": [
            {
              "internalType": "uint256",
              "name": "",
              "type": "uint256"
            }
          ],
          "stateMutability": "view",
          "type": "function"
        },
        {
          "inputs": [
            {
              "internalType": "address",
              "name": "owner",
              "type": "address"
            },
            {
              "internalType": "address",
              "name": "spender",
              "type": "address"
            }
          ],
          "name": "allowance",
          "outputs": [
            {
              "internalType": "uint256",
              "name": "",
              "type": "uint256"
            }
          ],
          "stateMutability": "view",
          "type": "function"
        },
        {
          "inputs": [
            {
              "internalType": "address",
              "name": "spender",
              "type": "address"
            },
            {
              "internalType": "uint256",
              "name": "amount",
              "type": "uint256"
            }
          ],
          "name": "approve",
          "outputs": [
            {
              "internalType": "bool",
              "name": "",
              "type": "bool"
            }
          ],
          "stateMutability": "nonpayable",
          "type": "function"
        },
        {
          "inputs": [],
          "name": "autoLiquidity",
          "outputs": [
            {
              "internalType": "uint256",
              "name": "",
              "type": "uint256"
            }
          ],
          "stateMutability": "view",
          "type": "function"
        },
        {
          "inputs": [
            {
              "internalType": "address",
              "name": "account",
              "type": "address"
            }
          ],
          "name": "balanceOf",
          "outputs": [
            {
              "internalType": "uint256",
              "name": "",
              "type": "uint256"
            }
          ],
          "stateMutability": "view",
          "type": "function"
        },
        {
          "inputs": [],
          "name": "charityMinimum",
          "outputs": [
            {
              "internalType": "uint256",
              "name": "",
              "type": "uint256"
            }
          ],
          "stateMutability": "view",
          "type": "function"
        },
        {
          "inputs": [],
          "name": "dailyAddress",
          "outputs": [
            {
              "internalType": "address",
              "name": "",
              "type": "address"
            }
          ],
          "stateMutability": "view",
          "type": "function"
        },
        {
          "inputs": [],
          "name": "decimals",
          "outputs": [
            {
              "internalType": "uint8",
              "name": "",
              "type": "uint8"
            }
          ],
          "stateMutability": "view",
          "type": "function"
        },
        {
          "inputs": [
            {
              "internalType": "address",
              "name": "spender",
              "type": "address"
            },
            {
              "internalType": "uint256",
              "name": "subtractedValue",
              "type": "uint256"
            }
          ],
          "name": "decreaseAllowance",
          "outputs": [
            {
              "internalType": "bool",
              "name": "",
              "type": "bool"
            }
          ],
          "stateMutability": "nonpayable",
          "type": "function"
        },
        {
          "inputs": [
            {
              "internalType": "address",
              "name": "account",
              "type": "address"
            }
          ],
          "name": "excludeFromFee",
          "outputs": [],
          "stateMutability": "nonpayable",
          "type": "function"
        },
        {
          "inputs": [
            {
              "internalType": "address",
              "name": "account",
              "type": "address"
            }
          ],
          "name": "excludeFromReward",
          "outputs": [],
          "stateMutability": "nonpayable",
          "type": "function"
        },
        {
          "inputs": [],
          "name": "hourlyAddress",
          "outputs": [
            {
              "internalType": "address",
              "name": "",
              "type": "address"
            }
          ],
          "stateMutability": "view",
          "type": "function"
        },
        {
          "inputs": [],
          "name": "iBCNFT",
          "outputs": [
            {
              "internalType": "contract IBCNFT",
              "name": "",
              "type": "address"
            }
          ],
          "stateMutability": "view",
          "type": "function"
        },
        {
          "inputs": [
            {
              "internalType": "address",
              "name": "account",
              "type": "address"
            }
          ],
          "name": "includeInFee",
          "outputs": [],
          "stateMutability": "nonpayable",
          "type": "function"
        },
        {
          "inputs": [
            {
              "internalType": "address",
              "name": "account",
              "type": "address"
            }
          ],
          "name": "includeInReward",
          "outputs": [],
          "stateMutability": "nonpayable",
          "type": "function"
        },
        {
          "inputs": [
            {
              "internalType": "address",
              "name": "spender",
              "type": "address"
            },
            {
              "internalType": "uint256",
              "name": "addedValue",
              "type": "uint256"
            }
          ],
          "name": "increaseAllowance",
          "outputs": [
            {
              "internalType": "bool",
              "name": "",
              "type": "bool"
            }
          ],
          "stateMutability": "nonpayable",
          "type": "function"
        },
        {
          "inputs": [
            {
              "internalType": "address",
              "name": "account",
              "type": "address"
            }
          ],
          "name": "isExcludedFromFee",
          "outputs": [
            {
              "internalType": "bool",
              "name": "",
              "type": "bool"
            }
          ],
          "stateMutability": "view",
          "type": "function"
        },
        {
          "inputs": [
            {
              "internalType": "address",
              "name": "account",
              "type": "address"
            }
          ],
          "name": "isExcludedFromReward",
          "outputs": [
            {
              "internalType": "bool",
              "name": "",
              "type": "bool"
            }
          ],
          "stateMutability": "view",
          "type": "function"
        },
        {
          "inputs": [
            {
              "internalType": "uint256",
              "name": "",
              "type": "uint256"
            }
          ],
          "name": "levelFees",
          "outputs": [
            {
              "internalType": "uint256",
              "name": "",
              "type": "uint256"
            }
          ],
          "stateMutability": "view",
          "type": "function"
        },
        {
          "inputs": [],
          "name": "lotteryDaily",
          "outputs": [
            {
              "internalType": "uint256",
              "name": "",
              "type": "uint256"
            }
          ],
          "stateMutability": "view",
          "type": "function"
        },
        {
          "inputs": [],
          "name": "lotteryHourly",
          "outputs": [
            {
              "internalType": "uint256",
              "name": "",
              "type": "uint256"
            }
          ],
          "stateMutability": "view",
          "type": "function"
        },
        {
          "inputs": [],
          "name": "lotteryLimitAmount",
          "outputs": [
            {
              "internalType": "uint256",
              "name": "",
              "type": "uint256"
            }
          ],
          "stateMutability": "view",
          "type": "function"
        },
        {
          "inputs": [
            {
              "internalType": "address",
              "name": "_winner",
              "type": "address"
            }
          ],
          "name": "lotteryTransfer",
          "outputs": [],
          "stateMutability": "nonpayable",
          "type": "function"
        },
        {
          "inputs": [],
          "name": "name",
          "outputs": [
            {
              "internalType": "string",
              "name": "",
              "type": "string"
            }
          ],
          "stateMutability": "view",
          "type": "function"
        },
        {
          "inputs": [],
          "name": "owner",
          "outputs": [
            {
              "internalType": "address",
              "name": "",
              "type": "address"
            }
          ],
          "stateMutability": "view",
          "type": "function"
        },
        {
          "inputs": [],
          "name": "pancakePair",
          "outputs": [
            {
              "internalType": "address",
              "name": "",
              "type": "address"
            }
          ],
          "stateMutability": "view",
          "type": "function"
        },
        {
          "inputs": [],
          "name": "pancakeRouter",
          "outputs": [
            {
              "internalType": "contract IPancakeRouter02",
              "name": "",
              "type": "address"
            }
          ],
          "stateMutability": "view",
          "type": "function"
        },
        {
          "inputs": [],
          "name": "pausedLottery",
          "outputs": [
            {
              "internalType": "bool",
              "name": "",
              "type": "bool"
            }
          ],
          "stateMutability": "view",
          "type": "function"
        },
        {
          "inputs": [],
          "name": "presaleEndsIn",
          "outputs": [
            {
              "internalType": "uint256",
              "name": "",
              "type": "uint256"
            }
          ],
          "stateMutability": "view",
          "type": "function"
        },
        {
          "inputs": [
            {
              "internalType": "uint256",
              "name": "tAmount",
              "type": "uint256"
            },
            {
              "internalType": "bool",
              "name": "deductTransferFee",
              "type": "bool"
            },
            {
              "internalType": "address",
              "name": "_account",
              "type": "address"
            }
          ],
          "name": "reflectionFromToken",
          "outputs": [
            {
              "internalType": "uint256",
              "name": "",
              "type": "uint256"
            }
          ],
          "stateMutability": "view",
          "type": "function"
        },
        {
          "inputs": [],
          "name": "renounceOwnership",
          "outputs": [],
          "stateMutability": "nonpayable",
          "type": "function"
        },
        {
          "inputs": [
            {
              "internalType": "uint256",
              "name": "seed",
              "type": "uint256"
            }
          ],
          "name": "selectWinner",
          "outputs": [
            {
              "internalType": "address",
              "name": "",
              "type": "address"
            }
          ],
          "stateMutability": "view",
          "type": "function"
        },
        {
          "inputs": [
            {
              "internalType": "address",
              "name": "_dailyAddress",
              "type": "address"
            },
            {
              "internalType": "address",
              "name": "_hourlyAddress",
              "type": "address"
            }
          ],
          "name": "setLotteryAddress",
          "outputs": [],
          "stateMutability": "nonpayable",
          "type": "function"
        },
        {
          "inputs": [
            {
              "internalType": "uint256",
              "name": "_lotteryLimit",
              "type": "uint256"
            }
          ],
          "name": "setLotteryLimit",
          "outputs": [],
          "stateMutability": "nonpayable",
          "type": "function"
        },
        {
          "inputs": [],
          "name": "setLotteryState",
          "outputs": [],
          "stateMutability": "nonpayable",
          "type": "function"
        },
        {
          "inputs": [
            {
              "internalType": "uint256",
              "name": "maxTxPercent",
              "type": "uint256"
            }
          ],
          "name": "setMaxTxPercent",
          "outputs": [],
          "stateMutability": "nonpayable",
          "type": "function"
        },
        {
          "inputs": [
            {
              "internalType": "uint256",
              "name": "taxFee",
              "type": "uint256"
            }
          ],
          "name": "setTaxFeePercent",
          "outputs": [],
          "stateMutability": "nonpayable",
          "type": "function"
        },
        {
          "inputs": [],
          "name": "symbol",
          "outputs": [
            {
              "internalType": "string",
              "name": "",
              "type": "string"
            }
          ],
          "stateMutability": "view",
          "type": "function"
        },
        {
          "inputs": [
            {
              "internalType": "uint256",
              "name": "rAmount",
              "type": "uint256"
            }
          ],
          "name": "tokenFromReflection",
          "outputs": [
            {
              "internalType": "uint256",
              "name": "",
              "type": "uint256"
            }
          ],
          "stateMutability": "view",
          "type": "function"
        },
        {
          "inputs": [],
          "name": "totalFees",
          "outputs": [
            {
              "internalType": "uint256",
              "name": "",
              "type": "uint256"
            }
          ],
          "stateMutability": "view",
          "type": "function"
        },
        {
          "inputs": [],
          "name": "totalSupply",
          "outputs": [
            {
              "internalType": "uint256",
              "name": "",
              "type": "uint256"
            }
          ],
          "stateMutability": "view",
          "type": "function"
        },
        {
          "inputs": [
            {
              "internalType": "address",
              "name": "recipient",
              "type": "address"
            },
            {
              "internalType": "uint256",
              "name": "amount",
              "type": "uint256"
            }
          ],
          "name": "transfer",
          "outputs": [
            {
              "internalType": "bool",
              "name": "",
              "type": "bool"
            }
          ],
          "stateMutability": "nonpayable",
          "type": "function"
        },
        {
          "inputs": [
            {
              "internalType": "address",
              "name": "sender",
              "type": "address"
            },
            {
              "internalType": "address",
              "name": "recipient",
              "type": "address"
            },
            {
              "internalType": "uint256",
              "name": "amount",
              "type": "uint256"
            }
          ],
          "name": "transferFrom",
          "outputs": [
            {
              "internalType": "bool",
              "name": "",
              "type": "bool"
            }
          ],
          "stateMutability": "nonpayable",
          "type": "function"
        },
        {
          "inputs": [
            {
              "internalType": "address",
              "name": "newOwner",
              "type": "address"
            }
          ],
          "name": "transferOwnership",
          "outputs": [],
          "stateMutability": "nonpayable",
          "type": "function"
        },
        {
          "inputs": [],
          "name": "usdtAddress",
          "outputs": [
            {
              "internalType": "address",
              "name": "",
              "type": "address"
            }
          ],
          "stateMutability": "view",
          "type": "function"
        }
      ],
      "evm": {
        "bytecode": {
          "linkReferences": {
            "contracts/BCToken.sol": {
              "Utils": [
                {
                  "length": 20,
                  "start": 12297
                },
                {
                  "length": 20,
                  "start": 13104
                }
              ]
            }
          },
          "object": "610120604052600760e0819052662121aa37b5b2b760c91b6101009081526200002a9190816200055b565b50604080518082019091526004808252632121aa2760e11b602090920191825262000058916008916200055b565b506009805460ff191660129081179091556200007690600a62000767565b6200008690633b9aca0062000826565b600a81905562000099906000196200089f565b620000a79060001962000848565b600b556000600d556101f4600e819055600f819055610320601081905560115561012c601281905560138190556040805160c081018252603281526064602082015260969181019190915260c86060820152608081019190915260a081019190915262000119906014906006620005ea565b50601480546200012c916015916200062e565b506200016b6064620001576103e8620001576001600a54620004e660201b620017531790919060201c565b620004fd60201b6200175f1790919060201c565b6016556064601781905560185560198055604b601a55600954620001949060ff16600a62000767565b620001a4906301312d0062000826565b601b55601c80546001600160a01b03191673bda2e26669eb6db2a460a9018b16495bcccf6f0a179055600954620001e09060ff16600a62000767565b620001ef90620f424062000826565b601e55600954620002059060ff16600a62000767565b620002139061271062000826565b601f556020805460ff191690553480156200022d57600080fd5b5060405162003be338038062003be38339810160408190526200025091620006ae565b6200025b336200050b565b8042106200026857600080fd5b60228190556001600160601b0319606085901b1660c052600980546001600160a01b0384811661010002610100600160a81b0319909216919091179091556040805163c45a015560e01b81529051859283169163c45a0155916004808301926020929190829003018186803b158015620002e157600080fd5b505afa158015620002f6573d6000803e3d6000fd5b505050506040513d601f19601f820116820180604052508101906200031c919062000688565b6009546040516364e329cb60e11b81523060048201526001600160a01b036101009092048216602482015291169063c9c6539690604401602060405180830381600087803b1580156200036e57600080fd5b505af115801562000383573d6000803e3d6000fd5b505050506040513d601f19601f82011682018060405250810190620003a9919062000688565b6001600160601b0319606091821b811660a0529082901b16608052600b5460016000620003d33390565b6001600160a01b0390811682526020808301939093526040918201600090812094909455601c54601d80546001600160a01b03191691831691821781559085526002845282852085905554168352600191829052822082905590600490620004436000546001600160a01b031690565b6001600160a01b0316815260208082019290925260409081016000908120805494151560ff1995861617905530815260049092529020805490911660011790556200048b3390565b6001600160a01b031660006001600160a01b03167fddf252ad1be2c89b69c2b068fc378daa952ba7f163c4a11628f55a4df523b3ef600a54604051620004d391815260200190565b60405180910390a35050505050620008fb565b6000620004f4828462000826565b90505b92915050565b6000620004f4828462000707565b600080546001600160a01b038381166001600160a01b0319831681178455604051919092169283917f8be0079c531659141344cd1fd0a4f28419497f9722a3daafe3b4186f6b6457e09190a35050565b828054620005699062000862565b90600052602060002090601f0160209004810192826200058d5760008555620005d8565b82601f10620005a857805160ff1916838001178555620005d8565b82800160010185558215620005d8579182015b82811115620005d8578251825591602001919060010190620005bb565b50620005e692915062000671565b5090565b828054828255906000526020600020908101928215620005d8579160200282015b82811115620005d8578251829061ffff169055916020019190600101906200060b565b828054828255906000526020600020908101928215620005d85760005260206000209182015b82811115620005d857825482559160010191906001019062000654565b5b80821115620005e6576000815560010162000672565b6000602082840312156200069a578081fd5b8151620006a781620008e2565b9392505050565b60008060008060808587031215620006c4578283fd5b8451620006d181620008e2565b6020860151909450620006e481620008e2565b6040860151909350620006f781620008e2565b6060959095015193969295505050565b600082620007195762000719620008cc565b500490565b600181815b808511156200075f578160001904821115620007435762000743620008b6565b808516156200075157918102915b93841c939080029062000723565b509250929050565b6000620004f460ff8416836000826200078357506001620004f7565b816200079257506000620004f7565b8160018114620007ab5760028114620007b657620007d6565b6001915050620004f7565b60ff841115620007ca57620007ca620008b6565b50506001821b620004f7565b5060208310610133831016604e8410600b8410161715620007fb575081810a620004f7565b6200080783836200071e565b80600019048211156200081e576200081e620008b6565b029392505050565b6000816000190483118215151615620008435762000843620008b6565b500290565b6000828210156200085d576200085d620008b6565b500390565b600181811c908216806200087757607f821691505b602082108114156200089957634e487b7160e01b600052602260045260246000fd5b50919050565b600082620008b157620008b1620008cc565b500690565b634e487b7160e01b600052601160045260246000fd5b634e487b7160e01b600052601260045260246000fd5b6001600160a01b0381168114620008f857600080fd5b50565b60805160601c60a05160601c60c05160601c613270620009736000396000818161057601528181610c720152818161123d01528181611b050152612ba001526000818161061201528181611f370152611f880152600081816106420152818161265601528181612781015261297f01526132706000f3fe608060405234801561001057600080fd5b50600436106103205760003560e01c80636cd8ceb5116101a7578063a457c2d7116100ee578063ce03d3df11610097578063ea2f0b3711610071578063ea2f0b37146106c3578063ecf50135146106d6578063f2fde38b146106de57600080fd5b8063ce03d3df14610664578063d543dbeb14610677578063dd62ed3e1461068a57600080fd5b8063b8c9d25c116100c8578063b8c9d25c1461060d578063c037123614610634578063c21ebd071461063d57600080fd5b8063a457c2d7146105d4578063a9059cbb146105e7578063b120200a146105fa57600080fd5b80638da5cb5b116101505780639ab4a4451161012a5780639ab4a445146105a05780639d88f3a1146105b8578063a400fc21146105cb57600080fd5b80638da5cb5b146105605780639035a2111461057157806395d89b411461059857600080fd5b80637867a1c2116101815780637867a1c2146105185780637d1db4a51461052b57806388f820201461053457600080fd5b80636cd8ceb5146104f057806370a08231146104fd578063715018a61461051057600080fd5b80633685d4191161026b57806352390c02116102145780635be7aad6116101ee5780635be7aad6146104cb5780635dacf9a3146104d45780636b2d7a1a146104dd57600080fd5b806352390c021461048357806352dc21d7146104965780635342acb41461049f57600080fd5b8063437823ec11610245578063437823ec146104545780634c524be41461046757806351fde4bb1461047a57600080fd5b80633685d4191461042557806339509351146104385780633b124fe71461044b57600080fd5b806323b872dd116102cd578063305bfa8c116102a7578063305bfa8c146103fe578063313ce5671461040757806333fddf9a1461041c57600080fd5b806323b872dd146103c55780632d838119146103d85780632ffcd37b146103eb57600080fd5b806313114a9d116102fe57806313114a9d1461037b57806318160ddd1461038d5780631a6d76171461039557600080fd5b8063061c82d01461032557806306fdde031461033a578063095ea7b314610358575b600080fd5b610338610333366004612fab565b6106f1565b005b610342610743565b60405161034f9190613049565b60405180910390f35b61036b610366366004612e9d565b6107d5565b604051901515815260200161034f565b600c545b60405190815260200161034f565b600a5461037f565b6020546103ad9061010090046001600160a01b031681565b6040516001600160a01b03909116815260200161034f565b61036b6103d3366004612e5d565b6107ec565b61037f6103e6366004612fab565b610856565b6021546103ad906001600160a01b031681565b61037f601f5481565b60095460405160ff909116815260200161034f565b61037f601a5481565b610338610433366004612e09565b6108e6565b61036b610446366004612e9d565b610af3565b61037f60105481565b610338610462366004612e09565b610b29565b6103ad610475366004612fab565b610b95565b61037f600e5481565b610338610491366004612e09565b610e2c565b61037f60175481565b61036b6104ad366004612e09565b6001600160a01b031660009081526004602052604090205460ff1690565b61037f60195481565b61037f601e5481565b6103386104eb366004612fab565b610f9d565b60205461036b9060ff1681565b61037f61050b366004612e09565b610fea565b610338611049565b610338610526366004612e09565b61109d565b61037f601b5481565b61036b610542366004612e09565b6001600160a01b031660009081526005602052604090205460ff1690565b6000546001600160a01b03166103ad565b6103ad7f000000000000000000000000000000000000000000000000000000000000000081565b61034261136f565b6009546103ad9061010090046001600160a01b031681565b6103386105c6366004612e25565b61137e565b61037f60225481565b61036b6105e2366004612e9d565b611415565b61036b6105f5366004612e9d565b611464565b61037f610608366004612fdb565b611471565b6103ad7f000000000000000000000000000000000000000000000000000000000000000081565b61037f60125481565b6103ad7f000000000000000000000000000000000000000000000000000000000000000081565b61037f610672366004612fab565b611535565b610338610685366004612fab565b611556565b61037f610698366004612e25565b6001600160a01b03918216600090815260036020908152604080832093909416825291909152205490565b6103386106d1366004612e09565b6115be565b610338611627565b6103386106ec366004612e09565b611683565b6000546001600160a01b0316331461073e5760405162461bcd60e51b815260206004820181905260248201526000805160206131f683398151915260448201526064015b60405180910390fd5b601055565b606060078054610752906130fe565b80601f016020809104026020016040519081016040528092919081815260200182805461077e906130fe565b80156107cb5780601f106107a0576101008083540402835291602001916107cb565b820191906000526020600020905b8154815290600101906020018083116107ae57829003601f168201915b5050505050905090565b60006107e233848461176b565b5060015b92915050565b60006107f98484846118c3565b61084b8433610846856040518060600160405280602881526020016131ce602891396001600160a01b038a1660009081526003602090815260408083203384529091529020549190611c35565b61176b565b5060015b9392505050565b6000600b548211156108d05760405162461bcd60e51b815260206004820152602a60248201527f416d6f756e74206d757374206265206c657373207468616e20746f74616c207260448201527f65666c656374696f6e73000000000000000000000000000000000000000000006064820152608401610735565b60006108da611c6c565b905061084f838261175f565b6000546001600160a01b0316331461092e5760405162461bcd60e51b815260206004820181905260248201526000805160206131f68339815191526044820152606401610735565b6001600160a01b03811660009081526005602052604090205460ff166109965760405162461bcd60e51b815260206004820152601b60248201527f4163636f756e7420697320616c7265616479206578636c7564656400000000006044820152606401610735565b60005b600654811015610aef57816001600160a01b0316600682815481106109ce57634e487b7160e01b600052603260045260246000fd5b6000918252602090912001546001600160a01b03161415610add57600680546109f9906001906130e7565b81548110610a1757634e487b7160e01b600052603260045260246000fd5b600091825260209091200154600680546001600160a01b039092169183908110610a5157634e487b7160e01b600052603260045260246000fd5b600091825260208083209190910180546001600160a01b0319166001600160a01b039485161790559184168152600282526040808220829055600590925220805460ff191690556006805480610ab757634e487b7160e01b600052603160045260246000fd5b600082815260209020810160001990810180546001600160a01b03191690550190555050565b80610ae781613139565b915050610999565b5050565b3360008181526003602090815260408083206001600160a01b038716845290915281205490916107e29185906108469086611c8f565b6000546001600160a01b03163314610b715760405162461bcd60e51b815260206004820181905260248201526000805160206131f68339815191526044820152606401610735565b6001600160a01b03166000908152600460205260409020805460ff19166001179055565b60205460009060ff1615610beb5760405162461bcd60e51b815260206004820152601260248201527f4c6f7474657279206973207061757365642e00000000000000000000000000006044820152606401610735565b60205461010090046001600160a01b0316331480610c1357506021546001600160a01b031633145b610c6e5760405162461bcd60e51b815260206004820152602660248201527f43616e206f6e6c792062652063616c6c6564206279206c6f747465727920636f6044820152651b9d1c9858dd60d21b6064820152608401610735565b60007f00000000000000000000000000000000000000000000000000000000000000006001600160a01b0316635fe8e7cc6040518163ffffffff1660e01b815260040160006040518083038186803b158015610cc957600080fd5b505afa158015610cdd573d6000803e3d6000fd5b505050506040513d6000823e601f3d908101601f19168201604052610d059190810190612ec8565b90506001815111610d7e5760405162461bcd60e51b815260206004820152602560248201527f486f6c6465727320617265206e6f7420656e6f75676820746f2072756e206c6f60448201527f74746572790000000000000000000000000000000000000000000000000000006064820152608401610735565b600060018251610d8e91906130e7565b90506000610df882424441610da443600161309c565b6040805160208101959095528401929092526001600160a01b0316606083015240608082015260a081018890524360c082015260e00160408051601f19818403018152919052805160209091012090611c9b565b9050828181518110610e1a57634e487b7160e01b600052603260045260246000fd5b60200260200101519350505050919050565b6000546001600160a01b03163314610e745760405162461bcd60e51b815260206004820181905260248201526000805160206131f68339815191526044820152606401610735565b6001600160a01b03811660009081526005602052604090205460ff1615610edd5760405162461bcd60e51b815260206004820152601b60248201527f4163636f756e7420697320616c7265616479206578636c7564656400000000006044820152606401610735565b6001600160a01b03811660009081526001602052604090205415610f37576001600160a01b038116600090815260016020526040902054610f1d90610856565b6001600160a01b0382166000908152600260205260409020555b6001600160a01b03166000818152600560205260408120805460ff191660019081179091556006805491820181559091527ff652222313e28459528d920b65115c16c04f3efc82aaedc97be59f3f377c0d3f0180546001600160a01b0319169091179055565b6000546001600160a01b03163314610fe55760405162461bcd60e51b815260206004820181905260248201526000805160206131f68339815191526044820152606401610735565b601e55565b6001600160a01b03811660009081526005602052604081205460ff161561102757506001600160a01b031660009081526002602052604090205490565b6001600160a01b0382166000908152600160205260409020546107e690610856565b6000546001600160a01b031633146110915760405162461bcd60e51b815260206004820181905260248201526000805160206131f68339815191526044820152606401610735565b61109b6000611ca7565b565b60205460ff16156110f05760405162461bcd60e51b815260206004820152601260248201527f4c6f7474657279206973207061757365642e00000000000000000000000000006044820152606401610735565b60205461010090046001600160a01b031633148061111857506021546001600160a01b031633145b6111735760405162461bcd60e51b815260206004820152602660248201527f43616e206f6e6c792062652063616c6c6564206279206c6f747465727920636f6044820152651b9d1c9858dd60d21b6064820152608401610735565b601e5461117f82610fea565b10156111f35760405162461bcd60e51b815260206004820152602e60248201527f43616e206e6f7420626520612077696e6e65722066726f6d207468652065666660448201527f696369656e742062616c616e63650000000000000000000000000000000000006064820152608401610735565b6000806111ff30610fea565b6040517fdf6110830000000000000000000000000000000000000000000000000000000081526001600160a01b0385811660048301529192506000917f0000000000000000000000000000000000000000000000000000000000000000169063df6110839060240160206040518083038186803b15801561127f57600080fd5b505afa158015611293573d6000803e3d6000fd5b505050506040513d601f19601f820116820180604052508101906112b79190612fc3565b90508015806112c65750600681115b156112d15750505050565b600060146112e06001846130e7565b815481106112fe57634e487b7160e01b600052603260045260246000fd5b60009182526020918290200154601954915490925061010090046001600160a01b0316336001600160a01b031614156113365750601a545b6113586305f5e1006113528361134c8887611753565b90611753565b9061175f565b94506113673087876001611cf7565b505050505050565b606060088054610752906130fe565b6000546001600160a01b031633146113c65760405162461bcd60e51b815260206004820181905260248201526000805160206131f68339815191526044820152606401610735565b602080547fffffffffffffffffffffff0000000000000000000000000000000000000000ff166101006001600160a01b0394851602179055602180546001600160a01b03191691909216179055565b60006107e2338461084685604051806060016040528060258152602001613216602591393360009081526003602090815260408083206001600160a01b038d1684529091529020549190611c35565b60006107e23384846118c3565b6000600a548411156114c55760405162461bcd60e51b815260206004820152601f60248201527f416d6f756e74206d757374206265206c657373207468616e20737570706c79006044820152606401610735565b6115056040518060e00160405280600081526020016000815260200160008152602001600081526020016000815260200160008152602001600081525090565b8361151e576115148584611e65565b51915061084f9050565b6115288584611e65565b60200151915061084f9050565b6014818154811061154557600080fd5b600091825260209091200154905081565b6000546001600160a01b0316331461159e5760405162461bcd60e51b815260206004820181905260248201526000805160206131f68339815191526044820152606401610735565b6115b8606461135283600a5461175390919063ffffffff16565b601b5550565b6000546001600160a01b031633146116065760405162461bcd60e51b815260206004820181905260248201526000805160206131f68339815191526044820152606401610735565b6001600160a01b03166000908152600460205260409020805460ff19169055565b6000546001600160a01b0316331461166f5760405162461bcd60e51b815260206004820181905260248201526000805160206131f68339815191526044820152606401610735565b6020805460ff19811660ff90911615179055565b6000546001600160a01b031633146116cb5760405162461bcd60e51b815260206004820181905260248201526000805160206131f68339815191526044820152606401610735565b6001600160a01b0381166117475760405162461bcd60e51b815260206004820152602660248201527f4f776e61626c653a206e6577206f776e657220697320746865207a65726f206160448201527f64647265737300000000000000000000000000000000000000000000000000006064820152608401610735565b61175081611ca7565b50565b600061084f82846130c8565b600061084f82846130b4565b6001600160a01b0383166117e65760405162461bcd60e51b8152602060048201526024808201527f45524332303a20617070726f76652066726f6d20746865207a65726f2061646460448201527f72657373000000000000000000000000000000000000000000000000000000006064820152608401610735565b6001600160a01b0382166118625760405162461bcd60e51b815260206004820152602260248201527f45524332303a20617070726f766520746f20746865207a65726f20616464726560448201527f73730000000000000000000000000000000000000000000000000000000000006064820152608401610735565b6001600160a01b0383811660008181526003602090815260408083209487168084529482529182902085905590518481527f8c5be1e5ebec7d5bd14f71427d1e84f3dd0314c0f7b2291e5b200ac8c7c3b925910160405180910390a3505050565b6001600160a01b03831661193f5760405162461bcd60e51b815260206004820152602560248201527f45524332303a207472616e736665722066726f6d20746865207a65726f20616460448201527f64726573730000000000000000000000000000000000000000000000000000006064820152608401610735565b6001600160a01b0382166119bb5760405162461bcd60e51b815260206004820152602360248201527f45524332303a207472616e7366657220746f20746865207a65726f206164647260448201527f65737300000000000000000000000000000000000000000000000000000000006064820152608401610735565b60008111611a315760405162461bcd60e51b815260206004820152602960248201527f5472616e7366657220616d6f756e74206d75737420626520677265617465722060448201527f7468616e207a65726f00000000000000000000000000000000000000000000006064820152608401610735565b6000546001600160a01b03848116911614801590611a5d57506000546001600160a01b03838116911614155b15611ada57601b54811115611ada5760405162461bcd60e51b815260206004820152602860248201527f5472616e7366657220616d6f756e74206578636565647320746865206d61785460448201527f78416d6f756e742e0000000000000000000000000000000000000000000000006064820152608401610735565b6022544211611bce576040516370a0823160e01b81526001600160a01b0383811660048301526000917f0000000000000000000000000000000000000000000000000000000000000000909116906370a082319060240160206040518083038186803b158015611b4957600080fd5b505afa158015611b5d573d6000803e3d6000fd5b505050506040513d601f19601f82011682018060405250810190611b819190612fc3565b11611bce5760405162461bcd60e51b815260206004820181905260248201527f52656365697069656e74206d7573742062652061204e465420686f6c6465722e6044820152606401610735565b611bd88383611f0b565b6001600160a01b03831660009081526004602052604090205460019060ff1680611c1a57506001600160a01b03831660009081526004602052604090205460ff165b15611c23575060005b611c2f84848484611cf7565b50505050565b60008184841115611c595760405162461bcd60e51b81526004016107359190613049565b50611c6483856130e7565b949350505050565b6000806000611c79611fd1565b9092509050611c88828261175f565b9250505090565b600061084f828461309c565b600061084f8284613154565b600080546001600160a01b038381166001600160a01b0319831681178455604051919092169283917f8be0079c531659141344cd1fd0a4f28419497f9722a3daafe3b4186f6b6457e09190a35050565b80611d0457611d0461218b565b6001600160a01b03841660009081526005602052604090205460ff168015611d4557506001600160a01b03831660009081526005602052604090205460ff16155b15611d5a57611d55848484612214565b611e58565b6001600160a01b03841660009081526005602052604090205460ff16158015611d9b57506001600160a01b03831660009081526005602052604090205460ff165b15611dab57611d5584848461234c565b6001600160a01b03841660009081526005602052604090205460ff16158015611ded57506001600160a01b03831660009081526005602052604090205460ff16155b15611dfd57611d558484846123f1565b6001600160a01b03841660009081526005602052604090205460ff168015611e3d57506001600160a01b03831660009081526005602052604090205460ff165b15611e4d57611d55848484612425565b611e588484846123f1565b80611c2f57611c2f61248a565b611ea56040518060e00160405280600081526020016000815260200160008152602001600081526020016000815260200160008152602001600081525090565b600080600080611eb587876124b5565b93509350935093506000806000611ece8a87878761250c565b6040805160e0810182529384526020840192909252908201526060810197909752505050608084019290925260a083015260c08201529392505050565b6000611f1630610fea565b9050601b548110611f265750601b545b60165481108015908190611f6c57507f00000000000000000000000000000000000000000000000000000000000000006001600160a01b0316846001600160a01b031614155b8015611fbe57506001600160a01b03841630148015611fbc57507f00000000000000000000000000000000000000000000000000000000000000006001600160a01b0316836001600160a01b0316145b155b15611c2f576016549150611c2f8261257b565b600b54600a546000918291825b60065481101561215b5782600160006006848154811061200e57634e487b7160e01b600052603260045260246000fd5b60009182526020808320909101546001600160a01b031683528201929092526040019020541180612087575081600260006006848154811061206057634e487b7160e01b600052603260045260246000fd5b60009182526020808320909101546001600160a01b03168352820192909252604001902054115b1561209d57600b54600a54945094505050509091565b6120f160016000600684815481106120c557634e487b7160e01b600052603260045260246000fd5b60009182526020808320909101546001600160a01b031683528201929092526040019020548490612816565b9250612147600260006006848154811061211b57634e487b7160e01b600052603260045260246000fd5b60009182526020808320909101546001600160a01b031683528201929092526040019020548390612816565b91508061215381613139565b915050611fde565b50600a54600b5461216b9161175f565b82101561218257600b54600a549350935050509091565b90939092509050565b60105461219457565b600e54600f55601054601155601254601355601480546121b691601591612d54565b506017546018556000600e819055601081905560128190556040805160c08101825282815260208101839052908101829052606081018290526080810182905260a081019190915261220c906014906006612da4565b506000601755565b60006122208284611e65565b6001600160a01b0385166000908152600260205260409020549091506122469083612816565b6001600160a01b038516600090815260026020908152604080832093909355835160019091529190205461227991612816565b6001600160a01b03808616600090815260016020908152604080832094909455840151918616815291909120546122af91611c8f565b6001600160a01b03841660009081526001602052604090205560a08101516122d690612822565b6122e38160c0015161284f565b6122f581604001518260800151612b07565b826001600160a01b0316846001600160a01b03167fddf252ad1be2c89b69c2b068fc378daa952ba7f163c4a11628f55a4df523b3ef836060015160405161233e91815260200190565b60405180910390a350505050565b60006123588284611e65565b80516001600160a01b0386166000908152600160205260409020549192506123809190612816565b6001600160a01b03808616600090815260016020908152604080832094909455606085015192871682526002905291909120546123bc91611c8f565b6001600160a01b038416600090815260026020908152604080832093909355838101516001909152919020546122af91611c8f565b60006123fd8284611e65565b80516001600160a01b0386166000908152600160205260409020549192506122799190612816565b60006124318284611e65565b6001600160a01b0385166000908152600260205260409020549091506124579083612816565b6001600160a01b038516600090815260026020908152604080832093909355835160019091529190205461238091612816565b600f54600e55601154601055601354601255601580546124ac91601491612d54565b50601854601755565b60008060008060006124c687612b2b565b905060006124d388612b48565b905060006124e18989612b65565b905060006124fb826124f585818e89612816565b90612816565b9a9399509197509550909350505050565b60008060008061251a611c6c565b905060006125288983611753565b905060006125368984611753565b905060006125448985611753565b905060006125528986611753565b90506000612566826124f585818989612816565b949d949c50929a509298505050505050505050565b600061258882600261175f565b9050600061259b60026113528585612816565b905060006125a98483612816565b905060006125b78484611c8f565b6009546040516370a0823160e01b81523060048201529192506000916101009091046001600160a01b0316906370a082319060240160206040518083038186803b15801561260457600080fd5b505afa158015612618573d6000803e3d6000fd5b505050506040513d601f19601f8201168201806040525081019061263c9190612fc3565b600954604051638a2d81a760e01b81526001600160a01b037f00000000000000000000000000000000000000000000000000000000000000008116600483015260248201869052610100909204909116604482015290915073__$ac9bc9c36fb5801f34a6be714f654e54fc$__90638a2d81a79060640160006040518083038186803b1580156126cb57600080fd5b505af41580156126df573d6000803e3d6000fd5b50506009546040516370a0823160e01b81523060048201526000935061276b9250849161010090046001600160a01b0316906370a08231906024015b60206040518083038186803b15801561273357600080fd5b505afa158015612747573d6000803e3d6000fd5b505050506040513d601f19601f820116820180604052508101906124f59190612fc3565b9050600061277a82600361175f565b90506127cb7f00000000000000000000000000000000000000000000000000000000000000006127b26000546001600160a01b031690565b600954889061010090046001600160a01b031685612c5e565b60408051878152602081018490529081018690527f17bbfb9a6069321b6ded73bd96327c9e6b7212a5cd51ff219cd61370acafb5619060600160405180910390a15050505050505050565b600061084f82846130e7565b600d5461282f9082611c8f565b600d8190556016541161175057612847600d5461257b565b6000600d5550565b6000612859611c6c565b905060006128678383611753565b601d546001600160a01b031660009081526001602052604090205490915061288f9082611c8f565b601d546001600160a01b039081166000908152600160205260408082209390935560095492516370a0823160e01b815230600482015290926101009004909116906370a082319060240160206040518083038186803b1580156128f157600080fd5b505afa158015612905573d6000803e3d6000fd5b505050506040513d601f19601f820116820180604052508101906129299190612fc3565b601f54601d546001600160a01b031660009081526001602052604090205491925011611c2f57601d546001600160a01b0390811660009081526001602052604090819020546009549151638a2d81a760e01b81527f0000000000000000000000000000000000000000000000000000000000000000841660048201526024810191909152610100909104909116604482015273__$ac9bc9c36fb5801f34a6be714f654e54fc$__90638a2d81a79060640160006040518083038186803b1580156129f257600080fd5b505af4158015612a06573d6000803e3d6000fd5b50506009546040516370a0823160e01b815230600482015260009350612a469250849161010090046001600160a01b0316906370a082319060240161271b565b601d80546001600160a01b0390811660009081526001602052604080822091909155600954925490517fa9059cbb000000000000000000000000000000000000000000000000000000008152908216600482015260248101849052929350610100909104169063a9059cbb90604401602060405180830381600087803b158015612acf57600080fd5b505af1158015612ae3573d6000803e3d6000fd5b505050506040513d601f19601f820116820180604052508101906113679190612f8f565b600b54612b149083612816565b600b55600c54612b249082611c8f565b600c555050565b60006107e6612710611352600e548561175390919063ffffffff16565b60006107e66127106113526017548561175390919063ffffffff16565b6040517f61f7ffaf0000000000000000000000000000000000000000000000000000000081526001600160a01b0382811660048301526000917f0000000000000000000000000000000000000000000000000000000000000000909116906361f7ffaf9060240160206040518083038186803b158015612be457600080fd5b505afa158015612bf8573d6000803e3d6000fd5b505050506040513d601f19601f82011682018060405250810190612c1c9190612f8f565b15612c4357612c3c6127106113526012548661175390919063ffffffff16565b90506107e6565b612c3c6127106113526010548661175390919063ffffffff16565b846001600160a01b03811663e8e33700308587866000808c612c824261016861309c565b60405160e08a901b7fffffffff000000000000000000000000000000000000000000000000000000001681526001600160a01b039889166004820152968816602488015260448701959095526064860193909352608485019190915260a484015290921660c482015260e481019190915261010401606060405180830381600087803b158015612d1157600080fd5b505af1158015612d25573d6000803e3d6000fd5b505050506040513d601f19601f82011682018060405250810190612d49919061301c565b505050505050505050565b828054828255906000526020600020908101928215612d945760005260206000209182015b82811115612d94578254825591600101919060010190612d79565b50612da0929150612de4565b5090565b828054828255906000526020600020908101928215612d94579160200282015b82811115612d94578251829060ff16905591602001919060010190612dc4565b5b80821115612da05760008155600101612de5565b8051612e04816131aa565b919050565b600060208284031215612e1a578081fd5b813561084f816131aa565b60008060408385031215612e37578081fd5b8235612e42816131aa565b91506020830135612e52816131aa565b809150509250929050565b600080600060608486031215612e71578081fd5b8335612e7c816131aa565b92506020840135612e8c816131aa565b929592945050506040919091013590565b60008060408385031215612eaf578182fd5b8235612eba816131aa565b946020939093013593505050565b60006020808385031215612eda578182fd5b825167ffffffffffffffff80821115612ef1578384fd5b818501915085601f830112612f04578384fd5b815181811115612f1657612f16613194565b8060051b604051601f19603f83011681018181108582111715612f3b57612f3b613194565b604052828152858101935084860182860187018a1015612f59578788fd5b8795505b83861015612f8257612f6e81612df9565b855260019590950194938601938601612f5d565b5098975050505050505050565b600060208284031215612fa0578081fd5b815161084f816131bf565b600060208284031215612fbc578081fd5b5035919050565b600060208284031215612fd4578081fd5b5051919050565b600080600060608486031215612fef578283fd5b833592506020840135613001816131bf565b91506040840135613011816131aa565b809150509250925092565b600080600060608486031215613030578283fd5b8351925060208401519150604084015190509250925092565b6000602080835283518082850152825b8181101561307557858101830151858201604001528201613059565b818111156130865783604083870101525b50601f01601f1916929092016040019392505050565b600082198211156130af576130af613168565b500190565b6000826130c3576130c361317e565b500490565b60008160001904831182151516156130e2576130e2613168565b500290565b6000828210156130f9576130f9613168565b500390565b600181811c9082168061311257607f821691505b6020821081141561313357634e487b7160e01b600052602260045260246000fd5b50919050565b600060001982141561314d5761314d613168565b5060010190565b6000826131635761316361317e565b500690565b634e487b7160e01b600052601160045260246000fd5b634e487b7160e01b600052601260045260246000fd5b634e487b7160e01b600052604160045260246000fd5b6001600160a01b038116811461175057600080fd5b801515811461175057600080fdfe45524332303a207472616e7366657220616d6f756e74206578636565647320616c6c6f77616e63654f776e61626c653a2063616c6c6572206973206e6f7420746865206f776e657245524332303a2064656372656173656420616c6c6f77616e63652062656c6f77207a65726fa264697066735822122003e5e5d161613fe1bd64206734ea86db58f9862f8f0209db8874292cce42379964736f6c63430008040033",
          "opcodes": "PUSH2 0x120 PUSH1 0x40 MSTORE PUSH1 0x7 PUSH1 0xE0 DUP2 SWAP1 MSTORE PUSH7 0x2121AA37B5B2B7 PUSH1 0xC9 SHL PUSH2 0x100 SWAP1 DUP2 MSTORE PUSH3 0x2A SWAP2 SWAP1 DUP2 PUSH3 0x55B JUMP JUMPDEST POP PUSH1 0x40 DUP1 MLOAD DUP1 DUP3 ADD SWAP1 SWAP2 MSTORE PUSH1 0x4 DUP1 DUP3 MSTORE PUSH4 0x2121AA27 PUSH1 0xE1 SHL PUSH1 0x20 SWAP1 SWAP3 ADD SWAP2 DUP3 MSTORE PUSH3 0x58 SWAP2 PUSH1 0x8 SWAP2 PUSH3 0x55B JUMP JUMPDEST POP PUSH1 0x9 DUP1 SLOAD PUSH1 0xFF NOT AND PUSH1 0x12 SWAP1 DUP2 OR SWAP1 SWAP2 SSTORE PUSH3 0x76 SWAP1 PUSH1 0xA PUSH3 0x767 JUMP JUMPDEST PUSH3 0x86 SWAP1 PUSH4 0x3B9ACA00 PUSH3 0x826 JUMP JUMPDEST PUSH1 0xA DUP2 SWAP1 SSTORE PUSH3 0x99 SWAP1 PUSH1 0x0 NOT PUSH3 0x89F JUMP JUMPDEST PUSH3 0xA7 SWAP1 PUSH1 0x0 NOT PUSH3 0x848 JUMP JUMPDEST PUSH1 0xB SSTORE PUSH1 0x0 PUSH1 0xD SSTORE PUSH2 0x1F4 PUSH1 0xE DUP2 SWAP1 SSTORE PUSH1 0xF DUP2 SWAP1 SSTORE PUSH2 0x320 PUSH1 0x10 DUP2 SWAP1 SSTORE PUSH1 0x11 SSTORE PUSH2 0x12C PUSH1 0x12 DUP2 SWAP1 SSTORE PUSH1 0x13 DUP2 SWAP1 SSTORE PUSH1 0x40 DUP1 MLOAD PUSH1 0xC0 DUP2 ADD DUP3 MSTORE PUSH1 0x32 DUP2 MSTORE PUSH1 0x64 PUSH1 0x20 DUP3 ADD MSTORE PUSH1 0x96 SWAP2 DUP2 ADD SWAP2 SWAP1 SWAP2 MSTORE PUSH1 0xC8 PUSH1 0x60 DUP3 ADD MSTORE PUSH1 0x80 DUP2 ADD SWAP2 SWAP1 SWAP2 MSTORE PUSH1 0xA0 DUP2 ADD SWAP2 SWAP1 SWAP2 MSTORE PUSH3 0x119 SWAP1 PUSH1 0x14 SWAP1 PUSH1 0x6 PUSH3 0x5EA JUMP JUMPDEST POP PUSH1 0x14 DUP1 SLOAD PUSH3 0x12C SWAP2 PUSH1 0x15 SWAP2 PUSH3 0x62E JUMP JUMPDEST POP PUSH3 0x16B PUSH1 0x64 PUSH3 0x157 PUSH2 0x3E8 PUSH3 0x157 PUSH1 0x1 PUSH1 0xA SLOAD PUSH3 0x4E6 PUSH1 0x20 SHL PUSH3 0x1753 OR SWAP1 SWAP2 SWAP1 PUSH1 0x20 SHR JUMP JUMPDEST PUSH3 0x4FD PUSH1 0x20 SHL PUSH3 0x175F OR SWAP1 SWAP2 SWAP1 PUSH1 0x20 SHR JUMP JUMPDEST PUSH1 0x16 SSTORE PUSH1 0x64 PUSH1 0x17 DUP2 SWAP1 SSTORE PUSH1 0x18 SSTORE PUSH1 0x19 DUP1 SSTORE PUSH1 0x4B PUSH1 0x1A SSTORE PUSH1 0x9 SLOAD PUSH3 0x194 SWAP1 PUSH1 0xFF AND PUSH1 0xA PUSH3 0x767 JUMP JUMPDEST PUSH3 0x1A4 SWAP1 PUSH4 0x1312D00 PUSH3 0x826 JUMP JUMPDEST PUSH1 0x1B SSTORE PUSH1 0x1C DUP1 SLOAD PUSH1 0x1 PUSH1 0x1 PUSH1 0xA0 SHL SUB NOT AND PUSH20 0xBDA2E26669EB6DB2A460A9018B16495BCCCF6F0A OR SWAP1 SSTORE PUSH1 0x9 SLOAD PUSH3 0x1E0 SWAP1 PUSH1 0xFF AND PUSH1 0xA PUSH3 0x767 JUMP JUMPDEST PUSH3 0x1EF SWAP1 PUSH3 0xF4240 PUSH3 0x826 JUMP JUMPDEST PUSH1 0x1E SSTORE PUSH1 0x9 SLOAD PUSH3 0x205 SWAP1 PUSH1 0xFF AND PUSH1 0xA PUSH3 0x767 JUMP JUMPDEST PUSH3 0x213 SWAP1 PUSH2 0x2710 PUSH3 0x826 JUMP JUMPDEST PUSH1 0x1F SSTORE PUSH1 0x20 DUP1 SLOAD PUSH1 0xFF NOT AND SWAP1 SSTORE CALLVALUE DUP1 ISZERO PUSH3 0x22D JUMPI PUSH1 0x0 DUP1 REVERT JUMPDEST POP PUSH1 0x40 MLOAD PUSH3 0x3BE3 CODESIZE SUB DUP1 PUSH3 0x3BE3 DUP4 CODECOPY DUP2 ADD PUSH1 0x40 DUP2 SWAP1 MSTORE PUSH3 0x250 SWAP2 PUSH3 0x6AE JUMP JUMPDEST PUSH3 0x25B CALLER PUSH3 0x50B JUMP JUMPDEST DUP1 TIMESTAMP LT PUSH3 0x268 JUMPI PUSH1 0x0 DUP1 REVERT JUMPDEST PUSH1 0x22 DUP2 SWAP1 SSTORE PUSH1 0x1 PUSH1 0x1 PUSH1 0x60 SHL SUB NOT PUSH1 0x60 DUP6 SWAP1 SHL AND PUSH1 0xC0 MSTORE PUSH1 0x9 DUP1 SLOAD PUSH1 0x1 PUSH1 0x1 PUSH1 0xA0 SHL SUB DUP5 DUP2 AND PUSH2 0x100 MUL PUSH2 0x100 PUSH1 0x1 PUSH1 0xA8 SHL SUB NOT SWAP1 SWAP3 AND SWAP2 SWAP1 SWAP2 OR SWAP1 SWAP2 SSTORE PUSH1 0x40 DUP1 MLOAD PUSH4 0xC45A0155 PUSH1 0xE0 SHL DUP2 MSTORE SWAP1 MLOAD DUP6 SWAP3 DUP4 AND SWAP2 PUSH4 0xC45A0155 SWAP2 PUSH1 0x4 DUP1 DUP4 ADD SWAP3 PUSH1 0x20 SWAP3 SWAP2 SWAP1 DUP3 SWAP1 SUB ADD DUP2 DUP7 DUP1 EXTCODESIZE ISZERO DUP1 ISZERO PUSH3 0x2E1 JUMPI PUSH1 0x0 DUP1 REVERT JUMPDEST POP GAS STATICCALL ISZERO DUP1 ISZERO PUSH3 0x2F6 JUMPI RETURNDATASIZE PUSH1 0x0 DUP1 RETURNDATACOPY RETURNDATASIZE PUSH1 0x0 REVERT JUMPDEST POP POP POP POP PUSH1 0x40 MLOAD RETURNDATASIZE PUSH1 0x1F NOT PUSH1 0x1F DUP3 ADD AND DUP3 ADD DUP1 PUSH1 0x40 MSTORE POP DUP2 ADD SWAP1 PUSH3 0x31C SWAP2 SWAP1 PUSH3 0x688 JUMP JUMPDEST PUSH1 0x9 SLOAD PUSH1 0x40 MLOAD PUSH4 0x64E329CB PUSH1 0xE1 SHL DUP2 MSTORE ADDRESS PUSH1 0x4 DUP3 ADD MSTORE PUSH1 0x1 PUSH1 0x1 PUSH1 0xA0 SHL SUB PUSH2 0x100 SWAP1 SWAP3 DIV DUP3 AND PUSH1 0x24 DUP3 ADD MSTORE SWAP2 AND SWAP1 PUSH4 0xC9C65396 SWAP1 PUSH1 0x44 ADD PUSH1 0x20 PUSH1 0x40 MLOAD DUP1 DUP4 SUB DUP2 PUSH1 0x0 DUP8 DUP1 EXTCODESIZE ISZERO DUP1 ISZERO PUSH3 0x36E JUMPI PUSH1 0x0 DUP1 REVERT JUMPDEST POP GAS CALL ISZERO DUP1 ISZERO PUSH3 0x383 JUMPI RETURNDATASIZE PUSH1 0x0 DUP1 RETURNDATACOPY RETURNDATASIZE PUSH1 0x0 REVERT JUMPDEST POP POP POP POP PUSH1 0x40 MLOAD RETURNDATASIZE PUSH1 0x1F NOT PUSH1 0x1F DUP3 ADD AND DUP3 ADD DUP1 PUSH1 0x40 MSTORE POP DUP2 ADD SWAP1 PUSH3 0x3A9 SWAP2 SWAP1 PUSH3 0x688 JUMP JUMPDEST PUSH1 0x1 PUSH1 0x1 PUSH1 0x60 SHL SUB NOT PUSH1 0x60 SWAP2 DUP3 SHL DUP2 AND PUSH1 0xA0 MSTORE SWAP1 DUP3 SWAP1 SHL AND PUSH1 0x80 MSTORE PUSH1 0xB SLOAD PUSH1 0x1 PUSH1 0x0 PUSH3 0x3D3 CALLER SWAP1 JUMP JUMPDEST PUSH1 0x1 PUSH1 0x1 PUSH1 0xA0 SHL SUB SWAP1 DUP2 AND DUP3 MSTORE PUSH1 0x20 DUP1 DUP4 ADD SWAP4 SWAP1 SWAP4 MSTORE PUSH1 0x40 SWAP2 DUP3 ADD PUSH1 0x0 SWAP1 DUP2 KECCAK256 SWAP5 SWAP1 SWAP5 SSTORE PUSH1 0x1C SLOAD PUSH1 0x1D DUP1 SLOAD PUSH1 0x1 PUSH1 0x1 PUSH1 0xA0 SHL SUB NOT AND SWAP2 DUP4 AND SWAP2 DUP3 OR DUP2 SSTORE SWAP1 DUP6 MSTORE PUSH1 0x2 DUP5 MSTORE DUP3 DUP6 KECCAK256 DUP6 SWAP1 SSTORE SLOAD AND DUP4 MSTORE PUSH1 0x1 SWAP2 DUP3 SWAP1 MSTORE DUP3 KECCAK256 DUP3 SWAP1 SSTORE SWAP1 PUSH1 0x4 SWAP1 PUSH3 0x443 PUSH1 0x0 SLOAD PUSH1 0x1 PUSH1 0x1 PUSH1 0xA0 SHL SUB AND SWAP1 JUMP JUMPDEST PUSH1 0x1 PUSH1 0x1 PUSH1 0xA0 SHL SUB AND DUP2 MSTORE PUSH1 0x20 DUP1 DUP3 ADD SWAP3 SWAP1 SWAP3 MSTORE PUSH1 0x40 SWAP1 DUP2 ADD PUSH1 0x0 SWAP1 DUP2 KECCAK256 DUP1 SLOAD SWAP5 ISZERO ISZERO PUSH1 0xFF NOT SWAP6 DUP7 AND OR SWAP1 SSTORE ADDRESS DUP2 MSTORE PUSH1 0x4 SWAP1 SWAP3 MSTORE SWAP1 KECCAK256 DUP1 SLOAD SWAP1 SWAP2 AND PUSH1 0x1 OR SWAP1 SSTORE PUSH3 0x48B CALLER SWAP1 JUMP JUMPDEST PUSH1 0x1 PUSH1 0x1 PUSH1 0xA0 SHL SUB AND PUSH1 0x0 PUSH1 0x1 PUSH1 0x1 PUSH1 0xA0 SHL SUB AND PUSH32 0xDDF252AD1BE2C89B69C2B068FC378DAA952BA7F163C4A11628F55A4DF523B3EF PUSH1 0xA SLOAD PUSH1 0x40 MLOAD PUSH3 0x4D3 SWAP2 DUP2 MSTORE PUSH1 0x20 ADD SWAP1 JUMP JUMPDEST PUSH1 0x40 MLOAD DUP1 SWAP2 SUB SWAP1 LOG3 POP POP POP POP POP PUSH3 0x8FB JUMP JUMPDEST PUSH1 0x0 PUSH3 0x4F4 DUP3 DUP5 PUSH3 0x826 JUMP JUMPDEST SWAP1 POP JUMPDEST SWAP3 SWAP2 POP POP JUMP JUMPDEST PUSH1 0x0 PUSH3 0x4F4 DUP3 DUP5 PUSH3 0x707 JUMP JUMPDEST PUSH1 0x0 DUP1 SLOAD PUSH1 0x1 PUSH1 0x1 PUSH1 0xA0 SHL SUB DUP4 DUP2 AND PUSH1 0x1 PUSH1 0x1 PUSH1 0xA0 SHL SUB NOT DUP4 AND DUP2 OR DUP5 SSTORE PUSH1 0x40 MLOAD SWAP2 SWAP1 SWAP3 AND SWAP3 DUP4 SWAP2 PUSH32 0x8BE0079C531659141344CD1FD0A4F28419497F9722A3DAAFE3B4186F6B6457E0 SWAP2 SWAP1 LOG3 POP POP JUMP JUMPDEST DUP3 DUP1 SLOAD PUSH3 0x569 SWAP1 PUSH3 0x862 JUMP JUMPDEST SWAP1 PUSH1 0x0 MSTORE PUSH1 0x20 PUSH1 0x0 KECCAK256 SWAP1 PUSH1 0x1F ADD PUSH1 0x20 SWAP1 DIV DUP2 ADD SWAP3 DUP3 PUSH3 0x58D JUMPI PUSH1 0x0 DUP6 SSTORE PUSH3 0x5D8 JUMP JUMPDEST DUP3 PUSH1 0x1F LT PUSH3 0x5A8 JUMPI DUP1 MLOAD PUSH1 0xFF NOT AND DUP4 DUP1 ADD OR DUP6 SSTORE PUSH3 0x5D8 JUMP JUMPDEST DUP3 DUP1 ADD PUSH1 0x1 ADD DUP6 SSTORE DUP3 ISZERO PUSH3 0x5D8 JUMPI SWAP2 DUP3 ADD JUMPDEST DUP3 DUP2 GT ISZERO PUSH3 0x5D8 JUMPI DUP3 MLOAD DUP3 SSTORE SWAP2 PUSH1 0x20 ADD SWAP2 SWAP1 PUSH1 0x1 ADD SWAP1 PUSH3 0x5BB JUMP JUMPDEST POP PUSH3 0x5E6 SWAP3 SWAP2 POP PUSH3 0x671 JUMP JUMPDEST POP SWAP1 JUMP JUMPDEST DUP3 DUP1 SLOAD DUP3 DUP3 SSTORE SWAP1 PUSH1 0x0 MSTORE PUSH1 0x20 PUSH1 0x0 KECCAK256 SWAP1 DUP2 ADD SWAP3 DUP3 ISZERO PUSH3 0x5D8 JUMPI SWAP2 PUSH1 0x20 MUL DUP3 ADD JUMPDEST DUP3 DUP2 GT ISZERO PUSH3 0x5D8 JUMPI DUP3 MLOAD DUP3 SWAP1 PUSH2 0xFFFF AND SWAP1 SSTORE SWAP2 PUSH1 0x20 ADD SWAP2 SWAP1 PUSH1 0x1 ADD SWAP1 PUSH3 0x60B JUMP JUMPDEST DUP3 DUP1 SLOAD DUP3 DUP3 SSTORE SWAP1 PUSH1 0x0 MSTORE PUSH1 0x20 PUSH1 0x0 KECCAK256 SWAP1 DUP2 ADD SWAP3 DUP3 ISZERO PUSH3 0x5D8 JUMPI PUSH1 0x0 MSTORE PUSH1 0x20 PUSH1 0x0 KECCAK256 SWAP2 DUP3 ADD JUMPDEST DUP3 DUP2 GT ISZERO PUSH3 0x5D8 JUMPI DUP3 SLOAD DUP3 SSTORE SWAP2 PUSH1 0x1 ADD SWAP2 SWAP1 PUSH1 0x1 ADD SWAP1 PUSH3 0x654 JUMP JUMPDEST JUMPDEST DUP1 DUP3 GT ISZERO PUSH3 0x5E6 JUMPI PUSH1 0x0 DUP2 SSTORE PUSH1 0x1 ADD PUSH3 0x672 JUMP JUMPDEST PUSH1 0x0 PUSH1 0x20 DUP3 DUP5 SUB SLT ISZERO PUSH3 0x69A JUMPI DUP1 DUP2 REVERT JUMPDEST DUP2 MLOAD PUSH3 0x6A7 DUP2 PUSH3 0x8E2 JUMP JUMPDEST SWAP4 SWAP3 POP POP POP JUMP JUMPDEST PUSH1 0x0 DUP1 PUSH1 0x0 DUP1 PUSH1 0x80 DUP6 DUP8 SUB SLT ISZERO PUSH3 0x6C4 JUMPI DUP3 DUP4 REVERT JUMPDEST DUP5 MLOAD PUSH3 0x6D1 DUP2 PUSH3 0x8E2 JUMP JUMPDEST PUSH1 0x20 DUP7 ADD MLOAD SWAP1 SWAP5 POP PUSH3 0x6E4 DUP2 PUSH3 0x8E2 JUMP JUMPDEST PUSH1 0x40 DUP7 ADD MLOAD SWAP1 SWAP4 POP PUSH3 0x6F7 DUP2 PUSH3 0x8E2 JUMP JUMPDEST PUSH1 0x60 SWAP6 SWAP1 SWAP6 ADD MLOAD SWAP4 SWAP7 SWAP3 SWAP6 POP POP POP JUMP JUMPDEST PUSH1 0x0 DUP3 PUSH3 0x719 JUMPI PUSH3 0x719 PUSH3 0x8CC JUMP JUMPDEST POP DIV SWAP1 JUMP JUMPDEST PUSH1 0x1 DUP2 DUP2 JUMPDEST DUP1 DUP6 GT ISZERO PUSH3 0x75F JUMPI DUP2 PUSH1 0x0 NOT DIV DUP3 GT ISZERO PUSH3 0x743 JUMPI PUSH3 0x743 PUSH3 0x8B6 JUMP JUMPDEST DUP1 DUP6 AND ISZERO PUSH3 0x751 JUMPI SWAP2 DUP2 MUL SWAP2 JUMPDEST SWAP4 DUP5 SHR SWAP4 SWAP1 DUP1 MUL SWAP1 PUSH3 0x723 JUMP JUMPDEST POP SWAP3 POP SWAP3 SWAP1 POP JUMP JUMPDEST PUSH1 0x0 PUSH3 0x4F4 PUSH1 0xFF DUP5 AND DUP4 PUSH1 0x0 DUP3 PUSH3 0x783 JUMPI POP PUSH1 0x1 PUSH3 0x4F7 JUMP JUMPDEST DUP2 PUSH3 0x792 JUMPI POP PUSH1 0x0 PUSH3 0x4F7 JUMP JUMPDEST DUP2 PUSH1 0x1 DUP2 EQ PUSH3 0x7AB JUMPI PUSH1 0x2 DUP2 EQ PUSH3 0x7B6 JUMPI PUSH3 0x7D6 JUMP JUMPDEST PUSH1 0x1 SWAP2 POP POP PUSH3 0x4F7 JUMP JUMPDEST PUSH1 0xFF DUP5 GT ISZERO PUSH3 0x7CA JUMPI PUSH3 0x7CA PUSH3 0x8B6 JUMP JUMPDEST POP POP PUSH1 0x1 DUP3 SHL PUSH3 0x4F7 JUMP JUMPDEST POP PUSH1 0x20 DUP4 LT PUSH2 0x133 DUP4 LT AND PUSH1 0x4E DUP5 LT PUSH1 0xB DUP5 LT AND OR ISZERO PUSH3 0x7FB JUMPI POP DUP2 DUP2 EXP PUSH3 0x4F7 JUMP JUMPDEST PUSH3 0x807 DUP4 DUP4 PUSH3 0x71E JUMP JUMPDEST DUP1 PUSH1 0x0 NOT DIV DUP3 GT ISZERO PUSH3 0x81E JUMPI PUSH3 0x81E PUSH3 0x8B6 JUMP JUMPDEST MUL SWAP4 SWAP3 POP POP POP JUMP JUMPDEST PUSH1 0x0 DUP2 PUSH1 0x0 NOT DIV DUP4 GT DUP3 ISZERO ISZERO AND ISZERO PUSH3 0x843 JUMPI PUSH3 0x843 PUSH3 0x8B6 JUMP JUMPDEST POP MUL SWAP1 JUMP JUMPDEST PUSH1 0x0 DUP3 DUP3 LT ISZERO PUSH3 0x85D JUMPI PUSH3 0x85D PUSH3 0x8B6 JUMP JUMPDEST POP SUB SWAP1 JUMP JUMPDEST PUSH1 0x1 DUP2 DUP2 SHR SWAP1 DUP3 AND DUP1 PUSH3 0x877 JUMPI PUSH1 0x7F DUP3 AND SWAP2 POP JUMPDEST PUSH1 0x20 DUP3 LT DUP2 EQ ISZERO PUSH3 0x899 JUMPI PUSH4 0x4E487B71 PUSH1 0xE0 SHL PUSH1 0x0 MSTORE PUSH1 0x22 PUSH1 0x4 MSTORE PUSH1 0x24 PUSH1 0x0 REVERT JUMPDEST POP SWAP2 SWAP1 POP JUMP JUMPDEST PUSH1 0x0 DUP3 PUSH3 0x8B1 JUMPI PUSH3 0x8B1 PUSH3 0x8CC JUMP JUMPDEST POP MOD SWAP1 JUMP JUMPDEST PUSH4 0x4E487B71 PUSH1 0xE0 SHL PUSH1 0x0 MSTORE PUSH1 0x11 PUSH1 0x4 MSTORE PUSH1 0x24 PUSH1 0x0 REVERT JUMPDEST PUSH4 0x4E487B71 PUSH1 0xE0 SHL PUSH1 0x0 MSTORE PUSH1 0x12 PUSH1 0x4 MSTORE PUSH1 0x24 PUSH1 0x0 REVERT JUMPDEST PUSH1 0x1 PUSH1 0x1 PUSH1 0xA0 SHL SUB DUP2 AND DUP2 EQ PUSH3 0x8F8 JUMPI PUSH1 0x0 DUP1 REVERT JUMPDEST POP JUMP JUMPDEST PUSH1 0x80 MLOAD PUSH1 0x60 SHR PUSH1 0xA0 MLOAD PUSH1 0x60 SHR PUSH1 0xC0 MLOAD PUSH1 0x60 SHR PUSH2 0x3270 PUSH3 0x973 PUSH1 0x0 CODECOPY PUSH1 0x0 DUP2 DUP2 PUSH2 0x576 ADD MSTORE DUP2 DUP2 PUSH2 0xC72 ADD MSTORE DUP2 DUP2 PUSH2 0x123D ADD MSTORE DUP2 DUP2 PUSH2 0x1B05 ADD MSTORE PUSH2 0x2BA0 ADD MSTORE PUSH1 0x0 DUP2 DUP2 PUSH2 0x612 ADD MSTORE DUP2 DUP2 PUSH2 0x1F37 ADD MSTORE PUSH2 0x1F88 ADD MSTORE PUSH1 0x0 DUP2 DUP2 PUSH2 0x642 ADD MSTORE DUP2 DUP2 PUSH2 0x2656 ADD MSTORE DUP2 DUP2 PUSH2 0x2781 ADD MSTORE PUSH2 0x297F ADD MSTORE PUSH2 0x3270 PUSH1 0x0 RETURN INVALID PUSH1 0x80 PUSH1 0x40 MSTORE CALLVALUE DUP1 ISZERO PUSH2 0x10 JUMPI PUSH1 0x0 DUP1 REVERT JUMPDEST POP PUSH1 0x4 CALLDATASIZE LT PUSH2 0x320 JUMPI PUSH1 0x0 CALLDATALOAD PUSH1 0xE0 SHR DUP1 PUSH4 0x6CD8CEB5 GT PUSH2 0x1A7 JUMPI DUP1 PUSH4 0xA457C2D7 GT PUSH2 0xEE JUMPI DUP1 PUSH4 0xCE03D3DF GT PUSH2 0x97 JUMPI DUP1 PUSH4 0xEA2F0B37 GT PUSH2 0x71 JUMPI DUP1 PUSH4 0xEA2F0B37 EQ PUSH2 0x6C3 JUMPI DUP1 PUSH4 0xECF50135 EQ PUSH2 0x6D6 JUMPI DUP1 PUSH4 0xF2FDE38B EQ PUSH2 0x6DE JUMPI PUSH1 0x0 DUP1 REVERT JUMPDEST DUP1 PUSH4 0xCE03D3DF EQ PUSH2 0x664 JUMPI DUP1 PUSH4 0xD543DBEB EQ PUSH2 0x677 JUMPI DUP1 PUSH4 0xDD62ED3E EQ PUSH2 0x68A JUMPI PUSH1 0x0 DUP1 REVERT JUMPDEST DUP1 PUSH4 0xB8C9D25C GT PUSH2 0xC8 JUMPI DUP1 PUSH4 0xB8C9D25C EQ PUSH2 0x60D JUMPI DUP1 PUSH4 0xC0371236 EQ PUSH2 0x634 JUMPI DUP1 PUSH4 0xC21EBD07 EQ PUSH2 0x63D JUMPI PUSH1 0x0 DUP1 REVERT JUMPDEST DUP1 PUSH4 0xA457C2D7 EQ PUSH2 0x5D4 JUMPI DUP1 PUSH4 0xA9059CBB EQ PUSH2 0x5E7 JUMPI DUP1 PUSH4 0xB120200A EQ PUSH2 0x5FA JUMPI PUSH1 0x0 DUP1 REVERT JUMPDEST DUP1 PUSH4 0x8DA5CB5B GT PUSH2 0x150 JUMPI DUP1 PUSH4 0x9AB4A445 GT PUSH2 0x12A JUMPI DUP1 PUSH4 0x9AB4A445 EQ PUSH2 0x5A0 JUMPI DUP1 PUSH4 0x9D88F3A1 EQ PUSH2 0x5B8 JUMPI DUP1 PUSH4 0xA400FC21 EQ PUSH2 0x5CB JUMPI PUSH1 0x0 DUP1 REVERT JUMPDEST DUP1 PUSH4 0x8DA5CB5B EQ PUSH2 0x560 JUMPI DUP1 PUSH4 0x9035A211 EQ PUSH2 0x571 JUMPI DUP1 PUSH4 0x95D89B41 EQ PUSH2 0x598 JUMPI PUSH1 0x0 DUP1 REVERT JUMPDEST DUP1 PUSH4 0x7867A1C2 GT PUSH2 0x181 JUMPI DUP1 PUSH4 0x7867A1C2 EQ PUSH2 0x518 JUMPI DUP1 PUSH4 0x7D1DB4A5 EQ PUSH2 0x52B JUMPI DUP1 PUSH4 0x88F82020 EQ PUSH2 0x534 JUMPI PUSH1 0x0 DUP1 REVERT JUMPDEST DUP1 PUSH4 0x6CD8CEB5 EQ PUSH2 0x4F0 JUMPI DUP1 PUSH4 0x70A08231 EQ PUSH2 0x4FD JUMPI DUP1 PUSH4 0x715018A6 EQ PUSH2 0x510 JUMPI PUSH1 0x0 DUP1 REVERT JUMPDEST DUP1 PUSH4 0x3685D419 GT PUSH2 0x26B JUMPI DUP1 PUSH4 0x52390C02 GT PUSH2 0x214 JUMPI DUP1 PUSH4 0x5BE7AAD6 GT PUSH2 0x1EE JUMPI DUP1 PUSH4 0x5BE7AAD6 EQ PUSH2 0x4CB JUMPI DUP1 PUSH4 0x5DACF9A3 EQ PUSH2 0x4D4 JUMPI DUP1 PUSH4 0x6B2D7A1A EQ PUSH2 0x4DD JUMPI PUSH1 0x0 DUP1 REVERT JUMPDEST DUP1 PUSH4 0x52390C02 EQ PUSH2 0x483 JUMPI DUP1 PUSH4 0x52DC21D7 EQ PUSH2 0x496 JUMPI DUP1 PUSH4 0x5342ACB4 EQ PUSH2 0x49F JUMPI PUSH1 0x0 DUP1 REVERT JUMPDEST DUP1 PUSH4 0x437823EC GT PUSH2 0x245 JUMPI DUP1 PUSH4 0x437823EC EQ PUSH2 0x454 JUMPI DUP1 PUSH4 0x4C524BE4 EQ PUSH2 0x467 JUMPI DUP1 PUSH4 0x51FDE4BB EQ PUSH2 0x47A JUMPI PUSH1 0x0 DUP1 REVERT JUMPDEST DUP1 PUSH4 0x3685D419 EQ PUSH2 0x425 JUMPI DUP1 PUSH4 0x39509351 EQ PUSH2 0x438 JUMPI DUP1 PUSH4 0x3B124FE7 EQ PUSH2 0x44B JUMPI PUSH1 0x0 DUP1 REVERT JUMPDEST DUP1 PUSH4 0x23B872DD GT PUSH2 0x2CD JUMPI DUP1 PUSH4 0x305BFA8C GT PUSH2 0x2A7 JUMPI DUP1 PUSH4 0x305BFA8C EQ PUSH2 0x3FE JUMPI DUP1 PUSH4 0x313CE567 EQ PUSH2 0x407 JUMPI DUP1 PUSH4 0x33FDDF9A EQ PUSH2 0x41C JUMPI PUSH1 0x0 DUP1 REVERT JUMPDEST DUP1 PUSH4 0x23B872DD EQ PUSH2 0x3C5 JUMPI DUP1 PUSH4 0x2D838119 EQ PUSH2 0x3D8 JUMPI DUP1 PUSH4 0x2FFCD37B EQ PUSH2 0x3EB JUMPI PUSH1 0x0 DUP1 REVERT JUMPDEST DUP1 PUSH4 0x13114A9D GT PUSH2 0x2FE JUMPI DUP1 PUSH4 0x13114A9D EQ PUSH2 0x37B JUMPI DUP1 PUSH4 0x18160DDD EQ PUSH2 0x38D JUMPI DUP1 PUSH4 0x1A6D7617 EQ PUSH2 0x395 JUMPI PUSH1 0x0 DUP1 REVERT JUMPDEST DUP1 PUSH4 0x61C82D0 EQ PUSH2 0x325 JUMPI DUP1 PUSH4 0x6FDDE03 EQ PUSH2 0x33A JUMPI DUP1 PUSH4 0x95EA7B3 EQ PUSH2 0x358 JUMPI JUMPDEST PUSH1 0x0 DUP1 REVERT JUMPDEST PUSH2 0x338 PUSH2 0x333 CALLDATASIZE PUSH1 0x4 PUSH2 0x2FAB JUMP JUMPDEST PUSH2 0x6F1 JUMP JUMPDEST STOP JUMPDEST PUSH2 0x342 PUSH2 0x743 JUMP JUMPDEST PUSH1 0x40 MLOAD PUSH2 0x34F SWAP2 SWAP1 PUSH2 0x3049 JUMP JUMPDEST PUSH1 0x40 MLOAD DUP1 SWAP2 SUB SWAP1 RETURN JUMPDEST PUSH2 0x36B PUSH2 0x366 CALLDATASIZE PUSH1 0x4 PUSH2 0x2E9D JUMP JUMPDEST PUSH2 0x7D5 JUMP JUMPDEST PUSH1 0x40 MLOAD SWAP1 ISZERO ISZERO DUP2 MSTORE PUSH1 0x20 ADD PUSH2 0x34F JUMP JUMPDEST PUSH1 0xC SLOAD JUMPDEST PUSH1 0x40 MLOAD SWAP1 DUP2 MSTORE PUSH1 0x20 ADD PUSH2 0x34F JUMP JUMPDEST PUSH1 0xA SLOAD PUSH2 0x37F JUMP JUMPDEST PUSH1 0x20 SLOAD PUSH2 0x3AD SWAP1 PUSH2 0x100 SWAP1 DIV PUSH1 0x1 PUSH1 0x1 PUSH1 0xA0 SHL SUB AND DUP2 JUMP JUMPDEST PUSH1 0x40 MLOAD PUSH1 0x1 PUSH1 0x1 PUSH1 0xA0 SHL SUB SWAP1 SWAP2 AND DUP2 MSTORE PUSH1 0x20 ADD PUSH2 0x34F JUMP JUMPDEST PUSH2 0x36B PUSH2 0x3D3 CALLDATASIZE PUSH1 0x4 PUSH2 0x2E5D JUMP JUMPDEST PUSH2 0x7EC JUMP JUMPDEST PUSH2 0x37F PUSH2 0x3E6 CALLDATASIZE PUSH1 0x4 PUSH2 0x2FAB JUMP JUMPDEST PUSH2 0x856 JUMP JUMPDEST PUSH1 0x21 SLOAD PUSH2 0x3AD SWAP1 PUSH1 0x1 PUSH1 0x1 PUSH1 0xA0 SHL SUB AND DUP2 JUMP JUMPDEST PUSH2 0x37F PUSH1 0x1F SLOAD DUP2 JUMP JUMPDEST PUSH1 0x9 SLOAD PUSH1 0x40 MLOAD PUSH1 0xFF SWAP1 SWAP2 AND DUP2 MSTORE PUSH1 0x20 ADD PUSH2 0x34F JUMP JUMPDEST PUSH2 0x37F PUSH1 0x1A SLOAD DUP2 JUMP JUMPDEST PUSH2 0x338 PUSH2 0x433 CALLDATASIZE PUSH1 0x4 PUSH2 0x2E09 JUMP JUMPDEST PUSH2 0x8E6 JUMP JUMPDEST PUSH2 0x36B PUSH2 0x446 CALLDATASIZE PUSH1 0x4 PUSH2 0x2E9D JUMP JUMPDEST PUSH2 0xAF3 JUMP JUMPDEST PUSH2 0x37F PUSH1 0x10 SLOAD DUP2 JUMP JUMPDEST PUSH2 0x338 PUSH2 0x462 CALLDATASIZE PUSH1 0x4 PUSH2 0x2E09 JUMP JUMPDEST PUSH2 0xB29 JUMP JUMPDEST PUSH2 0x3AD PUSH2 0x475 CALLDATASIZE PUSH1 0x4 PUSH2 0x2FAB JUMP JUMPDEST PUSH2 0xB95 JUMP JUMPDEST PUSH2 0x37F PUSH1 0xE SLOAD DUP2 JUMP JUMPDEST PUSH2 0x338 PUSH2 0x491 CALLDATASIZE PUSH1 0x4 PUSH2 0x2E09 JUMP JUMPDEST PUSH2 0xE2C JUMP JUMPDEST PUSH2 0x37F PUSH1 0x17 SLOAD DUP2 JUMP JUMPDEST PUSH2 0x36B PUSH2 0x4AD CALLDATASIZE PUSH1 0x4 PUSH2 0x2E09 JUMP JUMPDEST PUSH1 0x1 PUSH1 0x1 PUSH1 0xA0 SHL SUB AND PUSH1 0x0 SWAP1 DUP2 MSTORE PUSH1 0x4 PUSH1 0x20 MSTORE PUSH1 0x40 SWAP1 KECCAK256 SLOAD PUSH1 0xFF AND SWAP1 JUMP JUMPDEST PUSH2 0x37F PUSH1 0x19 SLOAD DUP2 JUMP JUMPDEST PUSH2 0x37F PUSH1 0x1E SLOAD DUP2 JUMP JUMPDEST PUSH2 0x338 PUSH2 0x4EB CALLDATASIZE PUSH1 0x4 PUSH2 0x2FAB JUMP JUMPDEST PUSH2 0xF9D JUMP JUMPDEST PUSH1 0x20 SLOAD PUSH2 0x36B SWAP1 PUSH1 0xFF AND DUP2 JUMP JUMPDEST PUSH2 0x37F PUSH2 0x50B CALLDATASIZE PUSH1 0x4 PUSH2 0x2E09 JUMP JUMPDEST PUSH2 0xFEA JUMP JUMPDEST PUSH2 0x338 PUSH2 0x1049 JUMP JUMPDEST PUSH2 0x338 PUSH2 0x526 CALLDATASIZE PUSH1 0x4 PUSH2 0x2E09 JUMP JUMPDEST PUSH2 0x109D JUMP JUMPDEST PUSH2 0x37F PUSH1 0x1B SLOAD DUP2 JUMP JUMPDEST PUSH2 0x36B PUSH2 0x542 CALLDATASIZE PUSH1 0x4 PUSH2 0x2E09 JUMP JUMPDEST PUSH1 0x1 PUSH1 0x1 PUSH1 0xA0 SHL SUB AND PUSH1 0x0 SWAP1 DUP2 MSTORE PUSH1 0x5 PUSH1 0x20 MSTORE PUSH1 0x40 SWAP1 KECCAK256 SLOAD PUSH1 0xFF AND SWAP1 JUMP JUMPDEST PUSH1 0x0 SLOAD PUSH1 0x1 PUSH1 0x1 PUSH1 0xA0 SHL SUB AND PUSH2 0x3AD JUMP JUMPDEST PUSH2 0x3AD PUSH32 0x0 DUP2 JUMP JUMPDEST PUSH2 0x342 PUSH2 0x136F JUMP JUMPDEST PUSH1 0x9 SLOAD PUSH2 0x3AD SWAP1 PUSH2 0x100 SWAP1 DIV PUSH1 0x1 PUSH1 0x1 PUSH1 0xA0 SHL SUB AND DUP2 JUMP JUMPDEST PUSH2 0x338 PUSH2 0x5C6 CALLDATASIZE PUSH1 0x4 PUSH2 0x2E25 JUMP JUMPDEST PUSH2 0x137E JUMP JUMPDEST PUSH2 0x37F PUSH1 0x22 SLOAD DUP2 JUMP JUMPDEST PUSH2 0x36B PUSH2 0x5E2 CALLDATASIZE PUSH1 0x4 PUSH2 0x2E9D JUMP JUMPDEST PUSH2 0x1415 JUMP JUMPDEST PUSH2 0x36B PUSH2 0x5F5 CALLDATASIZE PUSH1 0x4 PUSH2 0x2E9D JUMP JUMPDEST PUSH2 0x1464 JUMP JUMPDEST PUSH2 0x37F PUSH2 0x608 CALLDATASIZE PUSH1 0x4 PUSH2 0x2FDB JUMP JUMPDEST PUSH2 0x1471 JUMP JUMPDEST PUSH2 0x3AD PUSH32 0x0 DUP2 JUMP JUMPDEST PUSH2 0x37F PUSH1 0x12 SLOAD DUP2 JUMP JUMPDEST PUSH2 0x3AD PUSH32 0x0 DUP2 JUMP JUMPDEST PUSH2 0x37F PUSH2 0x672 CALLDATASIZE PUSH1 0x4 PUSH2 0x2FAB JUMP JUMPDEST PUSH2 0x1535 JUMP JUMPDEST PUSH2 0x338 PUSH2 0x685 CALLDATASIZE PUSH1 0x4 PUSH2 0x2FAB JUMP JUMPDEST PUSH2 0x1556 JUMP JUMPDEST PUSH2 0x37F PUSH2 0x698 CALLDATASIZE PUSH1 0x4 PUSH2 0x2E25 JUMP JUMPDEST PUSH1 0x1 PUSH1 0x1 PUSH1 0xA0 SHL SUB SWAP2 DUP3 AND PUSH1 0x0 SWAP1 DUP2 MSTORE PUSH1 0x3 PUSH1 0x20 SWAP1 DUP2 MSTORE PUSH1 0x40 DUP1 DUP4 KECCAK256 SWAP4 SWAP1 SWAP5 AND DUP3 MSTORE SWAP2 SWAP1 SWAP2 MSTORE KECCAK256 SLOAD SWAP1 JUMP JUMPDEST PUSH2 0x338 PUSH2 0x6D1 CALLDATASIZE PUSH1 0x4 PUSH2 0x2E09 JUMP JUMPDEST PUSH2 0x15BE JUMP JUMPDEST PUSH2 0x338 PUSH2 0x1627 JUMP JUMPDEST PUSH2 0x338 PUSH2 0x6EC CALLDATASIZE PUSH1 0x4 PUSH2 0x2E09 JUMP JUMPDEST PUSH2 0x1683 JUMP JUMPDEST PUSH1 0x0 SLOAD PUSH1 0x1 PUSH1 0x1 PUSH1 0xA0 SHL SUB AND CALLER EQ PUSH2 0x73E JUMPI PUSH1 0x40 MLOAD PUSH3 0x461BCD PUSH1 0xE5 SHL DUP2 MSTORE PUSH1 0x20 PUSH1 0x4 DUP3 ADD DUP2 SWAP1 MSTORE PUSH1 0x24 DUP3 ADD MSTORE PUSH1 0x0 DUP1 MLOAD PUSH1 0x20 PUSH2 0x31F6 DUP4 CODECOPY DUP2 MLOAD SWAP2 MSTORE PUSH1 0x44 DUP3 ADD MSTORE PUSH1 0x64 ADD JUMPDEST PUSH1 0x40 MLOAD DUP1 SWAP2 SUB SWAP1 REVERT JUMPDEST PUSH1 0x10 SSTORE JUMP JUMPDEST PUSH1 0x60 PUSH1 0x7 DUP1 SLOAD PUSH2 0x752 SWAP1 PUSH2 0x30FE JUMP JUMPDEST DUP1 PUSH1 0x1F ADD PUSH1 0x20 DUP1 SWAP2 DIV MUL PUSH1 0x20 ADD PUSH1 0x40 MLOAD SWAP1 DUP2 ADD PUSH1 0x40 MSTORE DUP1 SWAP3 SWAP2 SWAP1 DUP2 DUP2 MSTORE PUSH1 0x20 ADD DUP3 DUP1 SLOAD PUSH2 0x77E SWAP1 PUSH2 0x30FE JUMP JUMPDEST DUP1 ISZERO PUSH2 0x7CB JUMPI DUP1 PUSH1 0x1F LT PUSH2 0x7A0 JUMPI PUSH2 0x100 DUP1 DUP4 SLOAD DIV MUL DUP4 MSTORE SWAP2 PUSH1 0x20 ADD SWAP2 PUSH2 0x7CB JUMP JUMPDEST DUP3 ADD SWAP2 SWAP1 PUSH1 0x0 MSTORE PUSH1 0x20 PUSH1 0x0 KECCAK256 SWAP1 JUMPDEST DUP2 SLOAD DUP2 MSTORE SWAP1 PUSH1 0x1 ADD SWAP1 PUSH1 0x20 ADD DUP1 DUP4 GT PUSH2 0x7AE JUMPI DUP3 SWAP1 SUB PUSH1 0x1F AND DUP3 ADD SWAP2 JUMPDEST POP POP POP POP POP SWAP1 POP SWAP1 JUMP JUMPDEST PUSH1 0x0 PUSH2 0x7E2 CALLER DUP5 DUP5 PUSH2 0x176B JUMP JUMPDEST POP PUSH1 0x1 JUMPDEST SWAP3 SWAP2 POP POP JUMP JUMPDEST PUSH1 0x0 PUSH2 0x7F9 DUP5 DUP5 DUP5 PUSH2 0x18C3 JUMP JUMPDEST PUSH2 0x84B DUP5 CALLER PUSH2 0x846 DUP6 PUSH1 0x40 MLOAD DUP1 PUSH1 0x60 ADD PUSH1 0x40 MSTORE DUP1 PUSH1 0x28 DUP2 MSTORE PUSH1 0x20 ADD PUSH2 0x31CE PUSH1 0x28 SWAP2 CODECOPY PUSH1 0x1 PUSH1 0x1 PUSH1 0xA0 SHL SUB DUP11 AND PUSH1 0x0 SWAP1 DUP2 MSTORE PUSH1 0x3 PUSH1 0x20 SWAP1 DUP2 MSTORE PUSH1 0x40 DUP1 DUP4 KECCAK256 CALLER DUP5 MSTORE SWAP1 SWAP2 MSTORE SWAP1 KECCAK256 SLOAD SWAP2 SWAP1 PUSH2 0x1C35 JUMP JUMPDEST PUSH2 0x176B JUMP JUMPDEST POP PUSH1 0x1 JUMPDEST SWAP4 SWAP3 POP POP POP JUMP JUMPDEST PUSH1 0x0 PUSH1 0xB SLOAD DUP3 GT ISZERO PUSH2 0x8D0 JUMPI PUSH1 0x40 MLOAD PUSH3 0x461BCD PUSH1 0xE5 SHL DUP2 MSTORE PUSH1 0x20 PUSH1 0x4 DUP3 ADD MSTORE PUSH1 0x2A PUSH1 0x24 DUP3 ADD MSTORE PUSH32 0x416D6F756E74206D757374206265206C657373207468616E20746F74616C2072 PUSH1 0x44 DUP3 ADD MSTORE PUSH32 0x65666C656374696F6E7300000000000000000000000000000000000000000000 PUSH1 0x64 DUP3 ADD MSTORE PUSH1 0x84 ADD PUSH2 0x735 JUMP JUMPDEST PUSH1 0x0 PUSH2 0x8DA PUSH2 0x1C6C JUMP JUMPDEST SWAP1 POP PUSH2 0x84F DUP4 DUP3 PUSH2 0x175F JUMP JUMPDEST PUSH1 0x0 SLOAD PUSH1 0x1 PUSH1 0x1 PUSH1 0xA0 SHL SUB AND CALLER EQ PUSH2 0x92E JUMPI PUSH1 0x40 MLOAD PUSH3 0x461BCD PUSH1 0xE5 SHL DUP2 MSTORE PUSH1 0x20 PUSH1 0x4 DUP3 ADD DUP2 SWAP1 MSTORE PUSH1 0x24 DUP3 ADD MSTORE PUSH1 0x0 DUP1 MLOAD PUSH1 0x20 PUSH2 0x31F6 DUP4 CODECOPY DUP2 MLOAD SWAP2 MSTORE PUSH1 0x44 DUP3 ADD MSTORE PUSH1 0x64 ADD PUSH2 0x735 JUMP JUMPDEST PUSH1 0x1 PUSH1 0x1 PUSH1 0xA0 SHL SUB DUP2 AND PUSH1 0x0 SWAP1 DUP2 MSTORE PUSH1 0x5 PUSH1 0x20 MSTORE PUSH1 0x40 SWAP1 KECCAK256 SLOAD PUSH1 0xFF AND PUSH2 0x996 JUMPI PUSH1 0x40 MLOAD PUSH3 0x461BCD PUSH1 0xE5 SHL DUP2 MSTORE PUSH1 0x20 PUSH1 0x4 DUP3 ADD MSTORE PUSH1 0x1B PUSH1 0x24 DUP3 ADD MSTORE PUSH32 0x4163636F756E7420697320616C7265616479206578636C756465640000000000 PUSH1 0x44 DUP3 ADD MSTORE PUSH1 0x64 ADD PUSH2 0x735 JUMP JUMPDEST PUSH1 0x0 JUMPDEST PUSH1 0x6 SLOAD DUP2 LT ISZERO PUSH2 0xAEF JUMPI DUP2 PUSH1 0x1 PUSH1 0x1 PUSH1 0xA0 SHL SUB AND PUSH1 0x6 DUP3 DUP2 SLOAD DUP2 LT PUSH2 0x9CE JUMPI PUSH4 0x4E487B71 PUSH1 0xE0 SHL PUSH1 0x0 MSTORE PUSH1 0x32 PUSH1 0x4 MSTORE PUSH1 0x24 PUSH1 0x0 REVERT JUMPDEST PUSH1 0x0 SWAP2 DUP3 MSTORE PUSH1 0x20 SWAP1 SWAP2 KECCAK256 ADD SLOAD PUSH1 0x1 PUSH1 0x1 PUSH1 0xA0 SHL SUB AND EQ ISZERO PUSH2 0xADD JUMPI PUSH1 0x6 DUP1 SLOAD PUSH2 0x9F9 SWAP1 PUSH1 0x1 SWAP1 PUSH2 0x30E7 JUMP JUMPDEST DUP2 SLOAD DUP2 LT PUSH2 0xA17 JUMPI PUSH4 0x4E487B71 PUSH1 0xE0 SHL PUSH1 0x0 MSTORE PUSH1 0x32 PUSH1 0x4 MSTORE PUSH1 0x24 PUSH1 0x0 REVERT JUMPDEST PUSH1 0x0 SWAP2 DUP3 MSTORE PUSH1 0x20 SWAP1 SWAP2 KECCAK256 ADD SLOAD PUSH1 0x6 DUP1 SLOAD PUSH1 0x1 PUSH1 0x1 PUSH1 0xA0 SHL SUB SWAP1 SWAP3 AND SWAP2 DUP4 SWAP1 DUP2 LT PUSH2 0xA51 JUMPI PUSH4 0x4E487B71 PUSH1 0xE0 SHL PUSH1 0x0 MSTORE PUSH1 0x32 PUSH1 0x4 MSTORE PUSH1 0x24 PUSH1 0x0 REVERT JUMPDEST PUSH1 0x0 SWAP2 DUP3 MSTORE PUSH1 0x20 DUP1 DUP4 KECCAK256 SWAP2 SWAP1 SWAP2 ADD DUP1 SLOAD PUSH1 0x1 PUSH1 0x1 PUSH1 0xA0 SHL SUB NOT AND PUSH1 0x1 PUSH1 0x1 PUSH1 0xA0 SHL SUB SWAP5 DUP6 AND OR SWAP1 SSTORE SWAP2 DUP5 AND DUP2 MSTORE PUSH1 0x2 DUP3 MSTORE PUSH1 0x40 DUP1 DUP3 KECCAK256 DUP3 SWAP1 SSTORE PUSH1 0x5 SWAP1 SWAP3 MSTORE KECCAK256 DUP1 SLOAD PUSH1 0xFF NOT AND SWAP1 SSTORE PUSH1 0x6 DUP1 SLOAD DUP1 PUSH2 0xAB7 JUMPI PUSH4 0x4E487B71 PUSH1 0xE0 SHL PUSH1 0x0 MSTORE PUSH1 0x31 PUSH1 0x4 MSTORE PUSH1 0x24 PUSH1 0x0 REVERT JUMPDEST PUSH1 0x0 DUP3 DUP2 MSTORE PUSH1 0x20 SWAP1 KECCAK256 DUP2 ADD PUSH1 0x0 NOT SWAP1 DUP2 ADD DUP1 SLOAD PUSH1 0x1 PUSH1 0x1 PUSH1 0xA0 SHL SUB NOT AND SWAP1 SSTORE ADD SWAP1 SSTORE POP POP JUMP JUMPDEST DUP1 PUSH2 0xAE7 DUP2 PUSH2 0x3139 JUMP JUMPDEST SWAP2 POP POP PUSH2 0x999 JUMP JUMPDEST POP POP JUMP JUMPDEST CALLER PUSH1 0x0 DUP2 DUP2 MSTORE PUSH1 0x3 PUSH1 0x20 SWAP1 DUP2 MSTORE PUSH1 0x40 DUP1 DUP4 KECCAK256 PUSH1 0x1 PUSH1 0x1 PUSH1 0xA0 SHL SUB DUP8 AND DUP5 MSTORE SWAP1 SWAP2 MSTORE DUP2 KECCAK256 SLOAD SWAP1 SWAP2 PUSH2 0x7E2 SWAP2 DUP6 SWAP1 PUSH2 0x846 SWAP1 DUP7 PUSH2 0x1C8F JUMP JUMPDEST PUSH1 0x0 SLOAD PUSH1 0x1 PUSH1 0x1 PUSH1 0xA0 SHL SUB AND CALLER EQ PUSH2 0xB71 JUMPI PUSH1 0x40 MLOAD PUSH3 0x461BCD PUSH1 0xE5 SHL DUP2 MSTORE PUSH1 0x20 PUSH1 0x4 DUP3 ADD DUP2 SWAP1 MSTORE PUSH1 0x24 DUP3 ADD MSTORE PUSH1 0x0 DUP1 MLOAD PUSH1 0x20 PUSH2 0x31F6 DUP4 CODECOPY DUP2 MLOAD SWAP2 MSTORE PUSH1 0x44 DUP3 ADD MSTORE PUSH1 0x64 ADD PUSH2 0x735 JUMP JUMPDEST PUSH1 0x1 PUSH1 0x1 PUSH1 0xA0 SHL SUB AND PUSH1 0x0 SWAP1 DUP2 MSTORE PUSH1 0x4 PUSH1 0x20 MSTORE PUSH1 0x40 SWAP1 KECCAK256 DUP1 SLOAD PUSH1 0xFF NOT AND PUSH1 0x1 OR SWAP1 SSTORE JUMP JUMPDEST PUSH1 0x20 SLOAD PUSH1 0x0 SWAP1 PUSH1 0xFF AND ISZERO PUSH2 0xBEB JUMPI PUSH1 0x40 MLOAD PUSH3 0x461BCD PUSH1 0xE5 SHL DUP2 MSTORE PUSH1 0x20 PUSH1 0x4 DUP3 ADD MSTORE PUSH1 0x12 PUSH1 0x24 DUP3 ADD MSTORE PUSH32 0x4C6F7474657279206973207061757365642E0000000000000000000000000000 PUSH1 0x44 DUP3 ADD MSTORE PUSH1 0x64 ADD PUSH2 0x735 JUMP JUMPDEST PUSH1 0x20 SLOAD PUSH2 0x100 SWAP1 DIV PUSH1 0x1 PUSH1 0x1 PUSH1 0xA0 SHL SUB AND CALLER EQ DUP1 PUSH2 0xC13 JUMPI POP PUSH1 0x21 SLOAD PUSH1 0x1 PUSH1 0x1 PUSH1 0xA0 SHL SUB AND CALLER EQ JUMPDEST PUSH2 0xC6E JUMPI PUSH1 0x40 MLOAD PUSH3 0x461BCD PUSH1 0xE5 SHL DUP2 MSTORE PUSH1 0x20 PUSH1 0x4 DUP3 ADD MSTORE PUSH1 0x26 PUSH1 0x24 DUP3 ADD MSTORE PUSH32 0x43616E206F6E6C792062652063616C6C6564206279206C6F747465727920636F PUSH1 0x44 DUP3 ADD MSTORE PUSH6 0x1B9D1C9858DD PUSH1 0xD2 SHL PUSH1 0x64 DUP3 ADD MSTORE PUSH1 0x84 ADD PUSH2 0x735 JUMP JUMPDEST PUSH1 0x0 PUSH32 0x0 PUSH1 0x1 PUSH1 0x1 PUSH1 0xA0 SHL SUB AND PUSH4 0x5FE8E7CC PUSH1 0x40 MLOAD DUP2 PUSH4 0xFFFFFFFF AND PUSH1 0xE0 SHL DUP2 MSTORE PUSH1 0x4 ADD PUSH1 0x0 PUSH1 0x40 MLOAD DUP1 DUP4 SUB DUP2 DUP7 DUP1 EXTCODESIZE ISZERO DUP1 ISZERO PUSH2 0xCC9 JUMPI PUSH1 0x0 DUP1 REVERT JUMPDEST POP GAS STATICCALL ISZERO DUP1 ISZERO PUSH2 0xCDD JUMPI RETURNDATASIZE PUSH1 0x0 DUP1 RETURNDATACOPY RETURNDATASIZE PUSH1 0x0 REVERT JUMPDEST POP POP POP POP PUSH1 0x40 MLOAD RETURNDATASIZE PUSH1 0x0 DUP3 RETURNDATACOPY PUSH1 0x1F RETURNDATASIZE SWAP1 DUP2 ADD PUSH1 0x1F NOT AND DUP3 ADD PUSH1 0x40 MSTORE PUSH2 0xD05 SWAP2 SWAP1 DUP2 ADD SWAP1 PUSH2 0x2EC8 JUMP JUMPDEST SWAP1 POP PUSH1 0x1 DUP2 MLOAD GT PUSH2 0xD7E JUMPI PUSH1 0x40 MLOAD PUSH3 0x461BCD PUSH1 0xE5 SHL DUP2 MSTORE PUSH1 0x20 PUSH1 0x4 DUP3 ADD MSTORE PUSH1 0x25 PUSH1 0x24 DUP3 ADD MSTORE PUSH32 0x486F6C6465727320617265206E6F7420656E6F75676820746F2072756E206C6F PUSH1 0x44 DUP3 ADD MSTORE PUSH32 0x7474657279000000000000000000000000000000000000000000000000000000 PUSH1 0x64 DUP3 ADD MSTORE PUSH1 0x84 ADD PUSH2 0x735 JUMP JUMPDEST PUSH1 0x0 PUSH1 0x1 DUP3 MLOAD PUSH2 0xD8E SWAP2 SWAP1 PUSH2 0x30E7 JUMP JUMPDEST SWAP1 POP PUSH1 0x0 PUSH2 0xDF8 DUP3 TIMESTAMP DIFFICULTY COINBASE PUSH2 0xDA4 NUMBER PUSH1 0x1 PUSH2 0x309C JUMP JUMPDEST PUSH1 0x40 DUP1 MLOAD PUSH1 0x20 DUP2 ADD SWAP6 SWAP1 SWAP6 MSTORE DUP5 ADD SWAP3 SWAP1 SWAP3 MSTORE PUSH1 0x1 PUSH1 0x1 PUSH1 0xA0 SHL SUB AND PUSH1 0x60 DUP4 ADD MSTORE BLOCKHASH PUSH1 0x80 DUP3 ADD MSTORE PUSH1 0xA0 DUP2 ADD DUP9 SWAP1 MSTORE NUMBER PUSH1 0xC0 DUP3 ADD MSTORE PUSH1 0xE0 ADD PUSH1 0x40 DUP1 MLOAD PUSH1 0x1F NOT DUP2 DUP5 SUB ADD DUP2 MSTORE SWAP2 SWAP1 MSTORE DUP1 MLOAD PUSH1 0x20 SWAP1 SWAP2 ADD KECCAK256 SWAP1 PUSH2 0x1C9B JUMP JUMPDEST SWAP1 POP DUP3 DUP2 DUP2 MLOAD DUP2 LT PUSH2 0xE1A JUMPI PUSH4 0x4E487B71 PUSH1 0xE0 SHL PUSH1 0x0 MSTORE PUSH1 0x32 PUSH1 0x4 MSTORE PUSH1 0x24 PUSH1 0x0 REVERT JUMPDEST PUSH1 0x20 MUL PUSH1 0x20 ADD ADD MLOAD SWAP4 POP POP POP POP SWAP2 SWAP1 POP JUMP JUMPDEST PUSH1 0x0 SLOAD PUSH1 0x1 PUSH1 0x1 PUSH1 0xA0 SHL SUB AND CALLER EQ PUSH2 0xE74 JUMPI PUSH1 0x40 MLOAD PUSH3 0x461BCD PUSH1 0xE5 SHL DUP2 MSTORE PUSH1 0x20 PUSH1 0x4 DUP3 ADD DUP2 SWAP1 MSTORE PUSH1 0x24 DUP3 ADD MSTORE PUSH1 0x0 DUP1 MLOAD PUSH1 0x20 PUSH2 0x31F6 DUP4 CODECOPY DUP2 MLOAD SWAP2 MSTORE PUSH1 0x44 DUP3 ADD MSTORE PUSH1 0x64 ADD PUSH2 0x735 JUMP JUMPDEST PUSH1 0x1 PUSH1 0x1 PUSH1 0xA0 SHL SUB DUP2 AND PUSH1 0x0 SWAP1 DUP2 MSTORE PUSH1 0x5 PUSH1 0x20 MSTORE PUSH1 0x40 SWAP1 KECCAK256 SLOAD PUSH1 0xFF AND ISZERO PUSH2 0xEDD JUMPI PUSH1 0x40 MLOAD PUSH3 0x461BCD PUSH1 0xE5 SHL DUP2 MSTORE PUSH1 0x20 PUSH1 0x4 DUP3 ADD MSTORE PUSH1 0x1B PUSH1 0x24 DUP3 ADD MSTORE PUSH32 0x4163636F756E7420697320616C7265616479206578636C756465640000000000 PUSH1 0x44 DUP3 ADD MSTORE PUSH1 0x64 ADD PUSH2 0x735 JUMP JUMPDEST PUSH1 0x1 PUSH1 0x1 PUSH1 0xA0 SHL SUB DUP2 AND PUSH1 0x0 SWAP1 DUP2 MSTORE PUSH1 0x1 PUSH1 0x20 MSTORE PUSH1 0x40 SWAP1 KECCAK256 SLOAD ISZERO PUSH2 0xF37 JUMPI PUSH1 0x1 PUSH1 0x1 PUSH1 0xA0 SHL SUB DUP2 AND PUSH1 0x0 SWAP1 DUP2 MSTORE PUSH1 0x1 PUSH1 0x20 MSTORE PUSH1 0x40 SWAP1 KECCAK256 SLOAD PUSH2 0xF1D SWAP1 PUSH2 0x856 JUMP JUMPDEST PUSH1 0x1 PUSH1 0x1 PUSH1 0xA0 SHL SUB DUP3 AND PUSH1 0x0 SWAP1 DUP2 MSTORE PUSH1 0x2 PUSH1 0x20 MSTORE PUSH1 0x40 SWAP1 KECCAK256 SSTORE JUMPDEST PUSH1 0x1 PUSH1 0x1 PUSH1 0xA0 SHL SUB AND PUSH1 0x0 DUP2 DUP2 MSTORE PUSH1 0x5 PUSH1 0x20 MSTORE PUSH1 0x40 DUP2 KECCAK256 DUP1 SLOAD PUSH1 0xFF NOT AND PUSH1 0x1 SWAP1 DUP2 OR SWAP1 SWAP2 SSTORE PUSH1 0x6 DUP1 SLOAD SWAP2 DUP3 ADD DUP2 SSTORE SWAP1 SWAP2 MSTORE PUSH32 0xF652222313E28459528D920B65115C16C04F3EFC82AAEDC97BE59F3F377C0D3F ADD DUP1 SLOAD PUSH1 0x1 PUSH1 0x1 PUSH1 0xA0 SHL SUB NOT AND SWAP1 SWAP2 OR SWAP1 SSTORE JUMP JUMPDEST PUSH1 0x0 SLOAD PUSH1 0x1 PUSH1 0x1 PUSH1 0xA0 SHL SUB AND CALLER EQ PUSH2 0xFE5 JUMPI PUSH1 0x40 MLOAD PUSH3 0x461BCD PUSH1 0xE5 SHL DUP2 MSTORE PUSH1 0x20 PUSH1 0x4 DUP3 ADD DUP2 SWAP1 MSTORE PUSH1 0x24 DUP3 ADD MSTORE PUSH1 0x0 DUP1 MLOAD PUSH1 0x20 PUSH2 0x31F6 DUP4 CODECOPY DUP2 MLOAD SWAP2 MSTORE PUSH1 0x44 DUP3 ADD MSTORE PUSH1 0x64 ADD PUSH2 0x735 JUMP JUMPDEST PUSH1 0x1E SSTORE JUMP JUMPDEST PUSH1 0x1 PUSH1 0x1 PUSH1 0xA0 SHL SUB DUP2 AND PUSH1 0x0 SWAP1 DUP2 MSTORE PUSH1 0x5 PUSH1 0x20 MSTORE PUSH1 0x40 DUP2 KECCAK256 SLOAD PUSH1 0xFF AND ISZERO PUSH2 0x1027 JUMPI POP PUSH1 0x1 PUSH1 0x1 PUSH1 0xA0 SHL SUB AND PUSH1 0x0 SWAP1 DUP2 MSTORE PUSH1 0x2 PUSH1 0x20 MSTORE PUSH1 0x40 SWAP1 KECCAK256 SLOAD SWAP1 JUMP JUMPDEST PUSH1 0x1 PUSH1 0x1 PUSH1 0xA0 SHL SUB DUP3 AND PUSH1 0x0 SWAP1 DUP2 MSTORE PUSH1 0x1 PUSH1 0x20 MSTORE PUSH1 0x40 SWAP1 KECCAK256 SLOAD PUSH2 0x7E6 SWAP1 PUSH2 0x856 JUMP JUMPDEST PUSH1 0x0 SLOAD PUSH1 0x1 PUSH1 0x1 PUSH1 0xA0 SHL SUB AND CALLER EQ PUSH2 0x1091 JUMPI PUSH1 0x40 MLOAD PUSH3 0x461BCD PUSH1 0xE5 SHL DUP2 MSTORE PUSH1 0x20 PUSH1 0x4 DUP3 ADD DUP2 SWAP1 MSTORE PUSH1 0x24 DUP3 ADD MSTORE PUSH1 0x0 DUP1 MLOAD PUSH1 0x20 PUSH2 0x31F6 DUP4 CODECOPY DUP2 MLOAD SWAP2 MSTORE PUSH1 0x44 DUP3 ADD MSTORE PUSH1 0x64 ADD PUSH2 0x735 JUMP JUMPDEST PUSH2 0x109B PUSH1 0x0 PUSH2 0x1CA7 JUMP JUMPDEST JUMP JUMPDEST PUSH1 0x20 SLOAD PUSH1 0xFF AND ISZERO PUSH2 0x10F0 JUMPI PUSH1 0x40 MLOAD PUSH3 0x461BCD PUSH1 0xE5 SHL DUP2 MSTORE PUSH1 0x20 PUSH1 0x4 DUP3 ADD MSTORE PUSH1 0x12 PUSH1 0x24 DUP3 ADD MSTORE PUSH32 0x4C6F7474657279206973207061757365642E0000000000000000000000000000 PUSH1 0x44 DUP3 ADD MSTORE PUSH1 0x64 ADD PUSH2 0x735 JUMP JUMPDEST PUSH1 0x20 SLOAD PUSH2 0x100 SWAP1 DIV PUSH1 0x1 PUSH1 0x1 PUSH1 0xA0 SHL SUB AND CALLER EQ DUP1 PUSH2 0x1118 JUMPI POP PUSH1 0x21 SLOAD PUSH1 0x1 PUSH1 0x1 PUSH1 0xA0 SHL SUB AND CALLER EQ JUMPDEST PUSH2 0x1173 JUMPI PUSH1 0x40 MLOAD PUSH3 0x461BCD PUSH1 0xE5 SHL DUP2 MSTORE PUSH1 0x20 PUSH1 0x4 DUP3 ADD MSTORE PUSH1 0x26 PUSH1 0x24 DUP3 ADD MSTORE PUSH32 0x43616E206F6E6C792062652063616C6C6564206279206C6F747465727920636F PUSH1 0x44 DUP3 ADD MSTORE PUSH6 0x1B9D1C9858DD PUSH1 0xD2 SHL PUSH1 0x64 DUP3 ADD MSTORE PUSH1 0x84 ADD PUSH2 0x735 JUMP JUMPDEST PUSH1 0x1E SLOAD PUSH2 0x117F DUP3 PUSH2 0xFEA JUMP JUMPDEST LT ISZERO PUSH2 0x11F3 JUMPI PUSH1 0x40 MLOAD PUSH3 0x461BCD PUSH1 0xE5 SHL DUP2 MSTORE PUSH1 0x20 PUSH1 0x4 DUP3 ADD MSTORE PUSH1 0x2E PUSH1 0x24 DUP3 ADD MSTORE PUSH32 0x43616E206E6F7420626520612077696E6E65722066726F6D2074686520656666 PUSH1 0x44 DUP3 ADD MSTORE PUSH32 0x696369656E742062616C616E6365000000000000000000000000000000000000 PUSH1 0x64 DUP3 ADD MSTORE PUSH1 0x84 ADD PUSH2 0x735 JUMP JUMPDEST PUSH1 0x0 DUP1 PUSH2 0x11FF ADDRESS PUSH2 0xFEA JUMP JUMPDEST PUSH1 0x40 MLOAD PUSH32 0xDF61108300000000000000000000000000000000000000000000000000000000 DUP2 MSTORE PUSH1 0x1 PUSH1 0x1 PUSH1 0xA0 SHL SUB DUP6 DUP2 AND PUSH1 0x4 DUP4 ADD MSTORE SWAP2 SWAP3 POP PUSH1 0x0 SWAP2 PUSH32 0x0 AND SWAP1 PUSH4 0xDF611083 SWAP1 PUSH1 0x24 ADD PUSH1 0x20 PUSH1 0x40 MLOAD DUP1 DUP4 SUB DUP2 DUP7 DUP1 EXTCODESIZE ISZERO DUP1 ISZERO PUSH2 0x127F JUMPI PUSH1 0x0 DUP1 REVERT JUMPDEST POP GAS STATICCALL ISZERO DUP1 ISZERO PUSH2 0x1293 JUMPI RETURNDATASIZE PUSH1 0x0 DUP1 RETURNDATACOPY RETURNDATASIZE PUSH1 0x0 REVERT JUMPDEST POP POP POP POP PUSH1 0x40 MLOAD RETURNDATASIZE PUSH1 0x1F NOT PUSH1 0x1F DUP3 ADD AND DUP3 ADD DUP1 PUSH1 0x40 MSTORE POP DUP2 ADD SWAP1 PUSH2 0x12B7 SWAP2 SWAP1 PUSH2 0x2FC3 JUMP JUMPDEST SWAP1 POP DUP1 ISZERO DUP1 PUSH2 0x12C6 JUMPI POP PUSH1 0x6 DUP2 GT JUMPDEST ISZERO PUSH2 0x12D1 JUMPI POP POP POP POP JUMP JUMPDEST PUSH1 0x0 PUSH1 0x14 PUSH2 0x12E0 PUSH1 0x1 DUP5 PUSH2 0x30E7 JUMP JUMPDEST DUP2 SLOAD DUP2 LT PUSH2 0x12FE JUMPI PUSH4 0x4E487B71 PUSH1 0xE0 SHL PUSH1 0x0 MSTORE PUSH1 0x32 PUSH1 0x4 MSTORE PUSH1 0x24 PUSH1 0x0 REVERT JUMPDEST PUSH1 0x0 SWAP2 DUP3 MSTORE PUSH1 0x20 SWAP2 DUP3 SWAP1 KECCAK256 ADD SLOAD PUSH1 0x19 SLOAD SWAP2 SLOAD SWAP1 SWAP3 POP PUSH2 0x100 SWAP1 DIV PUSH1 0x1 PUSH1 0x1 PUSH1 0xA0 SHL SUB AND CALLER PUSH1 0x1 PUSH1 0x1 PUSH1 0xA0 SHL SUB AND EQ ISZERO PUSH2 0x1336 JUMPI POP PUSH1 0x1A SLOAD JUMPDEST PUSH2 0x1358 PUSH4 0x5F5E100 PUSH2 0x1352 DUP4 PUSH2 0x134C DUP9 DUP8 PUSH2 0x1753 JUMP JUMPDEST SWAP1 PUSH2 0x1753 JUMP JUMPDEST SWAP1 PUSH2 0x175F JUMP JUMPDEST SWAP5 POP PUSH2 0x1367 ADDRESS DUP8 DUP8 PUSH1 0x1 PUSH2 0x1CF7 JUMP JUMPDEST POP POP POP POP POP POP JUMP JUMPDEST PUSH1 0x60 PUSH1 0x8 DUP1 SLOAD PUSH2 0x752 SWAP1 PUSH2 0x30FE JUMP JUMPDEST PUSH1 0x0 SLOAD PUSH1 0x1 PUSH1 0x1 PUSH1 0xA0 SHL SUB AND CALLER EQ PUSH2 0x13C6 JUMPI PUSH1 0x40 MLOAD PUSH3 0x461BCD PUSH1 0xE5 SHL DUP2 MSTORE PUSH1 0x20 PUSH1 0x4 DUP3 ADD DUP2 SWAP1 MSTORE PUSH1 0x24 DUP3 ADD MSTORE PUSH1 0x0 DUP1 MLOAD PUSH1 0x20 PUSH2 0x31F6 DUP4 CODECOPY DUP2 MLOAD SWAP2 MSTORE PUSH1 0x44 DUP3 ADD MSTORE PUSH1 0x64 ADD PUSH2 0x735 JUMP JUMPDEST PUSH1 0x20 DUP1 SLOAD PUSH32 0xFFFFFFFFFFFFFFFFFFFFFF0000000000000000000000000000000000000000FF AND PUSH2 0x100 PUSH1 0x1 PUSH1 0x1 PUSH1 0xA0 SHL SUB SWAP5 DUP6 AND MUL OR SWAP1 SSTORE PUSH1 0x21 DUP1 SLOAD PUSH1 0x1 PUSH1 0x1 PUSH1 0xA0 SHL SUB NOT AND SWAP2 SWAP1 SWAP3 AND OR SWAP1 SSTORE JUMP JUMPDEST PUSH1 0x0 PUSH2 0x7E2 CALLER DUP5 PUSH2 0x846 DUP6 PUSH1 0x40 MLOAD DUP1 PUSH1 0x60 ADD PUSH1 0x40 MSTORE DUP1 PUSH1 0x25 DUP2 MSTORE PUSH1 0x20 ADD PUSH2 0x3216 PUSH1 0x25 SWAP2 CODECOPY CALLER PUSH1 0x0 SWAP1 DUP2 MSTORE PUSH1 0x3 PUSH1 0x20 SWAP1 DUP2 MSTORE PUSH1 0x40 DUP1 DUP4 KECCAK256 PUSH1 0x1 PUSH1 0x1 PUSH1 0xA0 SHL SUB DUP14 AND DUP5 MSTORE SWAP1 SWAP2 MSTORE SWAP1 KECCAK256 SLOAD SWAP2 SWAP1 PUSH2 0x1C35 JUMP JUMPDEST PUSH1 0x0 PUSH2 0x7E2 CALLER DUP5 DUP5 PUSH2 0x18C3 JUMP JUMPDEST PUSH1 0x0 PUSH1 0xA SLOAD DUP5 GT ISZERO PUSH2 0x14C5 JUMPI PUSH1 0x40 MLOAD PUSH3 0x461BCD PUSH1 0xE5 SHL DUP2 MSTORE PUSH1 0x20 PUSH1 0x4 DUP3 ADD MSTORE PUSH1 0x1F PUSH1 0x24 DUP3 ADD MSTORE PUSH32 0x416D6F756E74206D757374206265206C657373207468616E20737570706C7900 PUSH1 0x44 DUP3 ADD MSTORE PUSH1 0x64 ADD PUSH2 0x735 JUMP JUMPDEST PUSH2 0x1505 PUSH1 0x40 MLOAD DUP1 PUSH1 0xE0 ADD PUSH1 0x40 MSTORE DUP1 PUSH1 0x0 DUP2 MSTORE PUSH1 0x20 ADD PUSH1 0x0 DUP2 MSTORE PUSH1 0x20 ADD PUSH1 0x0 DUP2 MSTORE PUSH1 0x20 ADD PUSH1 0x0 DUP2 MSTORE PUSH1 0x20 ADD PUSH1 0x0 DUP2 MSTORE PUSH1 0x20 ADD PUSH1 0x0 DUP2 MSTORE PUSH1 0x20 ADD PUSH1 0x0 DUP2 MSTORE POP SWAP1 JUMP JUMPDEST DUP4 PUSH2 0x151E JUMPI PUSH2 0x1514 DUP6 DUP5 PUSH2 0x1E65 JUMP JUMPDEST MLOAD SWAP2 POP PUSH2 0x84F SWAP1 POP JUMP JUMPDEST PUSH2 0x1528 DUP6 DUP5 PUSH2 0x1E65 JUMP JUMPDEST PUSH1 0x20 ADD MLOAD SWAP2 POP PUSH2 0x84F SWAP1 POP JUMP JUMPDEST PUSH1 0x14 DUP2 DUP2 SLOAD DUP2 LT PUSH2 0x1545 JUMPI PUSH1 0x0 DUP1 REVERT JUMPDEST PUSH1 0x0 SWAP2 DUP3 MSTORE PUSH1 0x20 SWAP1 SWAP2 KECCAK256 ADD SLOAD SWAP1 POP DUP2 JUMP JUMPDEST PUSH1 0x0 SLOAD PUSH1 0x1 PUSH1 0x1 PUSH1 0xA0 SHL SUB AND CALLER EQ PUSH2 0x159E JUMPI PUSH1 0x40 MLOAD PUSH3 0x461BCD PUSH1 0xE5 SHL DUP2 MSTORE PUSH1 0x20 PUSH1 0x4 DUP3 ADD DUP2 SWAP1 MSTORE PUSH1 0x24 DUP3 ADD MSTORE PUSH1 0x0 DUP1 MLOAD PUSH1 0x20 PUSH2 0x31F6 DUP4 CODECOPY DUP2 MLOAD SWAP2 MSTORE PUSH1 0x44 DUP3 ADD MSTORE PUSH1 0x64 ADD PUSH2 0x735 JUMP JUMPDEST PUSH2 0x15B8 PUSH1 0x64 PUSH2 0x1352 DUP4 PUSH1 0xA SLOAD PUSH2 0x1753 SWAP1 SWAP2 SWAP1 PUSH4 0xFFFFFFFF AND JUMP JUMPDEST PUSH1 0x1B SSTORE POP JUMP JUMPDEST PUSH1 0x0 SLOAD PUSH1 0x1 PUSH1 0x1 PUSH1 0xA0 SHL SUB AND CALLER EQ PUSH2 0x1606 JUMPI PUSH1 0x40 MLOAD PUSH3 0x461BCD PUSH1 0xE5 SHL DUP2 MSTORE PUSH1 0x20 PUSH1 0x4 DUP3 ADD DUP2 SWAP1 MSTORE PUSH1 0x24 DUP3 ADD MSTORE PUSH1 0x0 DUP1 MLOAD PUSH1 0x20 PUSH2 0x31F6 DUP4 CODECOPY DUP2 MLOAD SWAP2 MSTORE PUSH1 0x44 DUP3 ADD MSTORE PUSH1 0x64 ADD PUSH2 0x735 JUMP JUMPDEST PUSH1 0x1 PUSH1 0x1 PUSH1 0xA0 SHL SUB AND PUSH1 0x0 SWAP1 DUP2 MSTORE PUSH1 0x4 PUSH1 0x20 MSTORE PUSH1 0x40 SWAP1 KECCAK256 DUP1 SLOAD PUSH1 0xFF NOT AND SWAP1 SSTORE JUMP JUMPDEST PUSH1 0x0 SLOAD PUSH1 0x1 PUSH1 0x1 PUSH1 0xA0 SHL SUB AND CALLER EQ PUSH2 0x166F JUMPI PUSH1 0x40 MLOAD PUSH3 0x461BCD PUSH1 0xE5 SHL DUP2 MSTORE PUSH1 0x20 PUSH1 0x4 DUP3 ADD DUP2 SWAP1 MSTORE PUSH1 0x24 DUP3 ADD MSTORE PUSH1 0x0 DUP1 MLOAD PUSH1 0x20 PUSH2 0x31F6 DUP4 CODECOPY DUP2 MLOAD SWAP2 MSTORE PUSH1 0x44 DUP3 ADD MSTORE PUSH1 0x64 ADD PUSH2 0x735 JUMP JUMPDEST PUSH1 0x20 DUP1 SLOAD PUSH1 0xFF NOT DUP2 AND PUSH1 0xFF SWAP1 SWAP2 AND ISZERO OR SWAP1 SSTORE JUMP JUMPDEST PUSH1 0x0 SLOAD PUSH1 0x1 PUSH1 0x1 PUSH1 0xA0 SHL SUB AND CALLER EQ PUSH2 0x16CB JUMPI PUSH1 0x40 MLOAD PUSH3 0x461BCD PUSH1 0xE5 SHL DUP2 MSTORE PUSH1 0x20 PUSH1 0x4 DUP3 ADD DUP2 SWAP1 MSTORE PUSH1 0x24 DUP3 ADD MSTORE PUSH1 0x0 DUP1 MLOAD PUSH1 0x20 PUSH2 0x31F6 DUP4 CODECOPY DUP2 MLOAD SWAP2 MSTORE PUSH1 0x44 DUP3 ADD MSTORE PUSH1 0x64 ADD PUSH2 0x735 JUMP JUMPDEST PUSH1 0x1 PUSH1 0x1 PUSH1 0xA0 SHL SUB DUP2 AND PUSH2 0x1747 JUMPI PUSH1 0x40 MLOAD PUSH3 0x461BCD PUSH1 0xE5 SHL DUP2 MSTORE PUSH1 0x20 PUSH1 0x4 DUP3 ADD MSTORE PUSH1 0x26 PUSH1 0x24 DUP3 ADD MSTORE PUSH32 0x4F776E61626C653A206E6577206F776E657220697320746865207A65726F2061 PUSH1 0x44 DUP3 ADD MSTORE PUSH32 0x6464726573730000000000000000000000000000000000000000000000000000 PUSH1 0x64 DUP3 ADD MSTORE PUSH1 0x84 ADD PUSH2 0x735 JUMP JUMPDEST PUSH2 0x1750 DUP2 PUSH2 0x1CA7 JUMP JUMPDEST POP JUMP JUMPDEST PUSH1 0x0 PUSH2 0x84F DUP3 DUP5 PUSH2 0x30C8 JUMP JUMPDEST PUSH1 0x0 PUSH2 0x84F DUP3 DUP5 PUSH2 0x30B4 JUMP JUMPDEST PUSH1 0x1 PUSH1 0x1 PUSH1 0xA0 SHL SUB DUP4 AND PUSH2 0x17E6 JUMPI PUSH1 0x40 MLOAD PUSH3 0x461BCD PUSH1 0xE5 SHL DUP2 MSTORE PUSH1 0x20 PUSH1 0x4 DUP3 ADD MSTORE PUSH1 0x24 DUP1 DUP3 ADD MSTORE PUSH32 0x45524332303A20617070726F76652066726F6D20746865207A65726F20616464 PUSH1 0x44 DUP3 ADD MSTORE PUSH32 0x7265737300000000000000000000000000000000000000000000000000000000 PUSH1 0x64 DUP3 ADD MSTORE PUSH1 0x84 ADD PUSH2 0x735 JUMP JUMPDEST PUSH1 0x1 PUSH1 0x1 PUSH1 0xA0 SHL SUB DUP3 AND PUSH2 0x1862 JUMPI PUSH1 0x40 MLOAD PUSH3 0x461BCD PUSH1 0xE5 SHL DUP2 MSTORE PUSH1 0x20 PUSH1 0x4 DUP3 ADD MSTORE PUSH1 0x22 PUSH1 0x24 DUP3 ADD MSTORE PUSH32 0x45524332303A20617070726F766520746F20746865207A65726F206164647265 PUSH1 0x44 DUP3 ADD MSTORE PUSH32 0x7373000000000000000000000000000000000000000000000000000000000000 PUSH1 0x64 DUP3 ADD MSTORE PUSH1 0x84 ADD PUSH2 0x735 JUMP JUMPDEST PUSH1 0x1 PUSH1 0x1 PUSH1 0xA0 SHL SUB DUP4 DUP2 AND PUSH1 0x0 DUP2 DUP2 MSTORE PUSH1 0x3 PUSH1 0x20 SWAP1 DUP2 MSTORE PUSH1 0x40 DUP1 DUP4 KECCAK256 SWAP5 DUP8 AND DUP1 DUP5 MSTORE SWAP5 DUP3 MSTORE SWAP2 DUP3 SWAP1 KECCAK256 DUP6 SWAP1 SSTORE SWAP1 MLOAD DUP5 DUP2 MSTORE PUSH32 0x8C5BE1E5EBEC7D5BD14F71427D1E84F3DD0314C0F7B2291E5B200AC8C7C3B925 SWAP2 ADD PUSH1 0x40 MLOAD DUP1 SWAP2 SUB SWAP1 LOG3 POP POP POP JUMP JUMPDEST PUSH1 0x1 PUSH1 0x1 PUSH1 0xA0 SHL SUB DUP4 AND PUSH2 0x193F JUMPI PUSH1 0x40 MLOAD PUSH3 0x461BCD PUSH1 0xE5 SHL DUP2 MSTORE PUSH1 0x20 PUSH1 0x4 DUP3 ADD MSTORE PUSH1 0x25 PUSH1 0x24 DUP3 ADD MSTORE PUSH32 0x45524332303A207472616E736665722066726F6D20746865207A65726F206164 PUSH1 0x44 DUP3 ADD MSTORE PUSH32 0x6472657373000000000000000000000000000000000000000000000000000000 PUSH1 0x64 DUP3 ADD MSTORE PUSH1 0x84 ADD PUSH2 0x735 JUMP JUMPDEST PUSH1 0x1 PUSH1 0x1 PUSH1 0xA0 SHL SUB DUP3 AND PUSH2 0x19BB JUMPI PUSH1 0x40 MLOAD PUSH3 0x461BCD PUSH1 0xE5 SHL DUP2 MSTORE PUSH1 0x20 PUSH1 0x4 DUP3 ADD MSTORE PUSH1 0x23 PUSH1 0x24 DUP3 ADD MSTORE PUSH32 0x45524332303A207472616E7366657220746F20746865207A65726F2061646472 PUSH1 0x44 DUP3 ADD MSTORE PUSH32 0x6573730000000000000000000000000000000000000000000000000000000000 PUSH1 0x64 DUP3 ADD MSTORE PUSH1 0x84 ADD PUSH2 0x735 JUMP JUMPDEST PUSH1 0x0 DUP2 GT PUSH2 0x1A31 JUMPI PUSH1 0x40 MLOAD PUSH3 0x461BCD PUSH1 0xE5 SHL DUP2 MSTORE PUSH1 0x20 PUSH1 0x4 DUP3 ADD MSTORE PUSH1 0x29 PUSH1 0x24 DUP3 ADD MSTORE PUSH32 0x5472616E7366657220616D6F756E74206D757374206265206772656174657220 PUSH1 0x44 DUP3 ADD MSTORE PUSH32 0x7468616E207A65726F0000000000000000000000000000000000000000000000 PUSH1 0x64 DUP3 ADD MSTORE PUSH1 0x84 ADD PUSH2 0x735 JUMP JUMPDEST PUSH1 0x0 SLOAD PUSH1 0x1 PUSH1 0x1 PUSH1 0xA0 SHL SUB DUP5 DUP2 AND SWAP2 AND EQ DUP1 ISZERO SWAP1 PUSH2 0x1A5D JUMPI POP PUSH1 0x0 SLOAD PUSH1 0x1 PUSH1 0x1 PUSH1 0xA0 SHL SUB DUP4 DUP2 AND SWAP2 AND EQ ISZERO JUMPDEST ISZERO PUSH2 0x1ADA JUMPI PUSH1 0x1B SLOAD DUP2 GT ISZERO PUSH2 0x1ADA JUMPI PUSH1 0x40 MLOAD PUSH3 0x461BCD PUSH1 0xE5 SHL DUP2 MSTORE PUSH1 0x20 PUSH1 0x4 DUP3 ADD MSTORE PUSH1 0x28 PUSH1 0x24 DUP3 ADD MSTORE PUSH32 0x5472616E7366657220616D6F756E74206578636565647320746865206D617854 PUSH1 0x44 DUP3 ADD MSTORE PUSH32 0x78416D6F756E742E000000000000000000000000000000000000000000000000 PUSH1 0x64 DUP3 ADD MSTORE PUSH1 0x84 ADD PUSH2 0x735 JUMP JUMPDEST PUSH1 0x22 SLOAD TIMESTAMP GT PUSH2 0x1BCE JUMPI PUSH1 0x40 MLOAD PUSH4 0x70A08231 PUSH1 0xE0 SHL DUP2 MSTORE PUSH1 0x1 PUSH1 0x1 PUSH1 0xA0 SHL SUB DUP4 DUP2 AND PUSH1 0x4 DUP4 ADD MSTORE PUSH1 0x0 SWAP2 PUSH32 0x0 SWAP1 SWAP2 AND SWAP1 PUSH4 0x70A08231 SWAP1 PUSH1 0x24 ADD PUSH1 0x20 PUSH1 0x40 MLOAD DUP1 DUP4 SUB DUP2 DUP7 DUP1 EXTCODESIZE ISZERO DUP1 ISZERO PUSH2 0x1B49 JUMPI PUSH1 0x0 DUP1 REVERT JUMPDEST POP GAS STATICCALL ISZERO DUP1 ISZERO PUSH2 0x1B5D JUMPI RETURNDATASIZE PUSH1 0x0 DUP1 RETURNDATACOPY RETURNDATASIZE PUSH1 0x0 REVERT JUMPDEST POP POP POP POP PUSH1 0x40 MLOAD RETURNDATASIZE PUSH1 0x1F NOT PUSH1 0x1F DUP3 ADD AND DUP3 ADD DUP1 PUSH1 0x40 MSTORE POP DUP2 ADD SWAP1 PUSH2 0x1B81 SWAP2 SWAP1 PUSH2 0x2FC3 JUMP JUMPDEST GT PUSH2 0x1BCE JUMPI PUSH1 0x40 MLOAD PUSH3 0x461BCD PUSH1 0xE5 SHL DUP2 MSTORE PUSH1 0x20 PUSH1 0x4 DUP3 ADD DUP2 SWAP1 MSTORE PUSH1 0x24 DUP3 ADD MSTORE PUSH32 0x52656365697069656E74206D7573742062652061204E465420686F6C6465722E PUSH1 0x44 DUP3 ADD MSTORE PUSH1 0x64 ADD PUSH2 0x735 JUMP JUMPDEST PUSH2 0x1BD8 DUP4 DUP4 PUSH2 0x1F0B JUMP JUMPDEST PUSH1 0x1 PUSH1 0x1 PUSH1 0xA0 SHL SUB DUP4 AND PUSH1 0x0 SWAP1 DUP2 MSTORE PUSH1 0x4 PUSH1 0x20 MSTORE PUSH1 0x40 SWAP1 KECCAK256 SLOAD PUSH1 0x1 SWAP1 PUSH1 0xFF AND DUP1 PUSH2 0x1C1A JUMPI POP PUSH1 0x1 PUSH1 0x1 PUSH1 0xA0 SHL SUB DUP4 AND PUSH1 0x0 SWAP1 DUP2 MSTORE PUSH1 0x4 PUSH1 0x20 MSTORE PUSH1 0x40 SWAP1 KECCAK256 SLOAD PUSH1 0xFF AND JUMPDEST ISZERO PUSH2 0x1C23 JUMPI POP PUSH1 0x0 JUMPDEST PUSH2 0x1C2F DUP5 DUP5 DUP5 DUP5 PUSH2 0x1CF7 JUMP JUMPDEST POP POP POP POP JUMP JUMPDEST PUSH1 0x0 DUP2 DUP5 DUP5 GT ISZERO PUSH2 0x1C59 JUMPI PUSH1 0x40 MLOAD PUSH3 0x461BCD PUSH1 0xE5 SHL DUP2 MSTORE PUSH1 0x4 ADD PUSH2 0x735 SWAP2 SWAP1 PUSH2 0x3049 JUMP JUMPDEST POP PUSH2 0x1C64 DUP4 DUP6 PUSH2 0x30E7 JUMP JUMPDEST SWAP5 SWAP4 POP POP POP POP JUMP JUMPDEST PUSH1 0x0 DUP1 PUSH1 0x0 PUSH2 0x1C79 PUSH2 0x1FD1 JUMP JUMPDEST SWAP1 SWAP3 POP SWAP1 POP PUSH2 0x1C88 DUP3 DUP3 PUSH2 0x175F JUMP JUMPDEST SWAP3 POP POP POP SWAP1 JUMP JUMPDEST PUSH1 0x0 PUSH2 0x84F DUP3 DUP5 PUSH2 0x309C JUMP JUMPDEST PUSH1 0x0 PUSH2 0x84F DUP3 DUP5 PUSH2 0x3154 JUMP JUMPDEST PUSH1 0x0 DUP1 SLOAD PUSH1 0x1 PUSH1 0x1 PUSH1 0xA0 SHL SUB DUP4 DUP2 AND PUSH1 0x1 PUSH1 0x1 PUSH1 0xA0 SHL SUB NOT DUP4 AND DUP2 OR DUP5 SSTORE PUSH1 0x40 MLOAD SWAP2 SWAP1 SWAP3 AND SWAP3 DUP4 SWAP2 PUSH32 0x8BE0079C531659141344CD1FD0A4F28419497F9722A3DAAFE3B4186F6B6457E0 SWAP2 SWAP1 LOG3 POP POP JUMP JUMPDEST DUP1 PUSH2 0x1D04 JUMPI PUSH2 0x1D04 PUSH2 0x218B JUMP JUMPDEST PUSH1 0x1 PUSH1 0x1 PUSH1 0xA0 SHL SUB DUP5 AND PUSH1 0x0 SWAP1 DUP2 MSTORE PUSH1 0x5 PUSH1 0x20 MSTORE PUSH1 0x40 SWAP1 KECCAK256 SLOAD PUSH1 0xFF AND DUP1 ISZERO PUSH2 0x1D45 JUMPI POP PUSH1 0x1 PUSH1 0x1 PUSH1 0xA0 SHL SUB DUP4 AND PUSH1 0x0 SWAP1 DUP2 MSTORE PUSH1 0x5 PUSH1 0x20 MSTORE PUSH1 0x40 SWAP1 KECCAK256 SLOAD PUSH1 0xFF AND ISZERO JUMPDEST ISZERO PUSH2 0x1D5A JUMPI PUSH2 0x1D55 DUP5 DUP5 DUP5 PUSH2 0x2214 JUMP JUMPDEST PUSH2 0x1E58 JUMP JUMPDEST PUSH1 0x1 PUSH1 0x1 PUSH1 0xA0 SHL SUB DUP5 AND PUSH1 0x0 SWAP1 DUP2 MSTORE PUSH1 0x5 PUSH1 0x20 MSTORE PUSH1 0x40 SWAP1 KECCAK256 SLOAD PUSH1 0xFF AND ISZERO DUP1 ISZERO PUSH2 0x1D9B JUMPI POP PUSH1 0x1 PUSH1 0x1 PUSH1 0xA0 SHL SUB DUP4 AND PUSH1 0x0 SWAP1 DUP2 MSTORE PUSH1 0x5 PUSH1 0x20 MSTORE PUSH1 0x40 SWAP1 KECCAK256 SLOAD PUSH1 0xFF AND JUMPDEST ISZERO PUSH2 0x1DAB JUMPI PUSH2 0x1D55 DUP5 DUP5 DUP5 PUSH2 0x234C JUMP JUMPDEST PUSH1 0x1 PUSH1 0x1 PUSH1 0xA0 SHL SUB DUP5 AND PUSH1 0x0 SWAP1 DUP2 MSTORE PUSH1 0x5 PUSH1 0x20 MSTORE PUSH1 0x40 SWAP1 KECCAK256 SLOAD PUSH1 0xFF AND ISZERO DUP1 ISZERO PUSH2 0x1DED JUMPI POP PUSH1 0x1 PUSH1 0x1 PUSH1 0xA0 SHL SUB DUP4 AND PUSH1 0x0 SWAP1 DUP2 MSTORE PUSH1 0x5 PUSH1 0x20 MSTORE PUSH1 0x40 SWAP1 KECCAK256 SLOAD PUSH1 0xFF AND ISZERO JUMPDEST ISZERO PUSH2 0x1DFD JUMPI PUSH2 0x1D55 DUP5 DUP5 DUP5 PUSH2 0x23F1 JUMP JUMPDEST PUSH1 0x1 PUSH1 0x1 PUSH1 0xA0 SHL SUB DUP5 AND PUSH1 0x0 SWAP1 DUP2 MSTORE PUSH1 0x5 PUSH1 0x20 MSTORE PUSH1 0x40 SWAP1 KECCAK256 SLOAD PUSH1 0xFF AND DUP1 ISZERO PUSH2 0x1E3D JUMPI POP PUSH1 0x1 PUSH1 0x1 PUSH1 0xA0 SHL SUB DUP4 AND PUSH1 0x0 SWAP1 DUP2 MSTORE PUSH1 0x5 PUSH1 0x20 MSTORE PUSH1 0x40 SWAP1 KECCAK256 SLOAD PUSH1 0xFF AND JUMPDEST ISZERO PUSH2 0x1E4D JUMPI PUSH2 0x1D55 DUP5 DUP5 DUP5 PUSH2 0x2425 JUMP JUMPDEST PUSH2 0x1E58 DUP5 DUP5 DUP5 PUSH2 0x23F1 JUMP JUMPDEST DUP1 PUSH2 0x1C2F JUMPI PUSH2 0x1C2F PUSH2 0x248A JUMP JUMPDEST PUSH2 0x1EA5 PUSH1 0x40 MLOAD DUP1 PUSH1 0xE0 ADD PUSH1 0x40 MSTORE DUP1 PUSH1 0x0 DUP2 MSTORE PUSH1 0x20 ADD PUSH1 0x0 DUP2 MSTORE PUSH1 0x20 ADD PUSH1 0x0 DUP2 MSTORE PUSH1 0x20 ADD PUSH1 0x0 DUP2 MSTORE PUSH1 0x20 ADD PUSH1 0x0 DUP2 MSTORE PUSH1 0x20 ADD PUSH1 0x0 DUP2 MSTORE PUSH1 0x20 ADD PUSH1 0x0 DUP2 MSTORE POP SWAP1 JUMP JUMPDEST PUSH1 0x0 DUP1 PUSH1 0x0 DUP1 PUSH2 0x1EB5 DUP8 DUP8 PUSH2 0x24B5 JUMP JUMPDEST SWAP4 POP SWAP4 POP SWAP4 POP SWAP4 POP PUSH1 0x0 DUP1 PUSH1 0x0 PUSH2 0x1ECE DUP11 DUP8 DUP8 DUP8 PUSH2 0x250C JUMP JUMPDEST PUSH1 0x40 DUP1 MLOAD PUSH1 0xE0 DUP2 ADD DUP3 MSTORE SWAP4 DUP5 MSTORE PUSH1 0x20 DUP5 ADD SWAP3 SWAP1 SWAP3 MSTORE SWAP1 DUP3 ADD MSTORE PUSH1 0x60 DUP2 ADD SWAP8 SWAP1 SWAP8 MSTORE POP POP POP PUSH1 0x80 DUP5 ADD SWAP3 SWAP1 SWAP3 MSTORE PUSH1 0xA0 DUP4 ADD MSTORE PUSH1 0xC0 DUP3 ADD MSTORE SWAP4 SWAP3 POP POP POP JUMP JUMPDEST PUSH1 0x0 PUSH2 0x1F16 ADDRESS PUSH2 0xFEA JUMP JUMPDEST SWAP1 POP PUSH1 0x1B SLOAD DUP2 LT PUSH2 0x1F26 JUMPI POP PUSH1 0x1B SLOAD JUMPDEST PUSH1 0x16 SLOAD DUP2 LT DUP1 ISZERO SWAP1 DUP2 SWAP1 PUSH2 0x1F6C JUMPI POP PUSH32 0x0 PUSH1 0x1 PUSH1 0x1 PUSH1 0xA0 SHL SUB AND DUP5 PUSH1 0x1 PUSH1 0x1 PUSH1 0xA0 SHL SUB AND EQ ISZERO JUMPDEST DUP1 ISZERO PUSH2 0x1FBE JUMPI POP PUSH1 0x1 PUSH1 0x1 PUSH1 0xA0 SHL SUB DUP5 AND ADDRESS EQ DUP1 ISZERO PUSH2 0x1FBC JUMPI POP PUSH32 0x0 PUSH1 0x1 PUSH1 0x1 PUSH1 0xA0 SHL SUB AND DUP4 PUSH1 0x1 PUSH1 0x1 PUSH1 0xA0 SHL SUB AND EQ JUMPDEST ISZERO JUMPDEST ISZERO PUSH2 0x1C2F JUMPI PUSH1 0x16 SLOAD SWAP2 POP PUSH2 0x1C2F DUP3 PUSH2 0x257B JUMP JUMPDEST PUSH1 0xB SLOAD PUSH1 0xA SLOAD PUSH1 0x0 SWAP2 DUP3 SWAP2 DUP3 JUMPDEST PUSH1 0x6 SLOAD DUP2 LT ISZERO PUSH2 0x215B JUMPI DUP3 PUSH1 0x1 PUSH1 0x0 PUSH1 0x6 DUP5 DUP2 SLOAD DUP2 LT PUSH2 0x200E JUMPI PUSH4 0x4E487B71 PUSH1 0xE0 SHL PUSH1 0x0 MSTORE PUSH1 0x32 PUSH1 0x4 MSTORE PUSH1 0x24 PUSH1 0x0 REVERT JUMPDEST PUSH1 0x0 SWAP2 DUP3 MSTORE PUSH1 0x20 DUP1 DUP4 KECCAK256 SWAP1 SWAP2 ADD SLOAD PUSH1 0x1 PUSH1 0x1 PUSH1 0xA0 SHL SUB AND DUP4 MSTORE DUP3 ADD SWAP3 SWAP1 SWAP3 MSTORE PUSH1 0x40 ADD SWAP1 KECCAK256 SLOAD GT DUP1 PUSH2 0x2087 JUMPI POP DUP2 PUSH1 0x2 PUSH1 0x0 PUSH1 0x6 DUP5 DUP2 SLOAD DUP2 LT PUSH2 0x2060 JUMPI PUSH4 0x4E487B71 PUSH1 0xE0 SHL PUSH1 0x0 MSTORE PUSH1 0x32 PUSH1 0x4 MSTORE PUSH1 0x24 PUSH1 0x0 REVERT JUMPDEST PUSH1 0x0 SWAP2 DUP3 MSTORE PUSH1 0x20 DUP1 DUP4 KECCAK256 SWAP1 SWAP2 ADD SLOAD PUSH1 0x1 PUSH1 0x1 PUSH1 0xA0 SHL SUB AND DUP4 MSTORE DUP3 ADD SWAP3 SWAP1 SWAP3 MSTORE PUSH1 0x40 ADD SWAP1 KECCAK256 SLOAD GT JUMPDEST ISZERO PUSH2 0x209D JUMPI PUSH1 0xB SLOAD PUSH1 0xA SLOAD SWAP5 POP SWAP5 POP POP POP POP SWAP1 SWAP2 JUMP JUMPDEST PUSH2 0x20F1 PUSH1 0x1 PUSH1 0x0 PUSH1 0x6 DUP5 DUP2 SLOAD DUP2 LT PUSH2 0x20C5 JUMPI PUSH4 0x4E487B71 PUSH1 0xE0 SHL PUSH1 0x0 MSTORE PUSH1 0x32 PUSH1 0x4 MSTORE PUSH1 0x24 PUSH1 0x0 REVERT JUMPDEST PUSH1 0x0 SWAP2 DUP3 MSTORE PUSH1 0x20 DUP1 DUP4 KECCAK256 SWAP1 SWAP2 ADD SLOAD PUSH1 0x1 PUSH1 0x1 PUSH1 0xA0 SHL SUB AND DUP4 MSTORE DUP3 ADD SWAP3 SWAP1 SWAP3 MSTORE PUSH1 0x40 ADD SWAP1 KECCAK256 SLOAD DUP5 SWAP1 PUSH2 0x2816 JUMP JUMPDEST SWAP3 POP PUSH2 0x2147 PUSH1 0x2 PUSH1 0x0 PUSH1 0x6 DUP5 DUP2 SLOAD DUP2 LT PUSH2 0x211B JUMPI PUSH4 0x4E487B71 PUSH1 0xE0 SHL PUSH1 0x0 MSTORE PUSH1 0x32 PUSH1 0x4 MSTORE PUSH1 0x24 PUSH1 0x0 REVERT JUMPDEST PUSH1 0x0 SWAP2 DUP3 MSTORE PUSH1 0x20 DUP1 DUP4 KECCAK256 SWAP1 SWAP2 ADD SLOAD PUSH1 0x1 PUSH1 0x1 PUSH1 0xA0 SHL SUB AND DUP4 MSTORE DUP3 ADD SWAP3 SWAP1 SWAP3 MSTORE PUSH1 0x40 ADD SWAP1 KECCAK256 SLOAD DUP4 SWAP1 PUSH2 0x2816 JUMP JUMPDEST SWAP2 POP DUP1 PUSH2 0x2153 DUP2 PUSH2 0x3139 JUMP JUMPDEST SWAP2 POP POP PUSH2 0x1FDE JUMP JUMPDEST POP PUSH1 0xA SLOAD PUSH1 0xB SLOAD PUSH2 0x216B SWAP2 PUSH2 0x175F JUMP JUMPDEST DUP3 LT ISZERO PUSH2 0x2182 JUMPI PUSH1 0xB SLOAD PUSH1 0xA SLOAD SWAP4 POP SWAP4 POP POP POP SWAP1 SWAP2 JUMP JUMPDEST SWAP1 SWAP4 SWAP1 SWAP3 POP SWAP1 POP JUMP JUMPDEST PUSH1 0x10 SLOAD PUSH2 0x2194 JUMPI JUMP JUMPDEST PUSH1 0xE SLOAD PUSH1 0xF SSTORE PUSH1 0x10 SLOAD PUSH1 0x11 SSTORE PUSH1 0x12 SLOAD PUSH1 0x13 SSTORE PUSH1 0x14 DUP1 SLOAD PUSH2 0x21B6 SWAP2 PUSH1 0x15 SWAP2 PUSH2 0x2D54 JUMP JUMPDEST POP PUSH1 0x17 SLOAD PUSH1 0x18 SSTORE PUSH1 0x0 PUSH1 0xE DUP2 SWAP1 SSTORE PUSH1 0x10 DUP2 SWAP1 SSTORE PUSH1 0x12 DUP2 SWAP1 SSTORE PUSH1 0x40 DUP1 MLOAD PUSH1 0xC0 DUP2 ADD DUP3 MSTORE DUP3 DUP2 MSTORE PUSH1 0x20 DUP2 ADD DUP4 SWAP1 MSTORE SWAP1 DUP2 ADD DUP3 SWAP1 MSTORE PUSH1 0x60 DUP2 ADD DUP3 SWAP1 MSTORE PUSH1 0x80 DUP2 ADD DUP3 SWAP1 MSTORE PUSH1 0xA0 DUP2 ADD SWAP2 SWAP1 SWAP2 MSTORE PUSH2 0x220C SWAP1 PUSH1 0x14 SWAP1 PUSH1 0x6 PUSH2 0x2DA4 JUMP JUMPDEST POP PUSH1 0x0 PUSH1 0x17 SSTORE JUMP JUMPDEST PUSH1 0x0 PUSH2 0x2220 DUP3 DUP5 PUSH2 0x1E65 JUMP JUMPDEST PUSH1 0x1 PUSH1 0x1 PUSH1 0xA0 SHL SUB DUP6 AND PUSH1 0x0 SWAP1 DUP2 MSTORE PUSH1 0x2 PUSH1 0x20 MSTORE PUSH1 0x40 SWAP1 KECCAK256 SLOAD SWAP1 SWAP2 POP PUSH2 0x2246 SWAP1 DUP4 PUSH2 0x2816 JUMP JUMPDEST PUSH1 0x1 PUSH1 0x1 PUSH1 0xA0 SHL SUB DUP6 AND PUSH1 0x0 SWAP1 DUP2 MSTORE PUSH1 0x2 PUSH1 0x20 SWAP1 DUP2 MSTORE PUSH1 0x40 DUP1 DUP4 KECCAK256 SWAP4 SWAP1 SWAP4 SSTORE DUP4 MLOAD PUSH1 0x1 SWAP1 SWAP2 MSTORE SWAP2 SWAP1 KECCAK256 SLOAD PUSH2 0x2279 SWAP2 PUSH2 0x2816 JUMP JUMPDEST PUSH1 0x1 PUSH1 0x1 PUSH1 0xA0 SHL SUB DUP1 DUP7 AND PUSH1 0x0 SWAP1 DUP2 MSTORE PUSH1 0x1 PUSH1 0x20 SWAP1 DUP2 MSTORE PUSH1 0x40 DUP1 DUP4 KECCAK256 SWAP5 SWAP1 SWAP5 SSTORE DUP5 ADD MLOAD SWAP2 DUP7 AND DUP2 MSTORE SWAP2 SWAP1 SWAP2 KECCAK256 SLOAD PUSH2 0x22AF SWAP2 PUSH2 0x1C8F JUMP JUMPDEST PUSH1 0x1 PUSH1 0x1 PUSH1 0xA0 SHL SUB DUP5 AND PUSH1 0x0 SWAP1 DUP2 MSTORE PUSH1 0x1 PUSH1 0x20 MSTORE PUSH1 0x40 SWAP1 KECCAK256 SSTORE PUSH1 0xA0 DUP2 ADD MLOAD PUSH2 0x22D6 SWAP1 PUSH2 0x2822 JUMP JUMPDEST PUSH2 0x22E3 DUP2 PUSH1 0xC0 ADD MLOAD PUSH2 0x284F JUMP JUMPDEST PUSH2 0x22F5 DUP2 PUSH1 0x40 ADD MLOAD DUP3 PUSH1 0x80 ADD MLOAD PUSH2 0x2B07 JUMP JUMPDEST DUP3 PUSH1 0x1 PUSH1 0x1 PUSH1 0xA0 SHL SUB AND DUP5 PUSH1 0x1 PUSH1 0x1 PUSH1 0xA0 SHL SUB AND PUSH32 0xDDF252AD1BE2C89B69C2B068FC378DAA952BA7F163C4A11628F55A4DF523B3EF DUP4 PUSH1 0x60 ADD MLOAD PUSH1 0x40 MLOAD PUSH2 0x233E SWAP2 DUP2 MSTORE PUSH1 0x20 ADD SWAP1 JUMP JUMPDEST PUSH1 0x40 MLOAD DUP1 SWAP2 SUB SWAP1 LOG3 POP POP POP POP JUMP JUMPDEST PUSH1 0x0 PUSH2 0x2358 DUP3 DUP5 PUSH2 0x1E65 JUMP JUMPDEST DUP1 MLOAD PUSH1 0x1 PUSH1 0x1 PUSH1 0xA0 SHL SUB DUP7 AND PUSH1 0x0 SWAP1 DUP2 MSTORE PUSH1 0x1 PUSH1 0x20 MSTORE PUSH1 0x40 SWAP1 KECCAK256 SLOAD SWAP2 SWAP3 POP PUSH2 0x2380 SWAP2 SWAP1 PUSH2 0x2816 JUMP JUMPDEST PUSH1 0x1 PUSH1 0x1 PUSH1 0xA0 SHL SUB DUP1 DUP7 AND PUSH1 0x0 SWAP1 DUP2 MSTORE PUSH1 0x1 PUSH1 0x20 SWAP1 DUP2 MSTORE PUSH1 0x40 DUP1 DUP4 KECCAK256 SWAP5 SWAP1 SWAP5 SSTORE PUSH1 0x60 DUP6 ADD MLOAD SWAP3 DUP8 AND DUP3 MSTORE PUSH1 0x2 SWAP1 MSTORE SWAP2 SWAP1 SWAP2 KECCAK256 SLOAD PUSH2 0x23BC SWAP2 PUSH2 0x1C8F JUMP JUMPDEST PUSH1 0x1 PUSH1 0x1 PUSH1 0xA0 SHL SUB DUP5 AND PUSH1 0x0 SWAP1 DUP2 MSTORE PUSH1 0x2 PUSH1 0x20 SWAP1 DUP2 MSTORE PUSH1 0x40 DUP1 DUP4 KECCAK256 SWAP4 SWAP1 SWAP4 SSTORE DUP4 DUP2 ADD MLOAD PUSH1 0x1 SWAP1 SWAP2 MSTORE SWAP2 SWAP1 KECCAK256 SLOAD PUSH2 0x22AF SWAP2 PUSH2 0x1C8F JUMP JUMPDEST PUSH1 0x0 PUSH2 0x23FD DUP3 DUP5 PUSH2 0x1E65 JUMP JUMPDEST DUP1 MLOAD PUSH1 0x1 PUSH1 0x1 PUSH1 0xA0 SHL SUB DUP7 AND PUSH1 0x0 SWAP1 DUP2 MSTORE PUSH1 0x1 PUSH1 0x20 MSTORE PUSH1 0x40 SWAP1 KECCAK256 SLOAD SWAP2 SWAP3 POP PUSH2 0x2279 SWAP2 SWAP1 PUSH2 0x2816 JUMP JUMPDEST PUSH1 0x0 PUSH2 0x2431 DUP3 DUP5 PUSH2 0x1E65 JUMP JUMPDEST PUSH1 0x1 PUSH1 0x1 PUSH1 0xA0 SHL SUB DUP6 AND PUSH1 0x0 SWAP1 DUP2 MSTORE PUSH1 0x2 PUSH1 0x20 MSTORE PUSH1 0x40 SWAP1 KECCAK256 SLOAD SWAP1 SWAP2 POP PUSH2 0x2457 SWAP1 DUP4 PUSH2 0x2816 JUMP JUMPDEST PUSH1 0x1 PUSH1 0x1 PUSH1 0xA0 SHL SUB DUP6 AND PUSH1 0x0 SWAP1 DUP2 MSTORE PUSH1 0x2 PUSH1 0x20 SWAP1 DUP2 MSTORE PUSH1 0x40 DUP1 DUP4 KECCAK256 SWAP4 SWAP1 SWAP4 SSTORE DUP4 MLOAD PUSH1 0x1 SWAP1 SWAP2 MSTORE SWAP2 SWAP1 KECCAK256 SLOAD PUSH2 0x2380 SWAP2 PUSH2 0x2816 JUMP JUMPDEST PUSH1 0xF SLOAD PUSH1 0xE SSTORE PUSH1 0x11 SLOAD PUSH1 0x10 SSTORE PUSH1 0x13 SLOAD PUSH1 0x12 SSTORE PUSH1 0x15 DUP1 SLOAD PUSH2 0x24AC SWAP2 PUSH1 0x14 SWAP2 PUSH2 0x2D54 JUMP JUMPDEST POP PUSH1 0x18 SLOAD PUSH1 0x17 SSTORE JUMP JUMPDEST PUSH1 0x0 DUP1 PUSH1 0x0 DUP1 PUSH1 0x0 PUSH2 0x24C6 DUP8 PUSH2 0x2B2B JUMP JUMPDEST SWAP1 POP PUSH1 0x0 PUSH2 0x24D3 DUP9 PUSH2 0x2B48 JUMP JUMPDEST SWAP1 POP PUSH1 0x0 PUSH2 0x24E1 DUP10 DUP10 PUSH2 0x2B65 JUMP JUMPDEST SWAP1 POP PUSH1 0x0 PUSH2 0x24FB DUP3 PUSH2 0x24F5 DUP6 DUP2 DUP15 DUP10 PUSH2 0x2816 JUMP JUMPDEST SWAP1 PUSH2 0x2816 JUMP JUMPDEST SWAP11 SWAP4 SWAP10 POP SWAP2 SWAP8 POP SWAP6 POP SWAP1 SWAP4 POP POP POP POP JUMP JUMPDEST PUSH1 0x0 DUP1 PUSH1 0x0 DUP1 PUSH2 0x251A PUSH2 0x1C6C JUMP JUMPDEST SWAP1 POP PUSH1 0x0 PUSH2 0x2528 DUP10 DUP4 PUSH2 0x1753 JUMP JUMPDEST SWAP1 POP PUSH1 0x0 PUSH2 0x2536 DUP10 DUP5 PUSH2 0x1753 JUMP JUMPDEST SWAP1 POP PUSH1 0x0 PUSH2 0x2544 DUP10 DUP6 PUSH2 0x1753 JUMP JUMPDEST SWAP1 POP PUSH1 0x0 PUSH2 0x2552 DUP10 DUP7 PUSH2 0x1753 JUMP JUMPDEST SWAP1 POP PUSH1 0x0 PUSH2 0x2566 DUP3 PUSH2 0x24F5 DUP6 DUP2 DUP10 DUP10 PUSH2 0x2816 JUMP JUMPDEST SWAP5 SWAP14 SWAP5 SWAP13 POP SWAP3 SWAP11 POP SWAP3 SWAP9 POP POP POP POP POP POP POP POP POP JUMP JUMPDEST PUSH1 0x0 PUSH2 0x2588 DUP3 PUSH1 0x2 PUSH2 0x175F JUMP JUMPDEST SWAP1 POP PUSH1 0x0 PUSH2 0x259B PUSH1 0x2 PUSH2 0x1352 DUP6 DUP6 PUSH2 0x2816 JUMP JUMPDEST SWAP1 POP PUSH1 0x0 PUSH2 0x25A9 DUP5 DUP4 PUSH2 0x2816 JUMP JUMPDEST SWAP1 POP PUSH1 0x0 PUSH2 0x25B7 DUP5 DUP5 PUSH2 0x1C8F JUMP JUMPDEST PUSH1 0x9 SLOAD PUSH1 0x40 MLOAD PUSH4 0x70A08231 PUSH1 0xE0 SHL DUP2 MSTORE ADDRESS PUSH1 0x4 DUP3 ADD MSTORE SWAP2 SWAP3 POP PUSH1 0x0 SWAP2 PUSH2 0x100 SWAP1 SWAP2 DIV PUSH1 0x1 PUSH1 0x1 PUSH1 0xA0 SHL SUB AND SWAP1 PUSH4 0x70A08231 SWAP1 PUSH1 0x24 ADD PUSH1 0x20 PUSH1 0x40 MLOAD DUP1 DUP4 SUB DUP2 DUP7 DUP1 EXTCODESIZE ISZERO DUP1 ISZERO PUSH2 0x2604 JUMPI PUSH1 0x0 DUP1 REVERT JUMPDEST POP GAS STATICCALL ISZERO DUP1 ISZERO PUSH2 0x2618 JUMPI RETURNDATASIZE PUSH1 0x0 DUP1 RETURNDATACOPY RETURNDATASIZE PUSH1 0x0 REVERT JUMPDEST POP POP POP POP PUSH1 0x40 MLOAD RETURNDATASIZE PUSH1 0x1F NOT PUSH1 0x1F DUP3 ADD AND DUP3 ADD DUP1 PUSH1 0x40 MSTORE POP DUP2 ADD SWAP1 PUSH2 0x263C SWAP2 SWAP1 PUSH2 0x2FC3 JUMP JUMPDEST PUSH1 0x9 SLOAD PUSH1 0x40 MLOAD PUSH4 0x8A2D81A7 PUSH1 0xE0 SHL DUP2 MSTORE PUSH1 0x1 PUSH1 0x1 PUSH1 0xA0 SHL SUB PUSH32 0x0 DUP2 AND PUSH1 0x4 DUP4 ADD MSTORE PUSH1 0x24 DUP3 ADD DUP7 SWAP1 MSTORE PUSH2 0x100 SWAP1 SWAP3 DIV SWAP1 SWAP2 AND PUSH1 0x44 DUP3 ADD MSTORE SWAP1 SWAP2 POP PUSH20 0x0 SWAP1 PUSH4 0x8A2D81A7 SWAP1 PUSH1 0x64 ADD PUSH1 0x0 PUSH1 0x40 MLOAD DUP1 DUP4 SUB DUP2 DUP7 DUP1 EXTCODESIZE ISZERO DUP1 ISZERO PUSH2 0x26CB JUMPI PUSH1 0x0 DUP1 REVERT JUMPDEST POP GAS DELEGATECALL ISZERO DUP1 ISZERO PUSH2 0x26DF JUMPI RETURNDATASIZE PUSH1 0x0 DUP1 RETURNDATACOPY RETURNDATASIZE PUSH1 0x0 REVERT JUMPDEST POP POP PUSH1 0x9 SLOAD PUSH1 0x40 MLOAD PUSH4 0x70A08231 PUSH1 0xE0 SHL DUP2 MSTORE ADDRESS PUSH1 0x4 DUP3 ADD MSTORE PUSH1 0x0 SWAP4 POP PUSH2 0x276B SWAP3 POP DUP5 SWAP2 PUSH2 0x100 SWAP1 DIV PUSH1 0x1 PUSH1 0x1 PUSH1 0xA0 SHL SUB AND SWAP1 PUSH4 0x70A08231 SWAP1 PUSH1 0x24 ADD JUMPDEST PUSH1 0x20 PUSH1 0x40 MLOAD DUP1 DUP4 SUB DUP2 DUP7 DUP1 EXTCODESIZE ISZERO DUP1 ISZERO PUSH2 0x2733 JUMPI PUSH1 0x0 DUP1 REVERT JUMPDEST POP GAS STATICCALL ISZERO DUP1 ISZERO PUSH2 0x2747 JUMPI RETURNDATASIZE PUSH1 0x0 DUP1 RETURNDATACOPY RETURNDATASIZE PUSH1 0x0 REVERT JUMPDEST POP POP POP POP PUSH1 0x40 MLOAD RETURNDATASIZE PUSH1 0x1F NOT PUSH1 0x1F DUP3 ADD AND DUP3 ADD DUP1 PUSH1 0x40 MSTORE POP DUP2 ADD SWAP1 PUSH2 0x24F5 SWAP2 SWAP1 PUSH2 0x2FC3 JUMP JUMPDEST SWAP1 POP PUSH1 0x0 PUSH2 0x277A DUP3 PUSH1 0x3 PUSH2 0x175F JUMP JUMPDEST SWAP1 POP PUSH2 0x27CB PUSH32 0x0 PUSH2 0x27B2 PUSH1 0x0 SLOAD PUSH1 0x1 PUSH1 0x1 PUSH1 0xA0 SHL SUB AND SWAP1 JUMP JUMPDEST PUSH1 0x9 SLOAD DUP9 SWAP1 PUSH2 0x100 SWAP1 DIV PUSH1 0x1 PUSH1 0x1 PUSH1 0xA0 SHL SUB AND DUP6 PUSH2 0x2C5E JUMP JUMPDEST PUSH1 0x40 DUP1 MLOAD DUP8 DUP2 MSTORE PUSH1 0x20 DUP2 ADD DUP5 SWAP1 MSTORE SWAP1 DUP2 ADD DUP7 SWAP1 MSTORE PUSH32 0x17BBFB9A6069321B6DED73BD96327C9E6B7212A5CD51FF219CD61370ACAFB561 SWAP1 PUSH1 0x60 ADD PUSH1 0x40 MLOAD DUP1 SWAP2 SUB SWAP1 LOG1 POP POP POP POP POP POP POP POP JUMP JUMPDEST PUSH1 0x0 PUSH2 0x84F DUP3 DUP5 PUSH2 0x30E7 JUMP JUMPDEST PUSH1 0xD SLOAD PUSH2 0x282F SWAP1 DUP3 PUSH2 0x1C8F JUMP JUMPDEST PUSH1 0xD DUP2 SWAP1 SSTORE PUSH1 0x16 SLOAD GT PUSH2 0x1750 JUMPI PUSH2 0x2847 PUSH1 0xD SLOAD PUSH2 0x257B JUMP JUMPDEST PUSH1 0x0 PUSH1 0xD SSTORE POP JUMP JUMPDEST PUSH1 0x0 PUSH2 0x2859 PUSH2 0x1C6C JUMP JUMPDEST SWAP1 POP PUSH1 0x0 PUSH2 0x2867 DUP4 DUP4 PUSH2 0x1753 JUMP JUMPDEST PUSH1 0x1D SLOAD PUSH1 0x1 PUSH1 0x1 PUSH1 0xA0 SHL SUB AND PUSH1 0x0 SWAP1 DUP2 MSTORE PUSH1 0x1 PUSH1 0x20 MSTORE PUSH1 0x40 SWAP1 KECCAK256 SLOAD SWAP1 SWAP2 POP PUSH2 0x288F SWAP1 DUP3 PUSH2 0x1C8F JUMP JUMPDEST PUSH1 0x1D SLOAD PUSH1 0x1 PUSH1 0x1 PUSH1 0xA0 SHL SUB SWAP1 DUP2 AND PUSH1 0x0 SWAP1 DUP2 MSTORE PUSH1 0x1 PUSH1 0x20 MSTORE PUSH1 0x40 DUP1 DUP3 KECCAK256 SWAP4 SWAP1 SWAP4 SSTORE PUSH1 0x9 SLOAD SWAP3 MLOAD PUSH4 0x70A08231 PUSH1 0xE0 SHL DUP2 MSTORE ADDRESS PUSH1 0x4 DUP3 ADD MSTORE SWAP1 SWAP3 PUSH2 0x100 SWAP1 DIV SWAP1 SWAP2 AND SWAP1 PUSH4 0x70A08231 SWAP1 PUSH1 0x24 ADD PUSH1 0x20 PUSH1 0x40 MLOAD DUP1 DUP4 SUB DUP2 DUP7 DUP1 EXTCODESIZE ISZERO DUP1 ISZERO PUSH2 0x28F1 JUMPI PUSH1 0x0 DUP1 REVERT JUMPDEST POP GAS STATICCALL ISZERO DUP1 ISZERO PUSH2 0x2905 JUMPI RETURNDATASIZE PUSH1 0x0 DUP1 RETURNDATACOPY RETURNDATASIZE PUSH1 0x0 REVERT JUMPDEST POP POP POP POP PUSH1 0x40 MLOAD RETURNDATASIZE PUSH1 0x1F NOT PUSH1 0x1F DUP3 ADD AND DUP3 ADD DUP1 PUSH1 0x40 MSTORE POP DUP2 ADD SWAP1 PUSH2 0x2929 SWAP2 SWAP1 PUSH2 0x2FC3 JUMP JUMPDEST PUSH1 0x1F SLOAD PUSH1 0x1D SLOAD PUSH1 0x1 PUSH1 0x1 PUSH1 0xA0 SHL SUB AND PUSH1 0x0 SWAP1 DUP2 MSTORE PUSH1 0x1 PUSH1 0x20 MSTORE PUSH1 0x40 SWAP1 KECCAK256 SLOAD SWAP2 SWAP3 POP GT PUSH2 0x1C2F JUMPI PUSH1 0x1D SLOAD PUSH1 0x1 PUSH1 0x1 PUSH1 0xA0 SHL SUB SWAP1 DUP2 AND PUSH1 0x0 SWAP1 DUP2 MSTORE PUSH1 0x1 PUSH1 0x20 MSTORE PUSH1 0x40 SWAP1 DUP2 SWAP1 KECCAK256 SLOAD PUSH1 0x9 SLOAD SWAP2 MLOAD PUSH4 0x8A2D81A7 PUSH1 0xE0 SHL DUP2 MSTORE PUSH32 0x0 DUP5 AND PUSH1 0x4 DUP3 ADD MSTORE PUSH1 0x24 DUP2 ADD SWAP2 SWAP1 SWAP2 MSTORE PUSH2 0x100 SWAP1 SWAP2 DIV SWAP1 SWAP2 AND PUSH1 0x44 DUP3 ADD MSTORE PUSH20 0x0 SWAP1 PUSH4 0x8A2D81A7 SWAP1 PUSH1 0x64 ADD PUSH1 0x0 PUSH1 0x40 MLOAD DUP1 DUP4 SUB DUP2 DUP7 DUP1 EXTCODESIZE ISZERO DUP1 ISZERO PUSH2 0x29F2 JUMPI PUSH1 0x0 DUP1 REVERT JUMPDEST POP GAS DELEGATECALL ISZERO DUP1 ISZERO PUSH2 0x2A06 JUMPI RETURNDATASIZE PUSH1 0x0 DUP1 RETURNDATACOPY RETURNDATASIZE PUSH1 0x0 REVERT JUMPDEST POP POP PUSH1 0x9 SLOAD PUSH1 0x40 MLOAD PUSH4 0x70A08231 PUSH1 0xE0 SHL DUP2 MSTORE ADDRESS PUSH1 0x4 DUP3 ADD MSTORE PUSH1 0x0 SWAP4 POP PUSH2 0x2A46 SWAP3 POP DUP5 SWAP2 PUSH2 0x100 SWAP1 DIV PUSH1 0x1 PUSH1 0x1 PUSH1 0xA0 SHL SUB AND SWAP1 PUSH4 0x70A08231 SWAP1 PUSH1 0x24 ADD PUSH2 0x271B JUMP JUMPDEST PUSH1 0x1D DUP1 SLOAD PUSH1 0x1 PUSH1 0x1 PUSH1 0xA0 SHL SUB SWAP1 DUP2 AND PUSH1 0x0 SWAP1 DUP2 MSTORE PUSH1 0x1 PUSH1 0x20 MSTORE PUSH1 0x40 DUP1 DUP3 KECCAK256 SWAP2 SWAP1 SWAP2 SSTORE PUSH1 0x9 SLOAD SWAP3 SLOAD SWAP1 MLOAD PUSH32 0xA9059CBB00000000000000000000000000000000000000000000000000000000 DUP2 MSTORE SWAP1 DUP3 AND PUSH1 0x4 DUP3 ADD MSTORE PUSH1 0x24 DUP2 ADD DUP5 SWAP1 MSTORE SWAP3 SWAP4 POP PUSH2 0x100 SWAP1 SWAP2 DIV AND SWAP1 PUSH4 0xA9059CBB SWAP1 PUSH1 0x44 ADD PUSH1 0x20 PUSH1 0x40 MLOAD DUP1 DUP4 SUB DUP2 PUSH1 0x0 DUP8 DUP1 EXTCODESIZE ISZERO DUP1 ISZERO PUSH2 0x2ACF JUMPI PUSH1 0x0 DUP1 REVERT JUMPDEST POP GAS CALL ISZERO DUP1 ISZERO PUSH2 0x2AE3 JUMPI RETURNDATASIZE PUSH1 0x0 DUP1 RETURNDATACOPY RETURNDATASIZE PUSH1 0x0 REVERT JUMPDEST POP POP POP POP PUSH1 0x40 MLOAD RETURNDATASIZE PUSH1 0x1F NOT PUSH1 0x1F DUP3 ADD AND DUP3 ADD DUP1 PUSH1 0x40 MSTORE POP DUP2 ADD SWAP1 PUSH2 0x1367 SWAP2 SWAP1 PUSH2 0x2F8F JUMP JUMPDEST PUSH1 0xB SLOAD PUSH2 0x2B14 SWAP1 DUP4 PUSH2 0x2816 JUMP JUMPDEST PUSH1 0xB SSTORE PUSH1 0xC SLOAD PUSH2 0x2B24 SWAP1 DUP3 PUSH2 0x1C8F JUMP JUMPDEST PUSH1 0xC SSTORE POP POP JUMP JUMPDEST PUSH1 0x0 PUSH2 0x7E6 PUSH2 0x2710 PUSH2 0x1352 PUSH1 0xE SLOAD DUP6 PUSH2 0x1753 SWAP1 SWAP2 SWAP1 PUSH4 0xFFFFFFFF AND JUMP JUMPDEST PUSH1 0x0 PUSH2 0x7E6 PUSH2 0x2710 PUSH2 0x1352 PUSH1 0x17 SLOAD DUP6 PUSH2 0x1753 SWAP1 SWAP2 SWAP1 PUSH4 0xFFFFFFFF AND JUMP JUMPDEST PUSH1 0x40 MLOAD PUSH32 0x61F7FFAF00000000000000000000000000000000000000000000000000000000 DUP2 MSTORE PUSH1 0x1 PUSH1 0x1 PUSH1 0xA0 SHL SUB DUP3 DUP2 AND PUSH1 0x4 DUP4 ADD MSTORE PUSH1 0x0 SWAP2 PUSH32 0x0 SWAP1 SWAP2 AND SWAP1 PUSH4 0x61F7FFAF SWAP1 PUSH1 0x24 ADD PUSH1 0x20 PUSH1 0x40 MLOAD DUP1 DUP4 SUB DUP2 DUP7 DUP1 EXTCODESIZE ISZERO DUP1 ISZERO PUSH2 0x2BE4 JUMPI PUSH1 0x0 DUP1 REVERT JUMPDEST POP GAS STATICCALL ISZERO DUP1 ISZERO PUSH2 0x2BF8 JUMPI RETURNDATASIZE PUSH1 0x0 DUP1 RETURNDATACOPY RETURNDATASIZE PUSH1 0x0 REVERT JUMPDEST POP POP POP POP PUSH1 0x40 MLOAD RETURNDATASIZE PUSH1 0x1F NOT PUSH1 0x1F DUP3 ADD AND DUP3 ADD DUP1 PUSH1 0x40 MSTORE POP DUP2 ADD SWAP1 PUSH2 0x2C1C SWAP2 SWAP1 PUSH2 0x2F8F JUMP JUMPDEST ISZERO PUSH2 0x2C43 JUMPI PUSH2 0x2C3C PUSH2 0x2710 PUSH2 0x1352 PUSH1 0x12 SLOAD DUP7 PUSH2 0x1753 SWAP1 SWAP2 SWAP1 PUSH4 0xFFFFFFFF AND JUMP JUMPDEST SWAP1 POP PUSH2 0x7E6 JUMP JUMPDEST PUSH2 0x2C3C PUSH2 0x2710 PUSH2 0x1352 PUSH1 0x10 SLOAD DUP7 PUSH2 0x1753 SWAP1 SWAP2 SWAP1 PUSH4 0xFFFFFFFF AND JUMP JUMPDEST DUP5 PUSH1 0x1 PUSH1 0x1 PUSH1 0xA0 SHL SUB DUP2 AND PUSH4 0xE8E33700 ADDRESS DUP6 DUP8 DUP7 PUSH1 0x0 DUP1 DUP13 PUSH2 0x2C82 TIMESTAMP PUSH2 0x168 PUSH2 0x309C JUMP JUMPDEST PUSH1 0x40 MLOAD PUSH1 0xE0 DUP11 SWAP1 SHL PUSH32 0xFFFFFFFF00000000000000000000000000000000000000000000000000000000 AND DUP2 MSTORE PUSH1 0x1 PUSH1 0x1 PUSH1 0xA0 SHL SUB SWAP9 DUP10 AND PUSH1 0x4 DUP3 ADD MSTORE SWAP7 DUP9 AND PUSH1 0x24 DUP9 ADD MSTORE PUSH1 0x44 DUP8 ADD SWAP6 SWAP1 SWAP6 MSTORE PUSH1 0x64 DUP7 ADD SWAP4 SWAP1 SWAP4 MSTORE PUSH1 0x84 DUP6 ADD SWAP2 SWAP1 SWAP2 MSTORE PUSH1 0xA4 DUP5 ADD MSTORE SWAP1 SWAP3 AND PUSH1 0xC4 DUP3 ADD MSTORE PUSH1 0xE4 DUP2 ADD SWAP2 SWAP1 SWAP2 MSTORE PUSH2 0x104 ADD PUSH1 0x60 PUSH1 0x40 MLOAD DUP1 DUP4 SUB DUP2 PUSH1 0x0 DUP8 DUP1 EXTCODESIZE ISZERO DUP1 ISZERO PUSH2 0x2D11 JUMPI PUSH1 0x0 DUP1 REVERT JUMPDEST POP GAS CALL ISZERO DUP1 ISZERO PUSH2 0x2D25 JUMPI RETURNDATASIZE PUSH1 0x0 DUP1 RETURNDATACOPY RETURNDATASIZE PUSH1 0x0 REVERT JUMPDEST POP POP POP POP PUSH1 0x40 MLOAD RETURNDATASIZE PUSH1 0x1F NOT PUSH1 0x1F DUP3 ADD AND DUP3 ADD DUP1 PUSH1 0x40 MSTORE POP DUP2 ADD SWAP1 PUSH2 0x2D49 SWAP2 SWAP1 PUSH2 0x301C JUMP JUMPDEST POP POP POP POP POP POP POP POP POP JUMP JUMPDEST DUP3 DUP1 SLOAD DUP3 DUP3 SSTORE SWAP1 PUSH1 0x0 MSTORE PUSH1 0x20 PUSH1 0x0 KECCAK256 SWAP1 DUP2 ADD SWAP3 DUP3 ISZERO PUSH2 0x2D94 JUMPI PUSH1 0x0 MSTORE PUSH1 0x20 PUSH1 0x0 KECCAK256 SWAP2 DUP3 ADD JUMPDEST DUP3 DUP2 GT ISZERO PUSH2 0x2D94 JUMPI DUP3 SLOAD DUP3 SSTORE SWAP2 PUSH1 0x1 ADD SWAP2 SWAP1 PUSH1 0x1 ADD SWAP1 PUSH2 0x2D79 JUMP JUMPDEST POP PUSH2 0x2DA0 SWAP3 SWAP2 POP PUSH2 0x2DE4 JUMP JUMPDEST POP SWAP1 JUMP JUMPDEST DUP3 DUP1 SLOAD DUP3 DUP3 SSTORE SWAP1 PUSH1 0x0 MSTORE PUSH1 0x20 PUSH1 0x0 KECCAK256 SWAP1 DUP2 ADD SWAP3 DUP3 ISZERO PUSH2 0x2D94 JUMPI SWAP2 PUSH1 0x20 MUL DUP3 ADD JUMPDEST DUP3 DUP2 GT ISZERO PUSH2 0x2D94 JUMPI DUP3 MLOAD DUP3 SWAP1 PUSH1 0xFF AND SWAP1 SSTORE SWAP2 PUSH1 0x20 ADD SWAP2 SWAP1 PUSH1 0x1 ADD SWAP1 PUSH2 0x2DC4 JUMP JUMPDEST JUMPDEST DUP1 DUP3 GT ISZERO PUSH2 0x2DA0 JUMPI PUSH1 0x0 DUP2 SSTORE PUSH1 0x1 ADD PUSH2 0x2DE5 JUMP JUMPDEST DUP1 MLOAD PUSH2 0x2E04 DUP2 PUSH2 0x31AA JUMP JUMPDEST SWAP2 SWAP1 POP JUMP JUMPDEST PUSH1 0x0 PUSH1 0x20 DUP3 DUP5 SUB SLT ISZERO PUSH2 0x2E1A JUMPI DUP1 DUP2 REVERT JUMPDEST DUP2 CALLDATALOAD PUSH2 0x84F DUP2 PUSH2 0x31AA JUMP JUMPDEST PUSH1 0x0 DUP1 PUSH1 0x40 DUP4 DUP6 SUB SLT ISZERO PUSH2 0x2E37 JUMPI DUP1 DUP2 REVERT JUMPDEST DUP3 CALLDATALOAD PUSH2 0x2E42 DUP2 PUSH2 0x31AA JUMP JUMPDEST SWAP2 POP PUSH1 0x20 DUP4 ADD CALLDATALOAD PUSH2 0x2E52 DUP2 PUSH2 0x31AA JUMP JUMPDEST DUP1 SWAP2 POP POP SWAP3 POP SWAP3 SWAP1 POP JUMP JUMPDEST PUSH1 0x0 DUP1 PUSH1 0x0 PUSH1 0x60 DUP5 DUP7 SUB SLT ISZERO PUSH2 0x2E71 JUMPI DUP1 DUP2 REVERT JUMPDEST DUP4 CALLDATALOAD PUSH2 0x2E7C DUP2 PUSH2 0x31AA JUMP JUMPDEST SWAP3 POP PUSH1 0x20 DUP5 ADD CALLDATALOAD PUSH2 0x2E8C DUP2 PUSH2 0x31AA JUMP JUMPDEST SWAP3 SWAP6 SWAP3 SWAP5 POP POP POP PUSH1 0x40 SWAP2 SWAP1 SWAP2 ADD CALLDATALOAD SWAP1 JUMP JUMPDEST PUSH1 0x0 DUP1 PUSH1 0x40 DUP4 DUP6 SUB SLT ISZERO PUSH2 0x2EAF JUMPI DUP2 DUP3 REVERT JUMPDEST DUP3 CALLDATALOAD PUSH2 0x2EBA DUP2 PUSH2 0x31AA JUMP JUMPDEST SWAP5 PUSH1 0x20 SWAP4 SWAP1 SWAP4 ADD CALLDATALOAD SWAP4 POP POP POP JUMP JUMPDEST PUSH1 0x0 PUSH1 0x20 DUP1 DUP4 DUP6 SUB SLT ISZERO PUSH2 0x2EDA JUMPI DUP2 DUP3 REVERT JUMPDEST DUP3 MLOAD PUSH8 0xFFFFFFFFFFFFFFFF DUP1 DUP3 GT ISZERO PUSH2 0x2EF1 JUMPI DUP4 DUP5 REVERT JUMPDEST DUP2 DUP6 ADD SWAP2 POP DUP6 PUSH1 0x1F DUP4 ADD SLT PUSH2 0x2F04 JUMPI DUP4 DUP5 REVERT JUMPDEST DUP2 MLOAD DUP2 DUP2 GT ISZERO PUSH2 0x2F16 JUMPI PUSH2 0x2F16 PUSH2 0x3194 JUMP JUMPDEST DUP1 PUSH1 0x5 SHL PUSH1 0x40 MLOAD PUSH1 0x1F NOT PUSH1 0x3F DUP4 ADD AND DUP2 ADD DUP2 DUP2 LT DUP6 DUP3 GT OR ISZERO PUSH2 0x2F3B JUMPI PUSH2 0x2F3B PUSH2 0x3194 JUMP JUMPDEST PUSH1 0x40 MSTORE DUP3 DUP2 MSTORE DUP6 DUP2 ADD SWAP4 POP DUP5 DUP7 ADD DUP3 DUP7 ADD DUP8 ADD DUP11 LT ISZERO PUSH2 0x2F59 JUMPI DUP8 DUP9 REVERT JUMPDEST DUP8 SWAP6 POP JUMPDEST DUP4 DUP7 LT ISZERO PUSH2 0x2F82 JUMPI PUSH2 0x2F6E DUP2 PUSH2 0x2DF9 JUMP JUMPDEST DUP6 MSTORE PUSH1 0x1 SWAP6 SWAP1 SWAP6 ADD SWAP5 SWAP4 DUP7 ADD SWAP4 DUP7 ADD PUSH2 0x2F5D JUMP JUMPDEST POP SWAP9 SWAP8 POP POP POP POP POP POP POP POP JUMP JUMPDEST PUSH1 0x0 PUSH1 0x20 DUP3 DUP5 SUB SLT ISZERO PUSH2 0x2FA0 JUMPI DUP1 DUP2 REVERT JUMPDEST DUP2 MLOAD PUSH2 0x84F DUP2 PUSH2 0x31BF JUMP JUMPDEST PUSH1 0x0 PUSH1 0x20 DUP3 DUP5 SUB SLT ISZERO PUSH2 0x2FBC JUMPI DUP1 DUP2 REVERT JUMPDEST POP CALLDATALOAD SWAP2 SWAP1 POP JUMP JUMPDEST PUSH1 0x0 PUSH1 0x20 DUP3 DUP5 SUB SLT ISZERO PUSH2 0x2FD4 JUMPI DUP1 DUP2 REVERT JUMPDEST POP MLOAD SWAP2 SWAP1 POP JUMP JUMPDEST PUSH1 0x0 DUP1 PUSH1 0x0 PUSH1 0x60 DUP5 DUP7 SUB SLT ISZERO PUSH2 0x2FEF JUMPI DUP3 DUP4 REVERT JUMPDEST DUP4 CALLDATALOAD SWAP3 POP PUSH1 0x20 DUP5 ADD CALLDATALOAD PUSH2 0x3001 DUP2 PUSH2 0x31BF JUMP JUMPDEST SWAP2 POP PUSH1 0x40 DUP5 ADD CALLDATALOAD PUSH2 0x3011 DUP2 PUSH2 0x31AA JUMP JUMPDEST DUP1 SWAP2 POP POP SWAP3 POP SWAP3 POP SWAP3 JUMP JUMPDEST PUSH1 0x0 DUP1 PUSH1 0x0 PUSH1 0x60 DUP5 DUP7 SUB SLT ISZERO PUSH2 0x3030 JUMPI DUP3 DUP4 REVERT JUMPDEST DUP4 MLOAD SWAP3 POP PUSH1 0x20 DUP5 ADD MLOAD SWAP2 POP PUSH1 0x40 DUP5 ADD MLOAD SWAP1 POP SWAP3 POP SWAP3 POP SWAP3 JUMP JUMPDEST PUSH1 0x0 PUSH1 0x20 DUP1 DUP4 MSTORE DUP4 MLOAD DUP1 DUP3 DUP6 ADD MSTORE DUP3 JUMPDEST DUP2 DUP2 LT ISZERO PUSH2 0x3075 JUMPI DUP6 DUP2 ADD DUP4 ADD MLOAD DUP6 DUP3 ADD PUSH1 0x40 ADD MSTORE DUP3 ADD PUSH2 0x3059 JUMP JUMPDEST DUP2 DUP2 GT ISZERO PUSH2 0x3086 JUMPI DUP4 PUSH1 0x40 DUP4 DUP8 ADD ADD MSTORE JUMPDEST POP PUSH1 0x1F ADD PUSH1 0x1F NOT AND SWAP3 SWAP1 SWAP3 ADD PUSH1 0x40 ADD SWAP4 SWAP3 POP POP POP JUMP JUMPDEST PUSH1 0x0 DUP3 NOT DUP3 GT ISZERO PUSH2 0x30AF JUMPI PUSH2 0x30AF PUSH2 0x3168 JUMP JUMPDEST POP ADD SWAP1 JUMP JUMPDEST PUSH1 0x0 DUP3 PUSH2 0x30C3 JUMPI PUSH2 0x30C3 PUSH2 0x317E JUMP JUMPDEST POP DIV SWAP1 JUMP JUMPDEST PUSH1 0x0 DUP2 PUSH1 0x0 NOT DIV DUP4 GT DUP3 ISZERO ISZERO AND ISZERO PUSH2 0x30E2 JUMPI PUSH2 0x30E2 PUSH2 0x3168 JUMP JUMPDEST POP MUL SWAP1 JUMP JUMPDEST PUSH1 0x0 DUP3 DUP3 LT ISZERO PUSH2 0x30F9 JUMPI PUSH2 0x30F9 PUSH2 0x3168 JUMP JUMPDEST POP SUB SWAP1 JUMP JUMPDEST PUSH1 0x1 DUP2 DUP2 SHR SWAP1 DUP3 AND DUP1 PUSH2 0x3112 JUMPI PUSH1 0x7F DUP3 AND SWAP2 POP JUMPDEST PUSH1 0x20 DUP3 LT DUP2 EQ ISZERO PUSH2 0x3133 JUMPI PUSH4 0x4E487B71 PUSH1 0xE0 SHL PUSH1 0x0 MSTORE PUSH1 0x22 PUSH1 0x4 MSTORE PUSH1 0x24 PUSH1 0x0 REVERT JUMPDEST POP SWAP2 SWAP1 POP JUMP JUMPDEST PUSH1 0x0 PUSH1 0x0 NOT DUP3 EQ ISZERO PUSH2 0x314D JUMPI PUSH2 0x314D PUSH2 0x3168 JUMP JUMPDEST POP PUSH1 0x1 ADD SWAP1 JUMP JUMPDEST PUSH1 0x0 DUP3 PUSH2 0x3163 JUMPI PUSH2 0x3163 PUSH2 0x317E JUMP JUMPDEST POP MOD SWAP1 JUMP JUMPDEST PUSH4 0x4E487B71 PUSH1 0xE0 SHL PUSH1 0x0 MSTORE PUSH1 0x11 PUSH1 0x4 MSTORE PUSH1 0x24 PUSH1 0x0 REVERT JUMPDEST PUSH4 0x4E487B71 PUSH1 0xE0 SHL PUSH1 0x0 MSTORE PUSH1 0x12 PUSH1 0x4 MSTORE PUSH1 0x24 PUSH1 0x0 REVERT JUMPDEST PUSH4 0x4E487B71 PUSH1 0xE0 SHL PUSH1 0x0 MSTORE PUSH1 0x41 PUSH1 0x4 MSTORE PUSH1 0x24 PUSH1 0x0 REVERT JUMPDEST PUSH1 0x1 PUSH1 0x1 PUSH1 0xA0 SHL SUB DUP2 AND DUP2 EQ PUSH2 0x1750 JUMPI PUSH1 0x0 DUP1 REVERT JUMPDEST DUP1 ISZERO ISZERO DUP2 EQ PUSH2 0x1750 JUMPI PUSH1 0x0 DUP1 REVERT INVALID GASLIMIT MSTORE NUMBER ORIGIN ADDRESS GASPRICE KECCAK256 PUSH21 0x72616E7366657220616D6F756E7420657863656564 PUSH20 0x20616C6C6F77616E63654F776E61626C653A2063 PUSH2 0x6C6C PUSH6 0x72206973206E PUSH16 0x7420746865206F776E65724552433230 GASPRICE KECCAK256 PUSH5 0x6563726561 PUSH20 0x656420616C6C6F77616E63652062656C6F77207A PUSH6 0x726FA2646970 PUSH7 0x735822122003E5 0xE5 0xD1 PUSH2 0x613F 0xE1 0xBD PUSH5 0x206734EA86 0xDB PC 0xF9 DUP7 0x2F DUP16 MUL MULMOD 0xDB DUP9 PUSH21 0x292CCE42379964736F6C6343000804003300000000 "
        },
        "methodIdentifiers": {
          "_maxTxAmount()": "7d1db4a5",
          "_rewardFee()": "51fde4bb",
          "_taxFee()": "3b124fe7",
          "_taxNFTFee()": "c0371236",
          "allowance(address,address)": "dd62ed3e",
          "approve(address,uint256)": "095ea7b3",
          "autoLiquidity()": "52dc21d7",
          "balanceOf(address)": "70a08231",
          "charityMinimum()": "305bfa8c",
          "dailyAddress()": "1a6d7617",
          "decimals()": "313ce567",
          "decreaseAllowance(address,uint256)": "a457c2d7",
          "excludeFromFee(address)": "437823ec",
          "excludeFromReward(address)": "52390c02",
          "hourlyAddress()": "2ffcd37b",
          "iBCNFT()": "9035a211",
          "includeInFee(address)": "ea2f0b37",
          "includeInReward(address)": "3685d419",
          "increaseAllowance(address,uint256)": "39509351",
          "isExcludedFromFee(address)": "5342acb4",
          "isExcludedFromReward(address)": "88f82020",
          "levelFees(uint256)": "ce03d3df",
          "lotteryDaily()": "33fddf9a",
          "lotteryHourly()": "5be7aad6",
          "lotteryLimitAmount()": "5dacf9a3",
          "lotteryTransfer(address)": "7867a1c2",
          "name()": "06fdde03",
          "owner()": "8da5cb5b",
          "pancakePair()": "b8c9d25c",
          "pancakeRouter()": "c21ebd07",
          "pausedLottery()": "6cd8ceb5",
          "presaleEndsIn()": "a400fc21",
          "reflectionFromToken(uint256,bool,address)": "b120200a",
          "renounceOwnership()": "715018a6",
          "selectWinner(uint256)": "4c524be4",
          "setLotteryAddress(address,address)": "9d88f3a1",
          "setLotteryLimit(uint256)": "6b2d7a1a",
          "setLotteryState()": "ecf50135",
          "setMaxTxPercent(uint256)": "d543dbeb",
          "setTaxFeePercent(uint256)": "061c82d0",
          "symbol()": "95d89b41",
          "tokenFromReflection(uint256)": "2d838119",
          "totalFees()": "13114a9d",
          "totalSupply()": "18160ddd",
          "transfer(address,uint256)": "a9059cbb",
          "transferFrom(address,address,uint256)": "23b872dd",
          "transferOwnership(address)": "f2fde38b",
          "usdtAddress()": "9ab4a445"
        }
      }
    }
  }
}