{
  "_format": "hh-sol-artifact-1",
  "contractName": "BCNFT",
  "sourceName": "contracts/BCNFT.sol",
  "abi": [
    {
      "inputs": [],
      "stateMutability": "nonpayable",
      "type": "constructor"
    },
    {
      "anonymous": false,
      "inputs": [
        {
          "indexed": true,
          "internalType": "address",
          "name": "owner",
          "type": "address"
        },
        {
          "indexed": true,
          "internalType": "address",
          "name": "approved",
          "type": "address"
        },
        {
          "indexed": true,
          "internalType": "uint256",
          "name": "tokenId",
          "type": "uint256"
        }
      ],
      "name": "Approval",
      "type": "event"
    },
    {
      "anonymous": false,
      "inputs": [
        {
          "indexed": true,
          "internalType": "address",
          "name": "owner",
          "type": "address"
        },
        {
          "indexed": true,
          "internalType": "address",
          "name": "operator",
          "type": "address"
        },
        {
          "indexed": false,
          "internalType": "bool",
          "name": "approved",
          "type": "bool"
        }
      ],
      "name": "ApprovalForAll",
      "type": "event"
    },
    {
      "anonymous": false,
      "inputs": [
        {
          "indexed": true,
          "internalType": "address",
          "name": "previousOwner",
          "type": "address"
        },
        {
          "indexed": true,
          "internalType": "address",
          "name": "newOwner",
          "type": "address"
        }
      ],
      "name": "OwnershipTransferred",
      "type": "event"
    },
    {
      "anonymous": false,
      "inputs": [
        {
          "indexed": true,
          "internalType": "address",
          "name": "from",
          "type": "address"
        },
        {
          "indexed": true,
          "internalType": "address",
          "name": "to",
          "type": "address"
        },
        {
          "indexed": true,
          "internalType": "uint256",
          "name": "tokenId",
          "type": "uint256"
        }
      ],
      "name": "Transfer",
      "type": "event"
    },
    {
      "inputs": [
        {
          "internalType": "address",
          "name": "to",
          "type": "address"
        },
        {
          "internalType": "uint256",
          "name": "tokenId",
          "type": "uint256"
        }
      ],
      "name": "approve",
      "outputs": [],
      "stateMutability": "nonpayable",
      "type": "function"
    },
    {
      "inputs": [
        {
          "internalType": "address",
          "name": "account",
          "type": "address"
        }
      ],
      "name": "balanceOf",
      "outputs": [
        {
          "internalType": "uint256",
          "name": "",
          "type": "uint256"
        }
      ],
      "stateMutability": "view",
      "type": "function"
    },
    {
      "inputs": [],
      "name": "baseURI",
      "outputs": [
        {
          "internalType": "string",
          "name": "",
          "type": "string"
        }
      ],
      "stateMutability": "view",
      "type": "function"
    },
    {
      "inputs": [
        {
          "internalType": "uint256",
          "name": "tokenId",
          "type": "uint256"
        }
      ],
      "name": "burn",
      "outputs": [],
      "stateMutability": "nonpayable",
      "type": "function"
    },
    {
      "inputs": [
        {
          "internalType": "address",
          "name": "_account",
          "type": "address"
        }
      ],
      "name": "checkAccountLevel",
      "outputs": [
        {
          "internalType": "uint256",
          "name": "",
          "type": "uint256"
        }
      ],
      "stateMutability": "view",
      "type": "function"
    },
    {
      "inputs": [
        {
          "internalType": "address",
          "name": "_account",
          "type": "address"
        }
      ],
      "name": "checkNFTHolder",
      "outputs": [
        {
          "internalType": "bool",
          "name": "",
          "type": "bool"
        }
      ],
      "stateMutability": "view",
      "type": "function"
    },
    {
      "inputs": [
        {
          "internalType": "uint256",
          "name": "_tokenId",
          "type": "uint256"
        }
      ],
      "name": "creatorOf",
      "outputs": [
        {
          "internalType": "address",
          "name": "",
          "type": "address"
        }
      ],
      "stateMutability": "view",
      "type": "function"
    },
    {
      "inputs": [
        {
          "internalType": "uint256",
          "name": "tokenId",
          "type": "uint256"
        }
      ],
      "name": "getApproved",
      "outputs": [
        {
          "internalType": "address",
          "name": "",
          "type": "address"
        }
      ],
      "stateMutability": "view",
      "type": "function"
    },
    {
      "inputs": [],
      "name": "getHolders",
      "outputs": [
        {
          "internalType": "address[]",
          "name": "",
          "type": "address[]"
        }
      ],
      "stateMutability": "view",
      "type": "function"
    },
    {
      "inputs": [
        {
          "internalType": "uint256",
          "name": "_id",
          "type": "uint256"
        }
      ],
      "name": "getTokenLevel",
      "outputs": [
        {
          "internalType": "uint256",
          "name": "",
          "type": "uint256"
        }
      ],
      "stateMutability": "view",
      "type": "function"
    },
    {
      "inputs": [
        {
          "internalType": "address",
          "name": "owner",
          "type": "address"
        },
        {
          "internalType": "address",
          "name": "operator",
          "type": "address"
        }
      ],
      "name": "isApprovedForAll",
      "outputs": [
        {
          "internalType": "bool",
          "name": "",
          "type": "bool"
        }
      ],
      "stateMutability": "view",
      "type": "function"
    },
    {
      "inputs": [
        {
          "internalType": "uint256",
          "name": "_level",
          "type": "uint256"
        },
        {
          "internalType": "address",
          "name": "_to",
          "type": "address"
        }
      ],
      "name": "mint",
      "outputs": [
        {
          "internalType": "uint256",
          "name": "",
          "type": "uint256"
        }
      ],
      "stateMutability": "nonpayable",
      "type": "function"
    },
    {
      "inputs": [],
      "name": "name",
      "outputs": [
        {
          "internalType": "string",
          "name": "",
          "type": "string"
        }
      ],
      "stateMutability": "view",
      "type": "function"
    },
    {
      "inputs": [],
      "name": "owner",
      "outputs": [
        {
          "internalType": "address",
          "name": "",
          "type": "address"
        }
      ],
      "stateMutability": "view",
      "type": "function"
    },
    {
      "inputs": [
        {
          "internalType": "uint256",
          "name": "_tokenId",
          "type": "uint256"
        }
      ],
      "name": "ownerOf",
      "outputs": [
        {
          "internalType": "address",
          "name": "",
          "type": "address"
        }
      ],
      "stateMutability": "view",
      "type": "function"
    },
    {
      "inputs": [],
      "name": "renounceOwnership",
      "outputs": [],
      "stateMutability": "nonpayable",
      "type": "function"
    },
    {
      "inputs": [
        {
          "internalType": "address",
          "name": "from",
          "type": "address"
        },
        {
          "internalType": "address",
          "name": "to",
          "type": "address"
        },
        {
          "internalType": "uint256",
          "name": "tokenId",
          "type": "uint256"
        }
      ],
      "name": "safeTransferFrom",
      "outputs": [],
      "stateMutability": "nonpayable",
      "type": "function"
    },
    {
      "inputs": [
        {
          "internalType": "address",
          "name": "from",
          "type": "address"
        },
        {
          "internalType": "address",
          "name": "to",
          "type": "address"
        },
        {
          "internalType": "uint256",
          "name": "tokenId",
          "type": "uint256"
        },
        {
          "internalType": "bytes",
          "name": "_data",
          "type": "bytes"
        }
      ],
      "name": "safeTransferFrom",
      "outputs": [],
      "stateMutability": "nonpayable",
      "type": "function"
    },
    {
      "inputs": [
        {
          "internalType": "address",
          "name": "operator",
          "type": "address"
        },
        {
          "internalType": "bool",
          "name": "approved",
          "type": "bool"
        }
      ],
      "name": "setApprovalForAll",
      "outputs": [],
      "stateMutability": "nonpayable",
      "type": "function"
    },
    {
      "inputs": [
        {
          "internalType": "string",
          "name": "_baseTokenURI",
          "type": "string"
        }
      ],
      "name": "setBaseTokenURI",
      "outputs": [],
      "stateMutability": "nonpayable",
      "type": "function"
    },
    {
      "inputs": [
        {
          "internalType": "uint256",
          "name": "_tokenId",
          "type": "uint256"
        },
        {
          "internalType": "string",
          "name": "_tokenURI",
          "type": "string"
        }
      ],
      "name": "setTokenURI",
      "outputs": [],
      "stateMutability": "nonpayable",
      "type": "function"
    },
    {
      "inputs": [
        {
          "internalType": "bytes4",
          "name": "interfaceId",
          "type": "bytes4"
        }
      ],
      "name": "supportsInterface",
      "outputs": [
        {
          "internalType": "bool",
          "name": "",
          "type": "bool"
        }
      ],
      "stateMutability": "view",
      "type": "function"
    },
    {
      "inputs": [],
      "name": "symbol",
      "outputs": [
        {
          "internalType": "string",
          "name": "",
          "type": "string"
        }
      ],
      "stateMutability": "view",
      "type": "function"
    },
    {
      "inputs": [
        {
          "internalType": "uint256",
          "name": "tokenId",
          "type": "uint256"
        }
      ],
      "name": "tokenURI",
      "outputs": [
        {
          "internalType": "string",
          "name": "",
          "type": "string"
        }
      ],
      "stateMutability": "view",
      "type": "function"
    },
    {
      "inputs": [],
      "name": "totalSupply",
      "outputs": [
        {
          "internalType": "uint256",
          "name": "",
          "type": "uint256"
        }
      ],
      "stateMutability": "view",
      "type": "function"
    },
    {
      "inputs": [
        {
          "internalType": "address",
          "name": "from",
          "type": "address"
        },
        {
          "internalType": "address",
          "name": "to",
          "type": "address"
        },
        {
          "internalType": "uint256",
          "name": "tokenId",
          "type": "uint256"
        }
      ],
      "name": "transferFrom",
      "outputs": [],
      "stateMutability": "nonpayable",
      "type": "function"
    },
    {
      "inputs": [
        {
          "internalType": "address",
          "name": "newOwner",
          "type": "address"
        }
      ],
      "name": "transferOwnership",
      "outputs": [],
      "stateMutability": "nonpayable",
      "type": "function"
    }
  ],
  "bytecode": "0x60806040526000600855633b9ac9ff6009553480156200001e57600080fd5b50604080518082018252600b81526a2129a7232a102a37b5b2b760a91b6020808301918252835180850190945260048452631094d39560e21b9084015281519192916200006e91600091620000fd565b50805162000084906001906020840190620000fd565b505050620000a16200009b620000a760201b60201c565b620000ab565b620001e0565b3390565b600680546001600160a01b038381166001600160a01b0319831681179093556040519116919082907f8be0079c531659141344cd1fd0a4f28419497f9722a3daafe3b4186f6b6457e090600090a35050565b8280546200010b90620001a3565b90600052602060002090601f0160209004810192826200012f57600085556200017a565b82601f106200014a57805160ff19168380011785556200017a565b828001600101855582156200017a579182015b828111156200017a5782518255916020019190600101906200015d565b50620001889291506200018c565b5090565b5b808211156200018857600081556001016200018d565b600181811c90821680620001b857607f821691505b60208210811415620001da57634e487b7160e01b600052602260045260246000fd5b50919050565b6125aa80620001f06000396000f3fe608060405234801561001057600080fd5b50600436106101b95760003560e01c80636352211e116100f9578063a22cb46511610097578063d011645c11610071578063d011645c146103cd578063df611083146103e0578063e985e9c5146103f3578063f2fde38b1461042f57600080fd5b8063a22cb46514610394578063b88d4fde146103a7578063c87b56dd146103ba57600080fd5b8063715018a6116100d3578063715018a6146103605780638da5cb5b1461036857806394bf804d1461037957806395d89b411461038c57600080fd5b80636352211e1461031c5780636c0360eb1461032f57806370a082311461033757600080fd5b806323b872dd1161016657806342966c681161014057806342966c6814610299578063589a1743146102ac5780635fe8e7cc146102d857806361f7ffaf146102ed57600080fd5b806323b872dd1461026057806330176e131461027357806342842e0e1461028657600080fd5b8063095ea7b311610197578063095ea7b314610226578063162094c41461023b57806318160ddd1461024e57600080fd5b806301ffc9a7146101be57806306fdde03146101e6578063081812fc146101fb575b600080fd5b6101d16101cc36600461224b565b610442565b60405190151581526020015b60405180910390f35b6101ee6104df565b6040516101dd9190612419565b61020e6102093660046122b6565b610571565b6040516001600160a01b0390911681526020016101dd565b610239610234366004612222565b61060b565b005b6102396102493660046122f0565b61073d565b6008545b6040519081526020016101dd565b61023961026e366004612134565b6107c5565b610239610281366004612283565b61084c565b610239610294366004612134565b6108bd565b6102396102a73660046122b6565b6108d8565b61020e6102ba3660046122b6565b6000908152600c60205260409020600101546001600160a01b031690565b6102e06108e4565b6040516101dd91906123cc565b6101d16102fb3660046120e8565b6001600160a01b03166000908152600b602052604090206001015460ff1690565b61020e61032a3660046122b6565b610945565b6101ee6109bf565b6102526103453660046120e8565b6001600160a01b03166000908152600d602052604090205490565b6102396109ce565b6006546001600160a01b031661020e565b6102526103873660046122ce565b610a34565b6101ee610ae8565b6102396103a23660046121e8565b610af7565b6102396103b536600461216f565b610bbc565b6101ee6103c83660046122b6565b610c4a565b6102526103db3660046122b6565b610d40565b6102526103ee3660046120e8565b610da9565b6101d1610401366004612102565b6001600160a01b03918216600090815260056020908152604080832093909416825291909152205460ff1690565b61023961043d3660046120e8565b611071565b60006001600160e01b031982167f80ac58cd0000000000000000000000000000000000000000000000000000000014806104a557506001600160e01b031982167f5b5e139f00000000000000000000000000000000000000000000000000000000145b806104d957507f01ffc9a7000000000000000000000000000000000000000000000000000000006001600160e01b03198316145b92915050565b6060600080546104ee906124b2565b80601f016020809104026020016040519081016040528092919081815260200182805461051a906124b2565b80156105675780601f1061053c57610100808354040283529160200191610567565b820191906000526020600020905b81548152906001019060200180831161054a57829003601f168201915b5050505050905090565b6000818152600260205260408120546001600160a01b03166105ef5760405162461bcd60e51b815260206004820152602c60248201527f4552433732313a20617070726f76656420717565727920666f72206e6f6e657860448201526b34b9ba32b73a103a37b5b2b760a11b60648201526084015b60405180910390fd5b506000908152600460205260409020546001600160a01b031690565b600061061682611150565b9050806001600160a01b0316836001600160a01b031614156106a05760405162461bcd60e51b815260206004820152602160248201527f4552433732313a20617070726f76616c20746f2063757272656e74206f776e6560448201527f720000000000000000000000000000000000000000000000000000000000000060648201526084016105e6565b336001600160a01b03821614806106bc57506106bc8133610401565b61072e5760405162461bcd60e51b815260206004820152603860248201527f4552433732313a20617070726f76652063616c6c6572206973206e6f74206f7760448201527f6e6572206e6f7220617070726f76656420666f7220616c6c000000000000000060648201526084016105e6565b61073883836111c7565b505050565b61074682610945565b6001600160a01b0316336001600160a01b0316146107a65760405162461bcd60e51b815260206004820152601760248201527f556e61626c6520746f2073657420746f6b656e2055524900000000000000000060448201526064016105e6565b6000828152601060209081526040909120825161073892840190611f68565b6107cf3382611235565b6108415760405162461bcd60e51b815260206004820152603160248201527f4552433732313a207472616e736665722063616c6c6572206973206e6f74206f60448201527f776e6572206e6f7220617070726f76656400000000000000000000000000000060648201526084016105e6565b61073883838361132c565b6006546001600160a01b031633146108a65760405162461bcd60e51b815260206004820181905260248201527f4f776e61626c653a2063616c6c6572206973206e6f7420746865206f776e657260448201526064016105e6565b80516108b9906007906020840190611f68565b5050565b61073883838360405180602001604052806000815250610bbc565b6108e181611553565b50565b6060600a80548060200260200160405190810160405280929190818152602001828054801561056757602002820191906000526020600020905b81546001600160a01b0316815260019091019060200180831161091e575050505050905090565b6000818152600c60205260408120600201546001600160a01b0316806104d95760405162461bcd60e51b815260206004820152602960248201527f4552433732313a206f776e657220717565727920666f72206e6f6e657869737460448201526832b73a103a37b5b2b760b91b60648201526084016105e6565b6060600780546104ee906124b2565b6006546001600160a01b03163314610a285760405162461bcd60e51b815260206004820181905260248201527f4f776e61626c653a2063616c6c6572206973206e6f7420746865206f776e657260448201526064016105e6565b610a326000611593565b565b60088054600091819083610a47836124ed565b90915550506001600160a01b0383166000908152600d60205260408120805460019290610a7590849061242c565b90915550506000818152600c602052604090208181556001810180546001600160a01b0386166001600160a01b03199182168117909255600283018054909116909117905560038101859055610acb84836115e5565b610ad4846115ff565b610ae084836001611841565b509392505050565b6060600180546104ee906124b2565b6001600160a01b038216331415610b505760405162461bcd60e51b815260206004820152601960248201527f4552433732313a20617070726f766520746f2063616c6c65720000000000000060448201526064016105e6565b3360008181526005602090815260408083206001600160a01b03871680855290835292819020805460ff191686151590811790915590519081529192917f17307eab39ab6107e8899845ad3d59bd9653f200f220920489ca2b5937696c31910160405180910390a35050565b610bc63383611235565b610c385760405162461bcd60e51b815260206004820152603160248201527f4552433732313a207472616e736665722063616c6c6572206973206e6f74206f60448201527f776e6572206e6f7220617070726f76656400000000000000000000000000000060648201526084016105e6565b610c44848484846119e9565b50505050565b6000818152600260205260409020546060906001600160a01b0316610cd75760405162461bcd60e51b815260206004820152602f60248201527f4552433732314d657461646174613a2055524920717565727920666f72206e6f60448201527f6e6578697374656e7420746f6b656e000000000000000000000000000000000060648201526084016105e6565b6000610cee60408051602081019091526000815290565b90506000815111610d0e5760405180602001604052806000815250610d39565b80610d1884611a67565b604051602001610d29929190612361565b6040516020818303038152906040525b9392505050565b60006008548210610d935760405162461bcd60e51b815260206004820152601060248201527f4e6f6e20657869737420746f6b656e210000000000000000000000000000000060448201526064016105e6565b506000908152600c602052604090206003015490565b6001600160a01b0381166000908152600e60209081526040808320805482518185028101850190935280835284938493929190830182828015610e0b57602002820191906000526020600020905b815481526020019060010190808311610df7575b505050505090506000806000806000805b86518110156110345787600c6000898481518110610e4a57634e487b7160e01b600052603260045260246000fd5b60200260200101518152602001908152602001600020600301541115610eab57600c6000888381518110610e8e57634e487b7160e01b600052603260045260246000fd5b602002602001015181526020019081526020016000206003015497505b600c6000888381518110610ecf57634e487b7160e01b600052603260045260246000fd5b602002602001015181526020019081526020016000206003015460011415610ef657600195505b600c6000888381518110610f1a57634e487b7160e01b600052603260045260246000fd5b602002602001015181526020019081526020016000206003015460021415610f4157600194505b600c6000888381518110610f6557634e487b7160e01b600052603260045260246000fd5b602002602001015181526020019081526020016000206003015460031415610f8c57600193505b600c6000888381518110610fb057634e487b7160e01b600052603260045260246000fd5b602002602001015181526020019081526020016000206003015460041415610fd757600192505b600c6000888381518110610ffb57634e487b7160e01b600052603260045260246000fd5b60200260200101518152602001908152602001600020600301546005141561102257600191505b8061102c816124ed565b915050610e1c565b5084801561103f5750835b80156110485750825b80156110515750815b801561105a5750805b1561106457600696505b5094979650505050505050565b6006546001600160a01b031633146110cb5760405162461bcd60e51b815260206004820181905260248201527f4f776e61626c653a2063616c6c6572206973206e6f7420746865206f776e657260448201526064016105e6565b6001600160a01b0381166111475760405162461bcd60e51b815260206004820152602660248201527f4f776e61626c653a206e6577206f776e657220697320746865207a65726f206160448201527f646472657373000000000000000000000000000000000000000000000000000060648201526084016105e6565b6108e181611593565b6000818152600260205260408120546001600160a01b0316806104d95760405162461bcd60e51b815260206004820152602960248201527f4552433732313a206f776e657220717565727920666f72206e6f6e657869737460448201526832b73a103a37b5b2b760b91b60648201526084016105e6565b600081815260046020526040902080546001600160a01b0319166001600160a01b03841690811790915581906111fc82611150565b6001600160a01b03167f8c5be1e5ebec7d5bd14f71427d1e84f3dd0314c0f7b2291e5b200ac8c7c3b92560405160405180910390a45050565b6000818152600260205260408120546001600160a01b03166112ae5760405162461bcd60e51b815260206004820152602c60248201527f4552433732313a206f70657261746f7220717565727920666f72206e6f6e657860448201526b34b9ba32b73a103a37b5b2b760a11b60648201526084016105e6565b60006112b983611150565b9050806001600160a01b0316846001600160a01b031614806112f45750836001600160a01b03166112e984610571565b6001600160a01b0316145b8061132457506001600160a01b0380821660009081526005602090815260408083209388168352929052205460ff165b949350505050565b600854811061137d5760405162461bcd60e51b815260206004820152601260248201527f556e646566696e656420746f6b656e494421000000000000000000000000000060448201526064016105e6565b826001600160a01b031661139082610945565b6001600160a01b0316146113e65760405162461bcd60e51b815260206004820152601360248201527f43616c6c6572206973206e6f74206f776e65720000000000000000000000000060448201526064016105e6565b6001600160a01b0382166114615760405162461bcd60e51b8152602060048201526024808201527f4552433732313a207472616e7366657220746f20746865207a65726f2061646460448201527f726573730000000000000000000000000000000000000000000000000000000060648201526084016105e6565b61146c6000826111c7565b6000818152600c6020908152604080832060020180546001600160a01b0319166001600160a01b038781169190911790915586168352600d90915281208054916114b58361249b565b90915550506001600160a01b0382166000908152600d602052604081208054916114de836124ed565b91905055506114ec836115ff565b6114f883826002611841565b611501826115ff565b61150d82826001611841565b80826001600160a01b0316846001600160a01b03167fddf252ad1be2c89b69c2b068fc378daa952ba7f163c4a11628f55a4df523b3ef60405160405180910390a4505050565b61155c81611bb5565b60008181526010602052604090208054611575906124b2565b1590506108e15760008181526010602052604081206108e191611fec565b600680546001600160a01b038381166001600160a01b0319831681179093556040519116919082907f8be0079c531659141344cd1fd0a4f28419497f9722a3daafe3b4186f6b6457e090600090a35050565b6108b9828260405180602001604052806000815250611c50565b6001600160a01b0381166000908152600b602052604090206001015460ff1661169157600a80546001600160a01b0383166000818152600b602052604081209283556001928301805460ff19168417905583549283018455929092527fc65a7bb8d6351c1cf70c95a316cc6a92839c986682d98bc35f958f4883f9d2a80180546001600160a01b031916909117905550565b6001600160a01b0381166000908152600b602052604090206001015460ff1680156116d257506001600160a01b0381166000908152600d6020526040902054155b156108e1576001600160a01b0381166000908152600b6020526040902054600a805461170090600190612458565b8154811061171e57634e487b7160e01b600052603260045260246000fd5b600091825260209091200154600a80546001600160a01b03909216918390811061175857634e487b7160e01b600052603260045260246000fd5b9060005260206000200160006101000a8154816001600160a01b0302191690836001600160a01b03160217905550600a8054806117a557634e487b7160e01b600052603160045260246000fd5b6001900381819060005260206000200160006101000a8154906001600160a01b030219169055905580600b6000600a84815481106117f357634e487b7160e01b600052603260045260246000fd5b6000918252602080832091909101546001600160a01b039081168452838201949094526040928301822094909455600954959092168252600b9092522091825550600101805460ff19169055565b806001141561189b57506001600160a01b03919091166000908152600f60209081526040808320848155600e835290832080546001808401919091556002909201805460ff19168317905580549182018155835291200155565b6001600160a01b0383166000908152600f6020908152604080832060010154600e9092529091205415611968576001600160a01b0384166000908152600e6020526040902080546118ee90600190612458565b8154811061190c57634e487b7160e01b600052603260045260246000fd5b9060005260206000200154600e6000866001600160a01b03166001600160a01b03168152602001908152602001600020828154811061195b57634e487b7160e01b600052603260045260246000fd5b6000918252602090912001555b6001600160a01b0384166000908152600e6020526040902080548061199d57634e487b7160e01b600052603160045260246000fd5b6000828152602080822060001990840181018390559092019092556009546001600160a01b03969096168252600f9052604090206001810194909455505050600201805460ff19169055565b6119f484848461132c565b611a0084848484611cce565b610c445760405162461bcd60e51b815260206004820152603260248201527f4552433732313a207472616e7366657220746f206e6f6e20455243373231526560448201527131b2b4bb32b91034b6b83632b6b2b73a32b960711b60648201526084016105e6565b606081611aa757505060408051808201909152600181527f3000000000000000000000000000000000000000000000000000000000000000602082015290565b8160005b8115611ad15780611abb816124ed565b9150611aca9050600a83612444565b9150611aab565b60008167ffffffffffffffff811115611afa57634e487b7160e01b600052604160045260246000fd5b6040519080825280601f01601f191660200182016040528015611b24576020820181803683370190505b5090505b841561132457611b39600183612458565b9150611b46600a86612508565b611b5190603061242c565b60f81b818381518110611b7457634e487b7160e01b600052603260045260246000fd5b60200101907effffffffffffffffffffffffffffffffffffffffffffffffffffffffffffff1916908160001a905350611bae600a86612444565b9450611b28565b6000611bc082611150565b9050611bcd6000836111c7565b6001600160a01b0381166000908152600360205260408120805460019290611bf6908490612458565b909155505060008281526002602052604080822080546001600160a01b0319169055518391906001600160a01b038416907fddf252ad1be2c89b69c2b068fc378daa952ba7f163c4a11628f55a4df523b3ef908390a45050565b611c5a8383611e26565b611c676000848484611cce565b6107385760405162461bcd60e51b815260206004820152603260248201527f4552433732313a207472616e7366657220746f206e6f6e20455243373231526560448201527131b2b4bb32b91034b6b83632b6b2b73a32b960711b60648201526084016105e6565b60006001600160a01b0384163b15611e1b57604051630a85bd0160e11b81526001600160a01b0385169063150b7a0290611d12903390899088908890600401612390565b602060405180830381600087803b158015611d2c57600080fd5b505af1925050508015611d5c575060408051601f3d908101601f19168201909252611d5991810190612267565b60015b611e01573d808015611d8a576040519150601f19603f3d011682016040523d82523d6000602084013e611d8f565b606091505b508051611df95760405162461bcd60e51b815260206004820152603260248201527f4552433732313a207472616e7366657220746f206e6f6e20455243373231526560448201527131b2b4bb32b91034b6b83632b6b2b73a32b960711b60648201526084016105e6565b805181602001fd5b6001600160e01b031916630a85bd0160e11b149050611324565b506001949350505050565b6001600160a01b038216611e7c5760405162461bcd60e51b815260206004820181905260248201527f4552433732313a206d696e7420746f20746865207a65726f206164647265737360448201526064016105e6565b6000818152600260205260409020546001600160a01b031615611ee15760405162461bcd60e51b815260206004820152601c60248201527f4552433732313a20746f6b656e20616c7265616479206d696e7465640000000060448201526064016105e6565b6001600160a01b0382166000908152600360205260408120805460019290611f0a90849061242c565b909155505060008181526002602052604080822080546001600160a01b0319166001600160a01b03861690811790915590518392907fddf252ad1be2c89b69c2b068fc378daa952ba7f163c4a11628f55a4df523b3ef908290a45050565b828054611f74906124b2565b90600052602060002090601f016020900481019282611f965760008555611fdc565b82601f10611faf57805160ff1916838001178555611fdc565b82800160010185558215611fdc579182015b82811115611fdc578251825591602001919060010190611fc1565b50611fe8929150612022565b5090565b508054611ff8906124b2565b6000825580601f10612008575050565b601f0160209004906000526020600020908101906108e191905b5b80821115611fe85760008155600101612023565b600067ffffffffffffffff8084111561205257612052612548565b604051601f8501601f19908116603f0116810190828211818310171561207a5761207a612548565b8160405280935085815286868601111561209357600080fd5b858560208301376000602087830101525050509392505050565b80356001600160a01b03811681146120c457600080fd5b919050565b600082601f8301126120d9578081fd5b610d3983833560208501612037565b6000602082840312156120f9578081fd5b610d39826120ad565b60008060408385031215612114578081fd5b61211d836120ad565b915061212b602084016120ad565b90509250929050565b600080600060608486031215612148578081fd5b612151846120ad565b925061215f602085016120ad565b9150604084013590509250925092565b60008060008060808587031215612184578081fd5b61218d856120ad565b935061219b602086016120ad565b925060408501359150606085013567ffffffffffffffff8111156121bd578182fd5b8501601f810187136121cd578182fd5b6121dc87823560208401612037565b91505092959194509250565b600080604083850312156121fa578182fd5b612203836120ad565b915060208301358015158114612217578182fd5b809150509250929050565b60008060408385031215612234578182fd5b61223d836120ad565b946020939093013593505050565b60006020828403121561225c578081fd5b8135610d398161255e565b600060208284031215612278578081fd5b8151610d398161255e565b600060208284031215612294578081fd5b813567ffffffffffffffff8111156122aa578182fd5b611324848285016120c9565b6000602082840312156122c7578081fd5b5035919050565b600080604083850312156122e0578182fd5b8235915061212b602084016120ad565b60008060408385031215612302578182fd5b82359150602083013567ffffffffffffffff81111561231f578182fd5b61232b858286016120c9565b9150509250929050565b6000815180845261234d81602086016020860161246f565b601f01601f19169290920160200192915050565b6000835161237381846020880161246f565b83519083019061238781836020880161246f565b01949350505050565b60006001600160a01b038087168352808616602084015250836040830152608060608301526123c26080830184612335565b9695505050505050565b6020808252825182820181905260009190848201906040850190845b8181101561240d5783516001600160a01b0316835292840192918401916001016123e8565b50909695505050505050565b602081526000610d396020830184612335565b6000821982111561243f5761243f61251c565b500190565b60008261245357612453612532565b500490565b60008282101561246a5761246a61251c565b500390565b60005b8381101561248a578181015183820152602001612472565b83811115610c445750506000910152565b6000816124aa576124aa61251c565b506000190190565b600181811c908216806124c657607f821691505b602082108114156124e757634e487b7160e01b600052602260045260246000fd5b50919050565b60006000198214156125015761250161251c565b5060010190565b60008261251757612517612532565b500690565b634e487b7160e01b600052601160045260246000fd5b634e487b7160e01b600052601260045260246000fd5b634e487b7160e01b600052604160045260246000fd5b6001600160e01b0319811681146108e157600080fdfea2646970667358221220f94483384053fd21f749bfe2bb639e00f352b3ab7fc117aeeda20f73260851f564736f6c63430008040033",
  "linkReferences": {},
  "deployedLinkReferences": {}
}