{
  "_format": "hh-sol-artifact-1",
  "contractName": "BCNFTMarketplace",
  "sourceName": "contracts/BCNFTMarketplace..sol",
  "abi": [
    {
      "inputs": [
        {
          "internalType": "address",
          "name": "nftContract_",
          "type": "address"
        },
        {
          "internalType": "address",
          "name": "WBNBAddress_",
          "type": "address"
        },
        {
          "internalType": "address",
          "name": "adminRecoveryAddress_",
          "type": "address"
        },
        {
          "internalType": "address",
          "name": "bcPaymentAddress_",
          "type": "address"
        },
        {
          "internalType": "address",
          "name": "bcTokenAddress_",
          "type": "address"
        }
      ],
      "stateMutability": "nonpayable",
      "type": "constructor"
    },
    {
      "anonymous": false,
      "inputs": [
        {
          "indexed": true,
          "internalType": "uint256",
          "name": "tokenId",
          "type": "uint256"
        },
        {
          "indexed": false,
          "internalType": "address",
          "name": "nftContractAddress",
          "type": "address"
        },
        {
          "indexed": false,
          "internalType": "address",
          "name": "sender",
          "type": "address"
        },
        {
          "indexed": false,
          "internalType": "uint256",
          "name": "value",
          "type": "uint256"
        }
      ],
      "name": "AuctionBid",
      "type": "event"
    },
    {
      "anonymous": false,
      "inputs": [
        {
          "indexed": true,
          "internalType": "uint256",
          "name": "tokenId",
          "type": "uint256"
        },
        {
          "indexed": false,
          "internalType": "address",
          "name": "nftContractAddress",
          "type": "address"
        },
        {
          "indexed": false,
          "internalType": "address",
          "name": "Creator",
          "type": "address"
        }
      ],
      "name": "AuctionCanceled",
      "type": "event"
    },
    {
      "anonymous": false,
      "inputs": [
        {
          "indexed": true,
          "internalType": "uint256",
          "name": "tokenId",
          "type": "uint256"
        },
        {
          "indexed": false,
          "internalType": "uint256",
          "name": "auctionStart",
          "type": "uint256"
        },
        {
          "indexed": false,
          "internalType": "uint256",
          "name": "duration",
          "type": "uint256"
        },
        {
          "indexed": false,
          "internalType": "uint256",
          "name": "reservePrice",
          "type": "uint256"
        },
        {
          "indexed": false,
          "internalType": "string",
          "name": "paymentType",
          "type": "string"
        },
        {
          "indexed": false,
          "internalType": "address",
          "name": "Creator",
          "type": "address"
        }
      ],
      "name": "AuctionCreated",
      "type": "event"
    },
    {
      "anonymous": false,
      "inputs": [
        {
          "indexed": true,
          "internalType": "uint256",
          "name": "tokenId",
          "type": "uint256"
        },
        {
          "indexed": false,
          "internalType": "address",
          "name": "nftContractAddress",
          "type": "address"
        },
        {
          "indexed": false,
          "internalType": "address",
          "name": "Creator",
          "type": "address"
        },
        {
          "indexed": false,
          "internalType": "address",
          "name": "winner",
          "type": "address"
        },
        {
          "indexed": false,
          "internalType": "uint256",
          "name": "amount",
          "type": "uint256"
        },
        {
          "indexed": false,
          "internalType": "address",
          "name": "nftCreator",
          "type": "address"
        }
      ],
      "name": "AuctionEnded",
      "type": "event"
    },
    {
      "anonymous": false,
      "inputs": [
        {
          "indexed": false,
          "internalType": "uint256",
          "name": "nftID",
          "type": "uint256"
        }
      ],
      "name": "Burned",
      "type": "event"
    },
    {
      "anonymous": false,
      "inputs": [
        {
          "indexed": true,
          "internalType": "uint256",
          "name": "tokenId",
          "type": "uint256"
        },
        {
          "indexed": false,
          "internalType": "address",
          "name": "Creator",
          "type": "address"
        },
        {
          "indexed": false,
          "internalType": "uint256",
          "name": "amount",
          "type": "uint256"
        }
      ],
      "name": "CreatorFeePercentTransfer",
      "type": "event"
    },
    {
      "anonymous": false,
      "inputs": [
        {
          "indexed": true,
          "internalType": "address",
          "name": "sender",
          "type": "address"
        },
        {
          "indexed": true,
          "internalType": "address",
          "name": "receiver",
          "type": "address"
        },
        {
          "indexed": false,
          "internalType": "uint256",
          "name": "tokenId",
          "type": "uint256"
        }
      ],
      "name": "Giveaway",
      "type": "event"
    },
    {
      "anonymous": false,
      "inputs": [
        {
          "indexed": true,
          "internalType": "address",
          "name": "minter",
          "type": "address"
        },
        {
          "indexed": false,
          "internalType": "uint256",
          "name": "nftID",
          "type": "uint256"
        },
        {
          "indexed": false,
          "internalType": "bool",
          "name": "status",
          "type": "bool"
        }
      ],
      "name": "Minted",
      "type": "event"
    },
    {
      "anonymous": false,
      "inputs": [
        {
          "indexed": true,
          "internalType": "address",
          "name": "owner",
          "type": "address"
        },
        {
          "indexed": false,
          "internalType": "uint256",
          "name": "nftID",
          "type": "uint256"
        },
        {
          "indexed": false,
          "internalType": "bool",
          "name": "isListed",
          "type": "bool"
        }
      ],
      "name": "NftListStatus",
      "type": "event"
    },
    {
      "anonymous": false,
      "inputs": [
        {
          "indexed": true,
          "internalType": "address",
          "name": "previousOwner",
          "type": "address"
        },
        {
          "indexed": true,
          "internalType": "address",
          "name": "newOwner",
          "type": "address"
        }
      ],
      "name": "OwnershipTransferred",
      "type": "event"
    },
    {
      "anonymous": false,
      "inputs": [
        {
          "indexed": false,
          "internalType": "address",
          "name": "account",
          "type": "address"
        }
      ],
      "name": "Paused",
      "type": "event"
    },
    {
      "anonymous": false,
      "inputs": [
        {
          "indexed": true,
          "internalType": "address",
          "name": "owner",
          "type": "address"
        },
        {
          "indexed": false,
          "internalType": "uint256",
          "name": "oldPrice",
          "type": "uint256"
        },
        {
          "indexed": false,
          "internalType": "uint256",
          "name": "newPrice",
          "type": "uint256"
        },
        {
          "indexed": false,
          "internalType": "uint256",
          "name": "nftID",
          "type": "uint256"
        }
      ],
      "name": "PriceUpdate",
      "type": "event"
    },
    {
      "anonymous": false,
      "inputs": [
        {
          "indexed": true,
          "internalType": "address",
          "name": "previousOwner",
          "type": "address"
        },
        {
          "indexed": true,
          "internalType": "address",
          "name": "newOwner",
          "type": "address"
        },
        {
          "indexed": false,
          "internalType": "uint256",
          "name": "price",
          "type": "uint256"
        },
        {
          "indexed": false,
          "internalType": "uint256",
          "name": "nftID",
          "type": "uint256"
        }
      ],
      "name": "Purchase",
      "type": "event"
    },
    {
      "anonymous": false,
      "inputs": [
        {
          "indexed": false,
          "internalType": "address",
          "name": "",
          "type": "address"
        },
        {
          "indexed": false,
          "internalType": "uint256",
          "name": "",
          "type": "uint256"
        }
      ],
      "name": "Received",
      "type": "event"
    },
    {
      "anonymous": false,
      "inputs": [
        {
          "indexed": false,
          "internalType": "uint256",
          "name": "amount",
          "type": "uint256"
        },
        {
          "indexed": false,
          "internalType": "address",
          "name": "wallet",
          "type": "address"
        }
      ],
      "name": "TokensWithdrawn",
      "type": "event"
    },
    {
      "anonymous": false,
      "inputs": [
        {
          "indexed": false,
          "internalType": "address",
          "name": "account",
          "type": "address"
        }
      ],
      "name": "Unpaused",
      "type": "event"
    },
    {
      "anonymous": false,
      "inputs": [
        {
          "indexed": false,
          "internalType": "uint256",
          "name": "amount",
          "type": "uint256"
        },
        {
          "indexed": false,
          "internalType": "address",
          "name": "wallet",
          "type": "address"
        }
      ],
      "name": "Withdrawn",
      "type": "event"
    },
    {
      "inputs": [],
      "name": "MIN_BID_INCREMENT_PERCENT",
      "outputs": [
        {
          "internalType": "uint8",
          "name": "",
          "type": "uint8"
        }
      ],
      "stateMutability": "view",
      "type": "function"
    },
    {
      "inputs": [],
      "name": "TIME_BUFFER",
      "outputs": [
        {
          "internalType": "uint16",
          "name": "",
          "type": "uint16"
        }
      ],
      "stateMutability": "view",
      "type": "function"
    },
    {
      "inputs": [],
      "name": "WBNBAddress",
      "outputs": [
        {
          "internalType": "address",
          "name": "",
          "type": "address"
        }
      ],
      "stateMutability": "view",
      "type": "function"
    },
    {
      "inputs": [
        {
          "internalType": "uint256[]",
          "name": "_newtokenIds",
          "type": "uint256[]"
        },
        {
          "internalType": "address[]",
          "name": "_creators",
          "type": "address[]"
        },
        {
          "internalType": "uint256[]",
          "name": "_prices",
          "type": "uint256[]"
        },
        {
          "internalType": "address[]",
          "name": "_owners",
          "type": "address[]"
        },
        {
          "internalType": "uint256[]",
          "name": "_royalties",
          "type": "uint256[]"
        },
        {
          "internalType": "bool[]",
          "name": "_listedMap",
          "type": "bool[]"
        }
      ],
      "name": "addCreatorMap",
      "outputs": [],
      "stateMutability": "nonpayable",
      "type": "function"
    },
    {
      "inputs": [],
      "name": "adminRecoveryAddress",
      "outputs": [
        {
          "internalType": "address",
          "name": "",
          "type": "address"
        }
      ],
      "stateMutability": "view",
      "type": "function"
    },
    {
      "inputs": [],
      "name": "adminRecoveryEnabled",
      "outputs": [
        {
          "internalType": "bool",
          "name": "",
          "type": "bool"
        }
      ],
      "stateMutability": "view",
      "type": "function"
    },
    {
      "inputs": [
        {
          "internalType": "uint256",
          "name": "",
          "type": "uint256"
        }
      ],
      "name": "auctions",
      "outputs": [
        {
          "internalType": "uint256",
          "name": "amount",
          "type": "uint256"
        },
        {
          "internalType": "uint256",
          "name": "duration",
          "type": "uint256"
        },
        {
          "internalType": "uint256",
          "name": "firstBidTime",
          "type": "uint256"
        },
        {
          "internalType": "uint256",
          "name": "reservePrice",
          "type": "uint256"
        },
        {
          "internalType": "string",
          "name": "paymentType",
          "type": "string"
        },
        {
          "internalType": "uint8",
          "name": "CreatorFeePercent",
          "type": "uint8"
        },
        {
          "internalType": "address",
          "name": "Creator",
          "type": "address"
        },
        {
          "internalType": "address payable",
          "name": "bidder",
          "type": "address"
        },
        {
          "internalType": "address payable",
          "name": "fundsRecipient",
          "type": "address"
        }
      ],
      "stateMutability": "view",
      "type": "function"
    },
    {
      "inputs": [
        {
          "internalType": "uint256",
          "name": "_id",
          "type": "uint256"
        }
      ],
      "name": "burn",
      "outputs": [],
      "stateMutability": "nonpayable",
      "type": "function"
    },
    {
      "inputs": [
        {
          "internalType": "uint256",
          "name": "_id",
          "type": "uint256"
        },
        {
          "internalType": "uint256",
          "name": "_price",
          "type": "uint256"
        },
        {
          "internalType": "string",
          "name": "paymentType",
          "type": "string"
        }
      ],
      "name": "buy",
      "outputs": [],
      "stateMutability": "payable",
      "type": "function"
    },
    {
      "inputs": [
        {
          "internalType": "uint256",
          "name": "tokenId",
          "type": "uint256"
        }
      ],
      "name": "cancelAuction",
      "outputs": [],
      "stateMutability": "nonpayable",
      "type": "function"
    },
    {
      "inputs": [
        {
          "internalType": "uint256",
          "name": "_id",
          "type": "uint256"
        }
      ],
      "name": "closeTrade",
      "outputs": [],
      "stateMutability": "nonpayable",
      "type": "function"
    },
    {
      "inputs": [
        {
          "internalType": "uint256",
          "name": "tokenId",
          "type": "uint256"
        },
        {
          "internalType": "uint256",
          "name": "duration",
          "type": "uint256"
        },
        {
          "internalType": "uint256",
          "name": "reservePrice",
          "type": "uint256"
        },
        {
          "internalType": "string",
          "name": "paymentType",
          "type": "string"
        },
        {
          "internalType": "address",
          "name": "Creator",
          "type": "address"
        }
      ],
      "name": "createAuction",
      "outputs": [],
      "stateMutability": "nonpayable",
      "type": "function"
    },
    {
      "inputs": [
        {
          "internalType": "uint256",
          "name": "tokenId",
          "type": "uint256"
        },
        {
          "internalType": "string",
          "name": "paymentType",
          "type": "string"
        },
        {
          "internalType": "uint256",
          "name": "amount",
          "type": "uint256"
        }
      ],
      "name": "createBid",
      "outputs": [],
      "stateMutability": "payable",
      "type": "function"
    },
    {
      "inputs": [
        {
          "internalType": "uint256",
          "name": "",
          "type": "uint256"
        }
      ],
      "name": "creatorMap",
      "outputs": [
        {
          "internalType": "address",
          "name": "",
          "type": "address"
        }
      ],
      "stateMutability": "view",
      "type": "function"
    },
    {
      "inputs": [
        {
          "internalType": "uint256",
          "name": "tokenId",
          "type": "uint256"
        }
      ],
      "name": "endAuction",
      "outputs": [],
      "stateMutability": "nonpayable",
      "type": "function"
    },
    {
      "inputs": [],
      "name": "getVersion",
      "outputs": [
        {
          "internalType": "uint256",
          "name": "version",
          "type": "uint256"
        }
      ],
      "stateMutability": "pure",
      "type": "function"
    },
    {
      "inputs": [
        {
          "internalType": "address",
          "name": "_to",
          "type": "address"
        },
        {
          "internalType": "uint256",
          "name": "_id",
          "type": "uint256"
        }
      ],
      "name": "giveaway",
      "outputs": [],
      "stateMutability": "nonpayable",
      "type": "function"
    },
    {
      "inputs": [
        {
          "internalType": "uint256",
          "name": "",
          "type": "uint256"
        }
      ],
      "name": "listedMap",
      "outputs": [
        {
          "internalType": "bool",
          "name": "",
          "type": "bool"
        }
      ],
      "stateMutability": "view",
      "type": "function"
    },
    {
      "inputs": [],
      "name": "marketFeeForBNB",
      "outputs": [
        {
          "internalType": "uint256",
          "name": "",
          "type": "uint256"
        }
      ],
      "stateMutability": "view",
      "type": "function"
    },
    {
      "inputs": [],
      "name": "marketFeeForToken",
      "outputs": [
        {
          "internalType": "uint256",
          "name": "",
          "type": "uint256"
        }
      ],
      "stateMutability": "view",
      "type": "function"
    },
    {
      "inputs": [
        {
          "internalType": "uint256",
          "name": "number",
          "type": "uint256"
        },
        {
          "internalType": "uint256[]",
          "name": "_level",
          "type": "uint256[]"
        }
      ],
      "name": "mint",
      "outputs": [],
      "stateMutability": "nonpayable",
      "type": "function"
    },
    {
      "inputs": [],
      "name": "mintPrice",
      "outputs": [
        {
          "internalType": "uint256",
          "name": "",
          "type": "uint256"
        }
      ],
      "stateMutability": "view",
      "type": "function"
    },
    {
      "inputs": [],
      "name": "nftContract",
      "outputs": [
        {
          "internalType": "address",
          "name": "",
          "type": "address"
        }
      ],
      "stateMutability": "view",
      "type": "function"
    },
    {
      "inputs": [
        {
          "internalType": "uint256",
          "name": "_id",
          "type": "uint256"
        },
        {
          "internalType": "uint256",
          "name": "_price",
          "type": "uint256"
        },
        {
          "internalType": "string",
          "name": "paymentType",
          "type": "string"
        }
      ],
      "name": "openTrade",
      "outputs": [],
      "stateMutability": "nonpayable",
      "type": "function"
    },
    {
      "inputs": [],
      "name": "owner",
      "outputs": [
        {
          "internalType": "address",
          "name": "",
          "type": "address"
        }
      ],
      "stateMutability": "view",
      "type": "function"
    },
    {
      "inputs": [
        {
          "internalType": "uint256",
          "name": "",
          "type": "uint256"
        }
      ],
      "name": "ownerMap",
      "outputs": [
        {
          "internalType": "address",
          "name": "",
          "type": "address"
        }
      ],
      "stateMutability": "view",
      "type": "function"
    },
    {
      "inputs": [],
      "name": "pauseContract",
      "outputs": [],
      "stateMutability": "nonpayable",
      "type": "function"
    },
    {
      "inputs": [],
      "name": "paused",
      "outputs": [
        {
          "internalType": "bool",
          "name": "",
          "type": "bool"
        }
      ],
      "stateMutability": "view",
      "type": "function"
    },
    {
      "inputs": [
        {
          "internalType": "uint256",
          "name": "",
          "type": "uint256"
        }
      ],
      "name": "paymentTokenMap",
      "outputs": [
        {
          "internalType": "string",
          "name": "",
          "type": "string"
        }
      ],
      "stateMutability": "view",
      "type": "function"
    },
    {
      "inputs": [
        {
          "internalType": "string",
          "name": "",
          "type": "string"
        }
      ],
      "name": "payoutAddressMap",
      "outputs": [
        {
          "internalType": "address",
          "name": "",
          "type": "address"
        }
      ],
      "stateMutability": "view",
      "type": "function"
    },
    {
      "inputs": [
        {
          "internalType": "uint256",
          "name": "",
          "type": "uint256"
        }
      ],
      "name": "price",
      "outputs": [
        {
          "internalType": "uint256",
          "name": "",
          "type": "uint256"
        }
      ],
      "stateMutability": "view",
      "type": "function"
    },
    {
      "inputs": [
        {
          "internalType": "uint256",
          "name": "amount",
          "type": "uint256"
        }
      ],
      "name": "recoverBNB",
      "outputs": [
        {
          "internalType": "bool",
          "name": "success",
          "type": "bool"
        }
      ],
      "stateMutability": "nonpayable",
      "type": "function"
    },
    {
      "inputs": [
        {
          "internalType": "uint256",
          "name": "tokenId",
          "type": "uint256"
        }
      ],
      "name": "recoverNFT",
      "outputs": [],
      "stateMutability": "nonpayable",
      "type": "function"
    },
    {
      "inputs": [],
      "name": "renounceOwnership",
      "outputs": [],
      "stateMutability": "nonpayable",
      "type": "function"
    },
    {
      "inputs": [
        {
          "internalType": "uint256",
          "name": "",
          "type": "uint256"
        }
      ],
      "name": "royaltyMap",
      "outputs": [
        {
          "internalType": "uint256",
          "name": "",
          "type": "uint256"
        }
      ],
      "stateMutability": "view",
      "type": "function"
    },
    {
      "inputs": [
        {
          "internalType": "uint256",
          "name": "_newMarketFeeForBNB",
          "type": "uint256"
        }
      ],
      "name": "setMarketFeeForBNB",
      "outputs": [],
      "stateMutability": "nonpayable",
      "type": "function"
    },
    {
      "inputs": [
        {
          "internalType": "uint256",
          "name": "_newMarketFeeForToken",
          "type": "uint256"
        }
      ],
      "name": "setMarketFeeForToken",
      "outputs": [],
      "stateMutability": "nonpayable",
      "type": "function"
    },
    {
      "inputs": [
        {
          "internalType": "string",
          "name": "_paymentToken",
          "type": "string"
        },
        {
          "internalType": "address",
          "name": "_tokenAddress",
          "type": "address"
        },
        {
          "internalType": "address",
          "name": "_payoutAddress",
          "type": "address"
        }
      ],
      "name": "setTokenAddress",
      "outputs": [],
      "stateMutability": "nonpayable",
      "type": "function"
    },
    {
      "inputs": [
        {
          "internalType": "string",
          "name": "",
          "type": "string"
        }
      ],
      "name": "tokenAddressMap",
      "outputs": [
        {
          "internalType": "address",
          "name": "",
          "type": "address"
        }
      ],
      "stateMutability": "view",
      "type": "function"
    },
    {
      "inputs": [
        {
          "internalType": "address",
          "name": "newOwner",
          "type": "address"
        }
      ],
      "name": "transferOwnership",
      "outputs": [],
      "stateMutability": "nonpayable",
      "type": "function"
    },
    {
      "inputs": [],
      "name": "turnOffAdminRecovery",
      "outputs": [],
      "stateMutability": "nonpayable",
      "type": "function"
    },
    {
      "inputs": [],
      "name": "unpauseContract",
      "outputs": [],
      "stateMutability": "nonpayable",
      "type": "function"
    },
    {
      "inputs": [
        {
          "internalType": "uint256",
          "name": "_tokenId",
          "type": "uint256"
        },
        {
          "internalType": "bool",
          "name": "shouldBeListed",
          "type": "bool"
        }
      ],
      "name": "updateListingStatus",
      "outputs": [
        {
          "internalType": "bool",
          "name": "",
          "type": "bool"
        }
      ],
      "stateMutability": "nonpayable",
      "type": "function"
    },
    {
      "inputs": [
        {
          "internalType": "uint256",
          "name": "_tokenId",
          "type": "uint256"
        },
        {
          "internalType": "uint256",
          "name": "_price",
          "type": "uint256"
        },
        {
          "internalType": "string",
          "name": "paymentType",
          "type": "string"
        }
      ],
      "name": "updatePrice",
      "outputs": [
        {
          "internalType": "bool",
          "name": "",
          "type": "bool"
        }
      ],
      "stateMutability": "nonpayable",
      "type": "function"
    },
    {
      "inputs": [],
      "name": "withdraw",
      "outputs": [],
      "stateMutability": "nonpayable",
      "type": "function"
    },
    {
      "inputs": [
        {
          "internalType": "string",
          "name": "_tokenName",
          "type": "string"
        },
        {
          "internalType": "uint256",
          "name": "_amount",
          "type": "uint256"
        }
      ],
      "name": "withdrawToken",
      "outputs": [],
      "stateMutability": "nonpayable",
      "type": "function"
    },
    {
      "stateMutability": "payable",
      "type": "receive"
    }
  ],
  "bytecode": "0x60e06040526001600055604b6003556032600455600f6005553480156200002557600080fd5b50604051620057e4380380620057e4833981016040819052620000489162000267565b6200005333620001f8565b6040516301ffc9a760e01b81526380ac58cd60e01b60048201526001600160a01b038616906301ffc9a79060240160206040518083038186803b1580156200009a57600080fd5b505afa158015620000af573d6000803e3d6000fd5b505050506040513d601f19601f82011682018060405250810190620000d59190620002d6565b6200014c5760405162461bcd60e51b815260206004820152603f60248201527f436f6e7472616374206174206e6674436f6e74726163745f206164647265737360448201527f20646f6573206e6f7420737570706f7274204e465420696e7465726661636500606482015260840160405180910390fd5b6001600160601b0319606086811b821660805285811b821660a05284901b1660c0526040518290600f90620001899061424360f01b815260020190565b9081526040805191829003602001822080546001600160a01b039485166001600160a01b03199182161790915561424360f01b8352600d6002840152905191829003602201909120805493909216921691909117905550506006805461ffff1916600117905550620002ff9050565b600180546001600160a01b038381166001600160a01b0319831681179093556040519116919082907f8be0079c531659141344cd1fd0a4f28419497f9722a3daafe3b4186f6b6457e090600090a35050565b80516001600160a01b03811681146200026257600080fd5b919050565b600080600080600060a086880312156200027f578081fd5b6200028a866200024a565b94506200029a602087016200024a565b9350620002aa604087016200024a565b9250620002ba606087016200024a565b9150620002ca608087016200024a565b90509295509295909350565b600060208284031215620002e8578081fd5b81518015158114620002f8578182fd5b9392505050565b60805160601c60a05160601c60c05160601c6153cc620004186000396000818161099a01528181610ebd015281816117aa01528181611f980152818161204701528181612558015281816128b701528181612c2f015281816130f1015281816136400152818161378501528181613ecd015281816145b001526146470152600081816105d6015281816146a10152614736015260008181610906015281816109fe01528181610af601528181610d97015281816115d50152818161170001528181612076015281816122f4015281816123910152818161241401528181612e0201528181612fd7015281816134b00152818161356401528181613bff015281816143a60152818161442a01526148b301526153cc6000f3fe6080604052600436106103015760003560e01c80639037bab21161018f578063b9a2de3a116100e1578063ca1ce2af1161008a578063f2fde38b11610064578063f2fde38b14610948578063f603939b14610968578063fafe0d1f1461098857600080fd5b8063ca1ce2af146108c7578063d56d229d146108f4578063f27da5e51461092857600080fd5b8063bc8ba28f116100bb578063bc8ba28f14610850578063bc99681914610880578063c97a413a146108a757600080fd5b8063b9a2de3a146107f0578063ba8a12b414610810578063bb7adeb41461083057600080fd5b806398c0559111610143578063a39cea841161011d578063a39cea841461078e578063a6e9d546146107ae578063b33712c5146107db57600080fd5b806398c055911461073057806399331fdf146107455780639a8bfa2b1461075857600080fd5b80639486e0a4116101745780639486e0a4146106d057806396b5a755146106f057806398214bcb1461071057600080fd5b80639037bab214610679578063941d66db1461068f57600080fd5b8063536531311161025357806370081fb9116101fc57806382b465b7116101d657806382b465b714610625578063892d5d94146106455780638da5cb5b1461065b57600080fd5b806370081fb9146105c4578063715018a6146105f85780637788a3871461060d57600080fd5b80635c975abb1161022d5780635c975abb146105505780636749b0ba1461056d5780636817c76c146105ae57600080fd5b806353653131146104c257806353a636dd146104eb578063571a26a01461051b57600080fd5b80632d69044f116102b55780633ccfd60b1161028f5780633ccfd60b1461047857806342966c681461048d578063439766ce146104ad57600080fd5b80632d69044f146103f757806333209e651461041757806338a4cb5b1461042a57600080fd5b80630d8e6e2c116102e65780630d8e6e2c1461038757806317aa7f03146103aa57806326a49e37146103ca57600080fd5b8063050225ea146103455780630d6b33781461036757600080fd5b3661034057604080513381523460208201527f88a5966d370b9919b20f3e2c13ff65706f196a4e32cc2c12bf57088f88525874910160405180910390a1005b600080fd5b34801561035157600080fd5b50610365610360366004614ca6565b6109bc565b005b34801561037357600080fd5b50610365610382366004614ebb565b610bc1565b34801561039357600080fd5b5060015b6040519081526020015b60405180910390f35b3480156103b657600080fd5b506103656103c5366004614ebb565b610c70565b3480156103d657600080fd5b506103976103e5366004614ebb565b60076020526000908152604090205481565b34801561040357600080fd5b50610365610412366004614eeb565b610d1f565b610365610425366004614f5f565b610f05565b34801561043657600080fd5b50610460610445366004614ebb565b600a602052600090815260409020546001600160a01b031681565b6040516001600160a01b0390911681526020016103a1565b34801561048457600080fd5b50610365611648565b34801561049957600080fd5b506103656104a8366004614ebb565b6116d1565b3480156104b957600080fd5b506103656117a8565b3480156104ce57600080fd5b506104d861038481565b60405161ffff90911681526020016103a1565b3480156104f757600080fd5b5061050b610506366004614fad565b611881565b60405190151581526020016103a1565b34801561052757600080fd5b5061053b610536366004614ebb565b61196a565b6040516103a19998979695949392919061519e565b34801561055c57600080fd5b50600654610100900460ff1661050b565b34801561057957600080fd5b50610460610588366004614ddb565b8051602081830181018051600f825292820191909301209152546001600160a01b031681565b3480156105ba57600080fd5b5061039760055481565b3480156105d057600080fd5b506104607f000000000000000000000000000000000000000000000000000000000000000081565b34801561060457600080fd5b50610365611a4e565b34801561061957600080fd5b5060065460ff1661050b565b34801561063157600080fd5b50610365610640366004614cd1565b611ab4565b34801561065157600080fd5b5061039760035481565b34801561066757600080fd5b506001546001600160a01b0316610460565b34801561068557600080fd5b5061039760045481565b34801561069b57600080fd5b506104606106aa366004614ddb565b8051602081830181018051600d825292820191909301209152546001600160a01b031681565b3480156106dc57600080fd5b506103656106eb366004614ebb565b611f96565b3480156106fc57600080fd5b5061036561070b366004614ebb565b6120d5565b34801561071c57600080fd5b5061050b61072b366004614f30565b6123fb565b34801561073c57600080fd5b50610365612556565b610365610753366004614fad565b6125f6565b34801561076457600080fd5b50610460610773366004614ebb565b600c602052600090815260409020546001600160a01b031681565b34801561079a57600080fd5b506103656107a9366004614ebb565b612eec565b3480156107ba57600080fd5b506103976107c9366004614ebb565b600b6020526000908152604090205481565b3480156107e757600080fd5b506103656130ef565b3480156107fc57600080fd5b5061036561080b366004614ebb565b6131be565b34801561081c57600080fd5b5061036561082b366004614e16565b613c86565b34801561083c57600080fd5b5061036561084b366004614ffb565b613d68565b34801561085c57600080fd5b5061050b61086b366004614ebb565b60086020526000908152604090205460ff1681565b34801561088c57600080fd5b50610895600a81565b60405160ff90911681526020016103a1565b3480156108b357600080fd5b506103656108c2366004614e78565b614001565b3480156108d357600080fd5b506108e76108e2366004614ebb565b614212565b6040516103a1919061514b565b34801561090057600080fd5b506104607f000000000000000000000000000000000000000000000000000000000000000081565b34801561093457600080fd5b50610365610943366004614fad565b6142ac565b34801561095457600080fd5b50610365610963366004614c6e565b6144cd565b34801561097457600080fd5b5061050b610983366004614ebb565b6145ac565b34801561099457600080fd5b506104607f000000000000000000000000000000000000000000000000000000000000000081565b60008181526008602052604090205460ff16610a5f576040516323b872dd60e01b81523360048201526001600160a01b038381166024830152604482018390527f000000000000000000000000000000000000000000000000000000000000000016906323b872dd90606401600060405180830381600087803b158015610a4257600080fd5b505af1158015610a56573d6000803e3d6000fd5b50505050610b5d565b6000818152600c60205260409020546001600160a01b03163314610aca5760405162461bcd60e51b815260206004820152601360248201527f73656e646572206973206e6f74206f776e65720000000000000000000000000060448201526064015b60405180910390fd5b6040516323b872dd60e01b81523060048201526001600160a01b038381166024830152604482018390527f000000000000000000000000000000000000000000000000000000000000000016906323b872dd90606401600060405180830381600087803b158015610b3a57600080fd5b505af1158015610b4e573d6000803e3d6000fd5b50505060008290525060086020525b6000818152600c602090815260409182902080546001600160a01b0319166001600160a01b038616908117909155915183815233917f4abe537933cf6821c78fd52b40560aa40ad6f997168b53f9ea55a9b34420069b910160405180910390a35050565b6001546001600160a01b03163314610c1b5760405162461bcd60e51b815260206004820181905260248201527f4f776e61626c653a2063616c6c6572206973206e6f7420746865206f776e65726044820152606401610ac1565b60018111610c6b5760405162461bcd60e51b815260206004820152601b60248201527f496e76616c6964204d61726b657446656520466f7220546f6b656e00000000006044820152606401610ac1565b600455565b6001546001600160a01b03163314610cca5760405162461bcd60e51b815260206004820181905260248201527f4f776e61626c653a2063616c6c6572206973206e6f7420746865206f776e65726044820152606401610ac1565b60018111610d1a5760405162461bcd60e51b815260206004820152601960248201527f496e76616c6964204d61726b657446656520466f7220424e42000000000000006044820152606401610ac1565b600355565b60005b82811015610eb757610d38600280546001019055565b6000610d4360025490565b6000818152600a602090815260408083208054336001600160a01b03199182168117909255600c84528285208054909116909117905560089091529020805460ff1916905583519091506001600160a01b037f000000000000000000000000000000000000000000000000000000000000000016906394bf804d90859085908110610dde57634e487b7160e01b600052603260045260246000fd5b6020026020010151336040518363ffffffff1660e01b8152600401610e169291909182526001600160a01b0316602082015260400190565b602060405180830381600087803b158015610e3057600080fd5b505af1158015610e44573d6000803e3d6000fd5b505050506040513d601f19601f82011682018060405250810190610e689190614ed3565b50604080518281526000602082015233917f53ad8893610de0fa6656f026deb942f5cde3d84f4c68f80c8b376f70c1a0f389910160405180910390a25080610eaf8161532c565b915050610d22565b50610f017f0000000000000000000000000000000000000000000000000000000000000000610efc84610ef6606460055461467290919063ffffffff16565b90614685565b614691565b5050565b6001600080828254610f179190615257565b9091555050600054600654610100900460ff1615610f6c5760405162461bcd60e51b815260206004820152601260248201527110dbdb9d1c9858dd081a5cc81c185d5cd95960721b6044820152606401610ac1565b83610f958160009081526009602052604090206005015461010090046001600160a01b03161590565b15610fe25760405162461bcd60e51b815260206004820152601560248201527f41756374696f6e20646f65736e277420657869737400000000000000000000006044820152606401610ac1565b600085815260096020526040902060020154859015806110095750611006816147b6565b42105b6110555760405162461bcd60e51b815260206004820152600f60248201527f41756374696f6e206578706972656400000000000000000000000000000000006044820152606401610ac1565b600084116110a55760405162461bcd60e51b815260206004820152601d60248201527f416d6f756e74206d7573742062652067726561746572207468616e20300000006044820152606401610ac1565b60008681526009602090815260409182902091516110c79260040191016150b0565b60405160208183030381529060405280519060200120856040516020016110ee9190615094565b60405160208183030381529060405280519060200120146111515760405162461bcd60e51b815260206004820152601d60248201527f5061796d656e7454797065206973206e6f74206d69736d6174636865640000006044820152606401610ac1565b6040516221272160e91b6020820152602301604051602081830303815290604052805190602001208560405160200161118a9190615094565b6040516020818303038152906040528051906020012014156111fa573484146111f55760405162461bcd60e51b815260206004820152601e60248201527f416d6f756e7420646f65736e277420657175616c206d73672e76616c756500006044820152606401610ac1565b6112dc565b600d8560405161120a9190615094565b908152604051908190036020018120546370a0823160e01b82523360048301526001600160a01b0316906370a082319060240160206040518083038186803b15801561125557600080fd5b505afa158015611269573d6000803e3d6000fd5b505050506040513d601f19601f8201168201806040525081019061128d9190614ed3565b8410156112dc5760405162461bcd60e51b815260206004820152601a60248201527f496e73756666696369656e7420746f6b656e2062616c616e63650000000000006044820152606401610ac1565b600086815260096020526040902054611355576000868152600960205260409020600301548410156113505760405162461bcd60e51b815260206004820152601d60248201527f4d7573742062696420726573657276655072696365206f72206d6f72650000006044820152606401610ac1565b611543565b600086815260096020526040902054611395906113809060649061137a90600a614685565b90614672565b600088815260096020526040902054906147d4565b84101561140a5760405162461bcd60e51b815260206004820152603f60248201527f4d75737420626964206d6f7265207468616e206c61737420626964206279204d60448201527f494e5f4249445f494e4352454d454e545f50455243454e5420616d6f756e74006064820152608401610ac1565b6040516221272160e91b602082015260230160405160208183030381529060405280519060200120856040516020016114439190615094565b60405160208183030381529060405280519060200120141561148757600086815260096020526040902060068101549054611350916001600160a01b031690614691565b600d856040516114979190615094565b90815260408051602092819003830181205460008a81526009909452919092206006810154905463a9059cbb60e01b84526001600160a01b0391821660048501526024840152169063a9059cbb90604401602060405180830381600087803b15801561150257600080fd5b505af1158015611516573d6000803e3d6000fd5b505050506040513d601f19601f8201168201806040525081019061153a9190614dbf565b61154357600080fd5b600086815260096020526040902084815560060180546001600160a01b03191633179055611573426103846147d4565b61157c876147b6565b10156115c7576115a061158e876147b6565b61159a426103846147d4565b906147e0565b600087815260096020526040812060010180549091906115c1908490615257565b90915550505b604080516001600160a01b037f000000000000000000000000000000000000000000000000000000000000000016815233602082015290810185905286907f3bb6f40a8aeb5dda33c401527cd8f6bd335757d2b1ed2827f0321a090c66b8249060600160405180910390a25050600054811461164257600080fd5b50505050565b6001546001600160a01b031633146116a25760405162461bcd60e51b815260206004820181905260248201527f4f776e61626c653a2063616c6c6572206973206e6f7420746865206f776e65726044820152606401610ac1565b6040514790339082156108fc029083906000818181858888f19350505050158015610f01573d6000803e3d6000fd5b6040517f42966c68000000000000000000000000000000000000000000000000000000008152600481018290527f00000000000000000000000000000000000000000000000000000000000000006001600160a01b0316906342966c6890602401600060405180830381600087803b15801561174c57600080fd5b505af1158015611760573d6000803e3d6000fd5b505050600091825250600a6020908152604080832080546001600160a01b0319908116909155600b8352818420849055600c8352818420805490911690556007909152812055565b7f00000000000000000000000000000000000000000000000000000000000000006001600160a01b0316331480156117e2575060065460ff165b61183c5760405162461bcd60e51b815260206004820152602560248201527f43616c6c657220646f6573206e6f7420686176652061646d696e2070726976696044820152646c6567657360d81b6064820152608401610ac1565b6006805461ff0019166101001790556040513381527f62e78cea01bee320cd4e420270b5ea74000d11b0c9f74754ebdbfc544b05a258906020015b60405180910390a1565b600083815260076020908152604080832054600c9092528220546001600160a01b031633146118f25760405162461bcd60e51b815260206004820152601c60248201527f4572726f722c20796f7520617265206e6f7420746865206f776e6572000000006044820152606401610ac1565b6000858152600760209081526040808320879055600e8252909120845161191b928601906149f9565b50604080518281526020810186905290810186905233907f8647dab5101cbe18afb171756e9753802f9d66725bf2346b079b8b1a275e01169060600160405180910390a2506001949350505050565b6009602052600090815260409020805460018201546002830154600384015460048501805494959394929391926119a0906152f1565b80601f01602080910402602001604051908101604052809291908181526020018280546119cc906152f1565b8015611a195780601f106119ee57610100808354040283529160200191611a19565b820191906000526020600020905b8154815290600101906020018083116119fc57829003601f168201915b50505060058401546006850154600790950154939460ff8216946001600160a01b036101009093048316945090821692501689565b6001546001600160a01b03163314611aa85760405162461bcd60e51b815260206004820181905260248201527f4f776e61626c653a2063616c6c6572206973206e6f7420746865206f776e65726044820152606401610ac1565b611ab260006147ec565b565b6001546001600160a01b03163314611b0e5760405162461bcd60e51b815260206004820181905260248201527f4f776e61626c653a2063616c6c6572206973206e6f7420746865206f776e65726044820152606401610ac1565b8451865114611b855760405162461bcd60e51b815260206004820152602860248201527f746f6b656e49447320616e642063726561746f727320617265206e6f74206d6960448201527f736d6174636865640000000000000000000000000000000000000000000000006064820152608401610ac1565b8351865114611be65760405162461bcd60e51b815260206004820152602760248201527f746f6b656e49447320616e64205f70726963657320617265206e6f74206d69736044820152661b585d18da195960ca1b6064820152608401610ac1565b8251865114611c475760405162461bcd60e51b815260206004820152602760248201527f746f6b656e49447320616e64205f6f776e65727320617265206e6f74206d69736044820152661b585d18da195960ca1b6064820152608401610ac1565b8151865114611cab5760405162461bcd60e51b815260206004820152602a60248201527f746f6b656e49447320616e64205f726f79616c7469657320617265206e6f74206044820152691b5a5cdb585d18da195960b21b6064820152608401610ac1565b8051865114611d0f5760405162461bcd60e51b815260206004820152602a60248201527f746f6b656e49447320616e64205f6c69737465644d617020617265206e6f74206044820152691b5a5cdb585d18da195960b21b6064820152608401610ac1565b60005b8651811015611f8d57611d29600280546001019055565b858181518110611d4957634e487b7160e01b600052603260045260246000fd5b6020026020010151600a6000898481518110611d7557634e487b7160e01b600052603260045260246000fd5b6020026020010151815260200190815260200160002060006101000a8154816001600160a01b0302191690836001600160a01b03160217905550848181518110611dcf57634e487b7160e01b600052603260045260246000fd5b602002602001015160076000898481518110611dfb57634e487b7160e01b600052603260045260246000fd5b6020026020010151815260200190815260200160002081905550838181518110611e3557634e487b7160e01b600052603260045260246000fd5b6020026020010151600c6000898481518110611e6157634e487b7160e01b600052603260045260246000fd5b6020026020010151815260200190815260200160002060006101000a8154816001600160a01b0302191690836001600160a01b03160217905550828181518110611ebb57634e487b7160e01b600052603260045260246000fd5b6020026020010151600b6000898481518110611ee757634e487b7160e01b600052603260045260246000fd5b6020026020010151815260200190815260200160002081905550818181518110611f2157634e487b7160e01b600052603260045260246000fd5b602002602001015160086000898481518110611f4d57634e487b7160e01b600052603260045260246000fd5b6020026020010151815260200190815260200160002060006101000a81548160ff0219169083151502179055508080611f859061532c565b915050611d12565b50505050505050565b7f00000000000000000000000000000000000000000000000000000000000000006001600160a01b031633148015611fd0575060065460ff165b61202a5760405162461bcd60e51b815260206004820152602560248201527f43616c6c657220646f6573206e6f7420686176652061646d696e2070726976696044820152646c6567657360d81b6064820152608401610ac1565b6040516323b872dd60e01b81523060048201526001600160a01b037f000000000000000000000000000000000000000000000000000000000000000081166024830152604482018390527f000000000000000000000000000000000000000000000000000000000000000016906323b872dd90606401600060405180830381600087803b1580156120ba57600080fd5b505af11580156120ce573d6000803e3d6000fd5b5050505050565b60016000808282546120e79190615257565b9091555050600054816121188160009081526009602052604090206005015461010090046001600160a01b03161590565b156121655760405162461bcd60e51b815260206004820152601560248201527f41756374696f6e20646f65736e277420657869737400000000000000000000006044820152606401610ac1565b600083815260096020526040902060050154839061010090046001600160a01b031633146121e35760405162461bcd60e51b815260206004820152602560248201527f43616e206f6e6c792062652063616c6c65642062792061756374696f6e20437260448201526432b0ba37b960d91b6064820152608401610ac1565b6000848152600960205260409020541561223f5760405162461bcd60e51b815260206004820152601760248201527f41756374696f6e20616c726561647920737461727465640000000000000000006044820152606401610ac1565b6000848152600960205260408120600581015482825560018201839055600282018390556003820183905561010090046001600160a01b0316916122866004830182614a7d565b5060058101805474ffffffffffffffffffffffffffffffffffffffffff191690556006810180546001600160a01b03199081169091556007909101805490911690556040516323b872dd60e01b81523060048201526001600160a01b038281166024830152604482018790527f000000000000000000000000000000000000000000000000000000000000000016906323b872dd90606401600060405180830381600087803b15801561233857600080fd5b505af115801561234c573d6000803e3d6000fd5b5050506000868152600860209081526040808320805460ff19169055600c82529182902080546001600160a01b0319166001600160a01b0386811691821790925583517f00000000000000000000000000000000000000000000000000000000000000009092168252918101919091528792507f31e46b3372adff8978a18a1c543a6b3a925ee693bdf7a7c54df36f30f87d290e910160405180910390a25050506000548114610f0157600080fd5b6040516331a9108f60e11b8152600481018390526000907f00000000000000000000000000000000000000000000000000000000000000006001600160a01b031690636352211e9060240160206040518083038186803b15801561245e57600080fd5b505afa158015612472573d6000803e3d6000fd5b505050506040513d601f19601f820116820180604052508101906124969190614c8a565b6001600160a01b0316336001600160a01b0316146124f65760405162461bcd60e51b815260206004820152601c60248201527f4572726f722c20796f7520617265206e6f7420746865206f776e6572000000006044820152606401610ac1565b600083815260086020908152604091829020805460ff191685151590811790915582518681529182015233917f3fd63d9ca8dc693a1b9911e664951294721009a4f6239c862d6719a160a1edfc910160405180910390a250600192915050565b7f00000000000000000000000000000000000000000000000000000000000000006001600160a01b031633148015612590575060065460ff165b6125ea5760405162461bcd60e51b815260206004820152602560248201527f43616c6c657220646f6573206e6f7420686176652061646d696e2070726976696044820152646c6567657360d81b6064820152608401610ac1565b6006805460ff19169055565b6125ff8361483e565b600083815260076020526040902054821461265c5760405162461bcd60e51b815260206004820152601960248201527f4572726f722c207072696365206973206e6f74206d61746368000000000000006044820152606401610ac1565b6000838152600e6020908152604091829020915161267b9291016150b0565b60405160208183030381529060405280519060200120816040516020016126a29190615094565b60405160208183030381529060405280519060200120146127055760405162461bcd60e51b815260206004820181905260248201527f4572726f722c205061796d656e742054797065206973206e6f74206d617463686044820152606401610ac1565b6000838152600c6020908152604080832054600b8352818420546007909352908320546001600160a01b0390911692916127469160649161137a9190614685565b6040516221272160e91b602082015290915060230160405160208183030381529060405280519060200120836040516020016127829190615094565b60405160208183030381529060405280519060200120141561291f576000858152600760205260409020543410156128225760405162461bcd60e51b815260206004820152602a60248201527f6d73672e76616c75652073686f756c6420626520657175616c20746f2074686560448201527f20627579416d6f756e74000000000000000000000000000000000000000000006064820152608401610ac1565b6003546000868152600760205260408120549091612848916103e89161137a9190614685565b6000878152600760205260408120549192509061286b90849061159a90856147e0565b6000888152600c6020526040902054909150612890906001600160a01b031682614691565b6000878152600a60205260409020546128b2906001600160a01b031684614691565b6128e17f0000000000000000000000000000000000000000000000000000000000000000610efc846002614672565b612918600f866040516128f49190615094565b908152604051908190036020019020546001600160a01b0316610efc846002614672565b5050612de0565b60008581526007602052604090819020549051600d90612940908690615094565b908152604051908190036020018120546370a0823160e01b82523360048301526001600160a01b0316906370a082319060240160206040518083038186803b15801561298b57600080fd5b505afa15801561299f573d6000803e3d6000fd5b505050506040513d601f19601f820116820180604052508101906129c39190614ed3565b1015612a375760405162461bcd60e51b815260206004820152603260248201527f746f6b656e2062616c616e63652073686f756c6420626520677265617465722060448201527f7468616e2074686520627579416d6f756e7400000000000000000000000000006064820152608401610ac1565b6004546000868152600760205260408120549091612a5d916103e89161137a9190614685565b60008781526007602052604081205491925090612a8090849061159a90856147e0565b9050600d85604051612a929190615094565b90815260408051602092819003830181205460008b8152600c90945291909220546323b872dd60e01b83523360048401526001600160a01b0390811660248401526044830184905216906323b872dd90606401602060405180830381600087803b158015612aff57600080fd5b505af1158015612b13573d6000803e3d6000fd5b505050506040513d601f19601f82011682018060405250810190612b379190614dbf565b612b4057600080fd5b600d85604051612b509190615094565b90815260408051602092819003830181205460008b8152600a90945291909220546323b872dd60e01b83523360048401526001600160a01b0390811660248401526044830186905216906323b872dd90606401602060405180830381600087803b158015612bbd57600080fd5b505af1158015612bd1573d6000803e3d6000fd5b505050506040513d601f19601f82011682018060405250810190612bf59190614dbf565b612bfe57600080fd5b600d85604051612c0e9190615094565b908152604051908190036020019020546001600160a01b03166323b872dd337f0000000000000000000000000000000000000000000000000000000000000000612c59866002614672565b6040516001600160e01b031960e086901b1681526001600160a01b0393841660048201529290911660248301526044820152606401602060405180830381600087803b158015612ca857600080fd5b505af1158015612cbc573d6000803e3d6000fd5b505050506040513d601f19601f82011682018060405250810190612ce09190614dbf565b612ce957600080fd5b600d85604051612cf99190615094565b908152604051908190036020018120546001600160a01b0316906323b872dd903390600f90612d29908a90615094565b908152604051908190036020019020546001600160a01b0316612d4d866002614672565b6040516001600160e01b031960e086901b1681526001600160a01b0393841660048201529290911660248301526044820152606401602060405180830381600087803b158015612d9c57600080fd5b505af1158015612db0573d6000803e3d6000fd5b505050506040513d601f19601f82011682018060405250810190612dd49190614dbf565b612ddd57600080fd5b50505b6040516323b872dd60e01b8152306004820152336024820152604481018690527f00000000000000000000000000000000000000000000000000000000000000006001600160a01b0316906323b872dd90606401600060405180830381600087803b158015612e4e57600080fd5b505af1158015612e62573d6000803e3d6000fd5b5050506000868152600c6020908152604080832080546001600160a01b0319163390811790915560088352818420805460ff1916905560078352928190205481519081529182018990529192506001600160a01b038516917f46661dab58311a6838247afecbee792192b4f27fc8b3e7168c66bc55ec2e404e910160405180910390a35050505050565b6000818152600c60205260409020546001600160a01b03163314612f525760405162461bcd60e51b815260206004820152601360248201527f73656e646572206973206e6f74206f776e6572000000000000000000000000006044820152606401610ac1565b60008181526008602052604090205460ff161515600114612fb55760405162461bcd60e51b815260206004820152600e60248201527f416c726561647920636f6c7365640000000000000000000000000000000000006044820152606401610ac1565b6040516323b872dd60e01b8152306004820152336024820152604481018290527f00000000000000000000000000000000000000000000000000000000000000006001600160a01b0316906323b872dd90606401600060405180830381600087803b15801561302357600080fd5b505af1158015613037573d6000803e3d6000fd5b5050506000828152600860209081526040808320805460ff19169055600990915290206005015461010090046001600160a01b031633141590506130ec576000818152600960205260408120818155600181018290556002810182905560038101829055906130a96004830182614a7d565b5060058101805474ffffffffffffffffffffffffffffffffffffffffff191690556006810180546001600160a01b03199081169091556007909101805490911690555b50565b7f00000000000000000000000000000000000000000000000000000000000000006001600160a01b031633148015613129575060065460ff165b6131835760405162461bcd60e51b815260206004820152602560248201527f43616c6c657220646f6573206e6f7420686176652061646d696e2070726976696044820152646c6567657360d81b6064820152608401610ac1565b6006805461ff00191690556040513381527f5db9ee0a495bf2e6ff9c91a7834c1ba4fdd244a5e8aa4e537bd38aeae4b073aa90602001611877565b60016000808282546131d09190615257565b9091555050600054600654610100900460ff16156132255760405162461bcd60e51b815260206004820152601260248201527110dbdb9d1c9858dd081a5cc81c185d5cd95960721b6044820152606401610ac1565b60008281526009602052604090206002015482901580159061324f575061324b816147b6565b4210155b61329b5760405162461bcd60e51b815260206004820152601860248201527f41756374696f6e206861736e277420636f6d706c6574656400000000000000006044820152606401610ac1565b600083815260096020526040902060050154839061010090046001600160a01b03163314806132e357506000818152600960205260409020600601546001600160a01b031633145b61333d5760405162461bcd60e51b815260206004820152602560248201527f43616e206f6e6c792062652063616c6c65642062792061756374696f6e20437260448201526432b0ba37b960d91b6064820152608401610ac1565b6000848152600960205260408120600681015481546005830154600490930180546001600160a01b0393841695929461010090049093169261337e906152f1565b80601f01602080910402602001604051908101604052809291908181526020018280546133aa906152f1565b80156133f75780601f106133cc576101008083540402835291602001916133f7565b820191906000526020600020905b8154815290600101906020018083116133da57829003601f168201915b50505060008b8152600960205260408120818155600181018290556002810182905560038101829055939450915061343490506004830182614a7d565b5060058101805474ffffffffffffffffffffffffffffffffffffffffff191690556006810180546001600160a01b03199081169091556007909101805490911690556001600160a01b038416613538576040516323b872dd60e01b81523060048201526001600160a01b038381166024830152604482018a90527f000000000000000000000000000000000000000000000000000000000000000016906323b872dd90606401600060405180830381600087803b1580156134f457600080fd5b505af1158015613508573d6000803e3d6000fd5b5050506000898152600c6020526040902080546001600160a01b0319166001600160a01b03851617905550613bd1565b6040516323b872dd60e01b81523060048201526001600160a01b038581166024830152604482018a90527f000000000000000000000000000000000000000000000000000000000000000016906323b872dd90606401600060405180830381600087803b1580156135a857600080fd5b505af11580156135bc573d6000803e3d6000fd5b505050506040516020016135d9906221272160e91b815260030190565b60405160208183030381529060405280519060200120816040516020016136009190615094565b6040516020818303038152906040528051906020012014156137365760006136396103e861137a6003548761468590919063ffffffff16565b905061366a7f0000000000000000000000000000000000000000000000000000000000000000610efc836002614672565b6136a1600f8360405161367d9190615094565b908152604051908190036020019020546001600160a01b0316610efc836002614672565b6000898152600a60205260409020546001600160a01b03848116911614156136d6576136d183610efc86846147e0565b613730565b6000898152600b60205260408120546136f79060649061137a908890614685565b60008b8152600a602052604090205490915061371c906001600160a01b031682614691565b61372e84610efc8461159a89866147e0565b505b50613ba9565b60006137536103e861137a6004548761468590919063ffffffff16565b9050600d826040516137659190615094565b908152604051908190036020019020546001600160a01b031663a9059cbb7f00000000000000000000000000000000000000000000000000000000000000006137af846002614672565b6040516001600160e01b031960e085901b1681526001600160a01b0390921660048301526024820152604401602060405180830381600087803b1580156137f557600080fd5b505af1158015613809573d6000803e3d6000fd5b505050506040513d601f19601f8201168201806040525081019061382d9190614dbf565b61383657600080fd5b600d826040516138469190615094565b908152604051908190036020018120546001600160a01b03169063a9059cbb90600f90613874908690615094565b908152604051908190036020019020546001600160a01b0316613898846002614672565b6040516001600160e01b031960e085901b1681526001600160a01b0390921660048301526024820152604401602060405180830381600087803b1580156138de57600080fd5b505af11580156138f2573d6000803e3d6000fd5b505050506040513d601f19601f820116820180604052508101906139169190614dbf565b61391f57600080fd5b6000898152600a60205260409020546001600160a01b0384811691161415613a0657600d826040516139519190615094565b908152604051908190036020019020546001600160a01b031663a9059cbb8461397a87856147e0565b6040516001600160e01b031960e085901b1681526001600160a01b0390921660048301526024820152604401602060405180830381600087803b1580156139c057600080fd5b505af11580156139d4573d6000803e3d6000fd5b505050506040513d601f19601f820116820180604052508101906139f89190614dbf565b613a0157600080fd5b613ba7565b6000898152600b6020526040812054613a279060649061137a908890614685565b9050600d83604051613a399190615094565b90815260408051602092819003830181205460008e8152600a909452919092205463a9059cbb60e01b83526001600160a01b03908116600484015260248301849052169063a9059cbb90604401602060405180830381600087803b158015613aa057600080fd5b505af1158015613ab4573d6000803e3d6000fd5b505050506040513d601f19601f82011682018060405250810190613ad89190614dbf565b613ae157600080fd5b600d83604051613af19190615094565b908152604051908190036020019020546001600160a01b031663a9059cbb85613b1e8561159a8a876147e0565b6040516001600160e01b031960e085901b1681526001600160a01b0390921660048301526024820152604401602060405180830381600087803b158015613b6457600080fd5b505af1158015613b78573d6000803e3d6000fd5b505050506040513d601f19601f82011682018060405250810190613b9c9190614dbf565b613ba557600080fd5b505b505b6000888152600c6020526040902080546001600160a01b0319166001600160a01b0386161790555b6000888152600860209081526040808320805460ff19169055600a8252918290205482516001600160a01b037f00000000000000000000000000000000000000000000000000000000000000008116825280871693820193909352828816938101939093526060830186905216608082015288907f28e48213ce86ac133ca69274548aa4243a6e2433eee55213af64b46a2e719caf9060a00160405180910390a25050505050506000548114610f0157600080fd5b6001546001600160a01b03163314613ce05760405162461bcd60e51b815260206004820181905260248201527f4f776e61626c653a2063616c6c6572206973206e6f7420746865206f776e65726044820152606401610ac1565b81600d84604051613cf19190615094565b908152602001604051809103902060006101000a8154816001600160a01b0302191690836001600160a01b0316021790555080600f84604051613d349190615094565b90815260405190819003602001902080546001600160a01b03929092166001600160a01b0319909216919091179055505050565b6001600080828254613d7a9190615257565b9091555050600054600654610100900460ff1615613dcf5760405162461bcd60e51b815260206004820152601260248201527110dbdb9d1c9858dd081a5cc81c185d5cd95960721b6044820152606401610ac1565b85613df88160009081526009602052604090206005015461010090046001600160a01b03161590565b613e445760405162461bcd60e51b815260206004820152601660248201527f41756374696f6e20616c726561647920657869737473000000000000000000006044820152606401610ac1565b6001600160a01b038316613e5757600080fd5b6000878152600c6020526040902080546001600160a01b03191633179055613e808786866142ac565b6040805161012081018252600080825260208083018a815242848601818152606086018c8152608087018c8152603260a08901526001600160a01b03808d1660c08a015260e089018890527f0000000000000000000000000000000000000000000000000000000000000000166101008901528f8752600986529790952086518155925160018401555160028301559251600382015593518051929492613f2d92600485019201906149f9565b5060a082015160058201805460c085015160ff90931674ffffffffffffffffffffffffffffffffffffffffff19909116176101006001600160a01b0393841681029190911790915560e08401516006840180546001600160a01b031990811692851692909217905593015160079092018054909316911617905560405188907faf28756bc1e562d40cb95e5867314a58926ea413130138ca11b3b2d6db787c6190613fe19084908b908b908b908b9061515e565b60405180910390a250506000548114613ff957600080fd5b505050505050565b6001546001600160a01b0316331461405b5760405162461bcd60e51b815260206004820181905260248201527f4f776e61626c653a2063616c6c6572206973206e6f7420746865206f776e65726044820152606401610ac1565b6000600d8360405161406d9190615094565b908152604051908190036020018120546370a0823160e01b82523060048301526001600160a01b0316906370a082319060240160206040518083038186803b1580156140b857600080fd5b505afa1580156140cc573d6000803e3d6000fd5b505050506040513d601f19601f820116820180604052508101906140f09190614ed3565b9050808211156141685760405162461bcd60e51b815260206004820152602660248201527f496e73756666696369656e7420746f6b656e2062616c616e636520746f20776960448201527f74686472617700000000000000000000000000000000000000000000000000006064820152608401610ac1565b600d836040516141789190615094565b9081526040519081900360200181205463a9059cbb60e01b8252336004830152602482018390526001600160a01b03169063a9059cbb90604401602060405180830381600087803b1580156141cc57600080fd5b505af11580156141e0573d6000803e3d6000fd5b505050506040513d601f19601f820116820180604052508101906142049190614dbf565b61420d57600080fd5b505050565b600e602052600090815260409020805461422b906152f1565b80601f0160208091040260200160405190810160405280929190818152602001828054614257906152f1565b80156142a45780601f10614279576101008083540402835291602001916142a4565b820191906000526020600020905b81548152906001019060200180831161428757829003601f168201915b505050505081565b6000838152600c60205260409020546001600160a01b031633146143125760405162461bcd60e51b815260206004820152601360248201527f73656e646572206973206e6f74206f776e6572000000000000000000000000006044820152606401610ac1565b60008381526008602052604090205460ff16156143715760405162461bcd60e51b815260206004820152600e60248201527f416c7265616479206f70656e65640000000000000000000000000000000000006044820152606401610ac1565b6040517f095ea7b3000000000000000000000000000000000000000000000000000000008152306004820152602481018490527f00000000000000000000000000000000000000000000000000000000000000006001600160a01b03169063095ea7b390604401600060405180830381600087803b1580156143f257600080fd5b505af1158015614406573d6000803e3d6000fd5b50506040516323b872dd60e01b8152336004820152306024820152604481018690527f00000000000000000000000000000000000000000000000000000000000000006001600160a01b031692506323b872dd9150606401600060405180830381600087803b15801561447857600080fd5b505af115801561448c573d6000803e3d6000fd5b5050506000848152600860209081526040808320805460ff1916600117905560078252808320869055600e82529091208351611642935090918401906149f9565b6001546001600160a01b031633146145275760405162461bcd60e51b815260206004820181905260248201527f4f776e61626c653a2063616c6c6572206973206e6f7420746865206f776e65726044820152606401610ac1565b6001600160a01b0381166145a35760405162461bcd60e51b815260206004820152602660248201527f4f776e61626c653a206e6577206f776e657220697320746865207a65726f206160448201527f64647265737300000000000000000000000000000000000000000000000000006064820152608401610ac1565b6130ec816147ec565b60007f00000000000000000000000000000000000000000000000000000000000000006001600160a01b0316331480156145e8575060065460ff165b6146425760405162461bcd60e51b815260206004820152602560248201527f43616c6c657220646f6573206e6f7420686176652061646d696e2070726976696044820152646c6567657360d81b6064820152608401610ac1565b61466c7f000000000000000000000000000000000000000000000000000000000000000083614996565b92915050565b600061467e828461526f565b9392505050565b600061467e828461528f565b61469b8282614996565b610f01577f00000000000000000000000000000000000000000000000000000000000000006001600160a01b031663d0e30db0826040518263ffffffff1660e01b81526004016000604051808303818588803b1580156146fa57600080fd5b505af115801561470e573d6000803e3d6000fd5b505060405163a9059cbb60e01b81526001600160a01b038681166004830152602482018690527f000000000000000000000000000000000000000000000000000000000000000016935063a9059cbb92506044019050602060405180830381600087803b15801561477e57600080fd5b505af1158015614792573d6000803e3d6000fd5b505050506040513d601f19601f8201168201806040525081019061420d9190614dbf565b6000818152600960205260408120600181015460029091015461466c915b600061467e8284615257565b600061467e82846152ae565b600180546001600160a01b038381166001600160a01b0319831681179093556040519116919082907f8be0079c531659141344cd1fd0a4f28419497f9722a3daafe3b4186f6b6457e090600090a35050565b60008181526008602052604090205460ff168061489d5760405162461bcd60e51b815260206004820152601960248201527f4974656d206e6f74206c69737465642063757272656e746c79000000000000006044820152606401610ac1565b6040516331a9108f60e11b8152600481018390527f00000000000000000000000000000000000000000000000000000000000000006001600160a01b031690636352211e9060240160206040518083038186803b1580156148fd57600080fd5b505afa158015614911573d6000803e3d6000fd5b505050506040513d601f19601f820116820180604052508101906149359190614c8a565b6001600160a01b0316336001600160a01b03161415610f015760405162461bcd60e51b815260206004820152601860248201527f43616e206e6f7420627579207768617420796f75206f776e00000000000000006044820152606401610ac1565b600080836001600160a01b03168361753090604051600060405180830381858888f193505050503d80600081146149e9576040519150601f19603f3d011682016040523d82523d6000602084013e6149ee565b606091505b509095945050505050565b828054614a05906152f1565b90600052602060002090601f016020900481019282614a275760008555614a6d565b82601f10614a4057805160ff1916838001178555614a6d565b82800160010185558215614a6d579182015b82811115614a6d578251825591602001919060010190614a52565b50614a79929150614ab3565b5090565b508054614a89906152f1565b6000825580601f10614a99575050565b601f0160209004906000526020600020908101906130ec91905b5b80821115614a795760008155600101614ab4565b600082601f830112614ad8578081fd5b81356020614aed614ae883615233565b615202565b80838252828201915082860187848660051b8901011115614b0c578586fd5b855b85811015614b33578135614b2181615373565b84529284019290840190600101614b0e565b5090979650505050505050565b600082601f830112614b50578081fd5b81356020614b60614ae883615233565b80838252828201915082860187848660051b8901011115614b7f578586fd5b855b85811015614b33578135614b9481615388565b84529284019290840190600101614b81565b600082601f830112614bb6578081fd5b81356020614bc6614ae883615233565b80838252828201915082860187848660051b8901011115614be5578586fd5b855b85811015614b3357813584529284019290840190600101614be7565b600082601f830112614c13578081fd5b813567ffffffffffffffff811115614c2d57614c2d61535d565b614c40601f8201601f1916602001615202565b818152846020838601011115614c54578283fd5b816020850160208301379081016020019190915292915050565b600060208284031215614c7f578081fd5b813561467e81615373565b600060208284031215614c9b578081fd5b815161467e81615373565b60008060408385031215614cb8578081fd5b8235614cc381615373565b946020939093013593505050565b60008060008060008060c08789031215614ce9578182fd5b863567ffffffffffffffff80821115614d00578384fd5b614d0c8a838b01614ba6565b97506020890135915080821115614d21578384fd5b614d2d8a838b01614ac8565b96506040890135915080821115614d42578384fd5b614d4e8a838b01614ba6565b95506060890135915080821115614d63578384fd5b614d6f8a838b01614ac8565b94506080890135915080821115614d84578384fd5b614d908a838b01614ba6565b935060a0890135915080821115614da5578283fd5b50614db289828a01614b40565b9150509295509295509295565b600060208284031215614dd0578081fd5b815161467e81615388565b600060208284031215614dec578081fd5b813567ffffffffffffffff811115614e02578182fd5b614e0e84828501614c03565b949350505050565b600080600060608486031215614e2a578283fd5b833567ffffffffffffffff811115614e40578384fd5b614e4c86828701614c03565b9350506020840135614e5d81615373565b91506040840135614e6d81615373565b809150509250925092565b60008060408385031215614e8a578182fd5b823567ffffffffffffffff811115614ea0578283fd5b614eac85828601614c03565b95602094909401359450505050565b600060208284031215614ecc578081fd5b5035919050565b600060208284031215614ee4578081fd5b5051919050565b60008060408385031215614efd578182fd5b82359150602083013567ffffffffffffffff811115614f1a578182fd5b614f2685828601614ba6565b9150509250929050565b60008060408385031215614f42578182fd5b823591506020830135614f5481615388565b809150509250929050565b600080600060608486031215614f73578081fd5b83359250602084013567ffffffffffffffff811115614f90578182fd5b614f9c86828701614c03565b925050604084013590509250925092565b600080600060608486031215614fc1578081fd5b8335925060208401359150604084013567ffffffffffffffff811115614fe5578182fd5b614ff186828701614c03565b9150509250925092565b600080600080600060a08688031215615012578283fd5b853594506020860135935060408601359250606086013567ffffffffffffffff81111561503d578182fd5b61504988828901614c03565b925050608086013561505a81615373565b809150509295509295909350565b600081518084526150808160208601602086016152c5565b601f01601f19169290920160200192915050565b600082516150a68184602087016152c5565b9190910192915050565b600080835482600182811c9150808316806150cc57607f831692505b60208084108214156150ec57634e487b7160e01b87526022600452602487fd5b81801561510057600181146151115761513d565b60ff1986168952848901965061513d565b60008a815260209020885b868110156151355781548b82015290850190830161511c565b505084890196505b509498975050505050505050565b60208152600061467e6020830184615068565b85815284602082015283604082015260a06060820152600061518360a0830185615068565b90506001600160a01b03831660808301529695505050505050565b60006101208b83528a60208401528960408401528860608401528060808401526151ca81840189615068565b60ff9790971660a084015250506001600160a01b0393841660c082015291831660e08301529091166101009091015295945050505050565b604051601f8201601f1916810167ffffffffffffffff8111828210171561522b5761522b61535d565b604052919050565b600067ffffffffffffffff82111561524d5761524d61535d565b5060051b60200190565b6000821982111561526a5761526a615347565b500190565b60008261528a57634e487b7160e01b81526012600452602481fd5b500490565b60008160001904831182151516156152a9576152a9615347565b500290565b6000828210156152c0576152c0615347565b500390565b60005b838110156152e05781810151838201526020016152c8565b838111156116425750506000910152565b600181811c9082168061530557607f821691505b6020821081141561532657634e487b7160e01b600052602260045260246000fd5b50919050565b600060001982141561534057615340615347565b5060010190565b634e487b7160e01b600052601160045260246000fd5b634e487b7160e01b600052604160045260246000fd5b6001600160a01b03811681146130ec57600080fd5b80151581146130ec57600080fdfea2646970667358221220c119789c823d393d03dc2b6db3649ead598f4b2d4bcde2b33b9dfce422b242ea64736f6c63430008040033",
  "linkReferences": {},
  "deployedLinkReferences": {}
}