{
  "_format": "hh-sol-artifact-1",
  "contractName": "IMediaModified",
  "sourceName": "contracts/BCNFTMarketplace..sol",
  "abi": [
    {
      "inputs": [],
      "name": "marketContract",
      "outputs": [
        {
          "internalType": "address",
          "name": "",
          "type": "address"
        }
      ],
      "stateMutability": "view",
      "type": "function"
    },
    {
      "inputs": [
        {
          "internalType": "uint256",
          "name": "",
          "type": "uint256"
        }
      ],
      "name": "tokenCreators",
      "outputs": [
        {
          "internalType": "address",
          "name": "",
          "type": "address"
        }
      ],
      "stateMutability": "view",
      "type": "function"
    }
  ],
  "bytecode": "0x608060405234801561001057600080fd5b5060ff8061001f6000396000f3fe6080604052348015600f57600080fd5b506004361060325760003560e01c8063a1794bcd146037578063e0fd045f14607f575b600080fd5b60015460569073ffffffffffffffffffffffffffffffffffffffff1681565b60405173ffffffffffffffffffffffffffffffffffffffff909116815260200160405180910390f35b6056608a36600460b2565b60006020819052908152604090205473ffffffffffffffffffffffffffffffffffffffff1681565b60006020828403121560c2578081fd5b503591905056fea26469706673582212208ecdd28f1de664531b51de337c30a6f21376b455d89d6e27cef9d1e82c6b667664736f6c63430008040033",
  "linkReferences": {},
  "deployedLinkReferences": {}
}