{
  "_format": "hh-sol-artifact-1",
  "contractName": "BCNFTMarketplace",
  "sourceName": "contracts/BCNFTMarketplace.sol",
  "abi": [
    {
      "inputs": [
        {
          "internalType": "address",
          "name": "nftContract_",
          "type": "address"
        },
        {
          "internalType": "address",
          "name": "WBNBAddress_",
          "type": "address"
        },
        {
          "internalType": "address",
          "name": "adminRecoveryAddress_",
          "type": "address"
        },
        {
          "internalType": "address",
          "name": "bcPaymentAddress_",
          "type": "address"
        },
        {
          "internalType": "address",
          "name": "bcTokenAddress_",
          "type": "address"
        }
      ],
      "stateMutability": "nonpayable",
      "type": "constructor"
    },
    {
      "anonymous": false,
      "inputs": [
        {
          "indexed": true,
          "internalType": "uint256",
          "name": "tokenId",
          "type": "uint256"
        },
        {
          "indexed": false,
          "internalType": "address",
          "name": "nftContractAddress",
          "type": "address"
        },
        {
          "indexed": false,
          "internalType": "address",
          "name": "sender",
          "type": "address"
        },
        {
          "indexed": false,
          "internalType": "uint256",
          "name": "value",
          "type": "uint256"
        }
      ],
      "name": "AuctionBid",
      "type": "event"
    },
    {
      "anonymous": false,
      "inputs": [
        {
          "indexed": true,
          "internalType": "uint256",
          "name": "tokenId",
          "type": "uint256"
        },
        {
          "indexed": false,
          "internalType": "address",
          "name": "nftContractAddress",
          "type": "address"
        },
        {
          "indexed": false,
          "internalType": "address",
          "name": "Creator",
          "type": "address"
        }
      ],
      "name": "AuctionCanceled",
      "type": "event"
    },
    {
      "anonymous": false,
      "inputs": [
        {
          "indexed": true,
          "internalType": "uint256",
          "name": "tokenId",
          "type": "uint256"
        },
        {
          "indexed": false,
          "internalType": "uint256",
          "name": "auctionStart",
          "type": "uint256"
        },
        {
          "indexed": false,
          "internalType": "uint256",
          "name": "duration",
          "type": "uint256"
        },
        {
          "indexed": false,
          "internalType": "uint256",
          "name": "reservePrice",
          "type": "uint256"
        },
        {
          "indexed": false,
          "internalType": "string",
          "name": "paymentType",
          "type": "string"
        },
        {
          "indexed": false,
          "internalType": "address",
          "name": "Creator",
          "type": "address"
        }
      ],
      "name": "AuctionCreated",
      "type": "event"
    },
    {
      "anonymous": false,
      "inputs": [
        {
          "indexed": true,
          "internalType": "uint256",
          "name": "tokenId",
          "type": "uint256"
        },
        {
          "indexed": false,
          "internalType": "address",
          "name": "nftContractAddress",
          "type": "address"
        },
        {
          "indexed": false,
          "internalType": "address",
          "name": "Creator",
          "type": "address"
        },
        {
          "indexed": false,
          "internalType": "address",
          "name": "winner",
          "type": "address"
        },
        {
          "indexed": false,
          "internalType": "uint256",
          "name": "amount",
          "type": "uint256"
        },
        {
          "indexed": false,
          "internalType": "address",
          "name": "nftCreator",
          "type": "address"
        }
      ],
      "name": "AuctionEnded",
      "type": "event"
    },
    {
      "anonymous": false,
      "inputs": [
        {
          "indexed": false,
          "internalType": "uint256",
          "name": "nftID",
          "type": "uint256"
        }
      ],
      "name": "Burned",
      "type": "event"
    },
    {
      "anonymous": false,
      "inputs": [
        {
          "indexed": true,
          "internalType": "uint256",
          "name": "tokenId",
          "type": "uint256"
        },
        {
          "indexed": false,
          "internalType": "address",
          "name": "Creator",
          "type": "address"
        },
        {
          "indexed": false,
          "internalType": "uint256",
          "name": "amount",
          "type": "uint256"
        }
      ],
      "name": "CreatorFeePercentTransfer",
      "type": "event"
    },
    {
      "anonymous": false,
      "inputs": [
        {
          "indexed": true,
          "internalType": "address",
          "name": "sender",
          "type": "address"
        },
        {
          "indexed": true,
          "internalType": "address",
          "name": "receiver",
          "type": "address"
        },
        {
          "indexed": false,
          "internalType": "uint256",
          "name": "tokenId",
          "type": "uint256"
        }
      ],
      "name": "Giveaway",
      "type": "event"
    },
    {
      "anonymous": false,
      "inputs": [
        {
          "indexed": true,
          "internalType": "address",
          "name": "minter",
          "type": "address"
        },
        {
          "indexed": false,
          "internalType": "uint256",
          "name": "nftID",
          "type": "uint256"
        },
        {
          "indexed": false,
          "internalType": "bool",
          "name": "status",
          "type": "bool"
        }
      ],
      "name": "Minted",
      "type": "event"
    },
    {
      "anonymous": false,
      "inputs": [
        {
          "indexed": true,
          "internalType": "address",
          "name": "owner",
          "type": "address"
        },
        {
          "indexed": false,
          "internalType": "uint256",
          "name": "nftID",
          "type": "uint256"
        },
        {
          "indexed": false,
          "internalType": "bool",
          "name": "isListed",
          "type": "bool"
        }
      ],
      "name": "NftListStatus",
      "type": "event"
    },
    {
      "anonymous": false,
      "inputs": [
        {
          "indexed": true,
          "internalType": "address",
          "name": "previousOwner",
          "type": "address"
        },
        {
          "indexed": true,
          "internalType": "address",
          "name": "newOwner",
          "type": "address"
        }
      ],
      "name": "OwnershipTransferred",
      "type": "event"
    },
    {
      "anonymous": false,
      "inputs": [
        {
          "indexed": false,
          "internalType": "address",
          "name": "account",
          "type": "address"
        }
      ],
      "name": "Paused",
      "type": "event"
    },
    {
      "anonymous": false,
      "inputs": [
        {
          "indexed": true,
          "internalType": "address",
          "name": "owner",
          "type": "address"
        },
        {
          "indexed": false,
          "internalType": "uint256",
          "name": "oldPrice",
          "type": "uint256"
        },
        {
          "indexed": false,
          "internalType": "uint256",
          "name": "newPrice",
          "type": "uint256"
        },
        {
          "indexed": false,
          "internalType": "uint256",
          "name": "nftID",
          "type": "uint256"
        }
      ],
      "name": "PriceUpdate",
      "type": "event"
    },
    {
      "anonymous": false,
      "inputs": [
        {
          "indexed": true,
          "internalType": "address",
          "name": "previousOwner",
          "type": "address"
        },
        {
          "indexed": true,
          "internalType": "address",
          "name": "newOwner",
          "type": "address"
        },
        {
          "indexed": false,
          "internalType": "uint256",
          "name": "price",
          "type": "uint256"
        },
        {
          "indexed": false,
          "internalType": "uint256",
          "name": "nftID",
          "type": "uint256"
        }
      ],
      "name": "Purchase",
      "type": "event"
    },
    {
      "anonymous": false,
      "inputs": [
        {
          "indexed": false,
          "internalType": "address",
          "name": "",
          "type": "address"
        },
        {
          "indexed": false,
          "internalType": "uint256",
          "name": "",
          "type": "uint256"
        }
      ],
      "name": "Received",
      "type": "event"
    },
    {
      "anonymous": false,
      "inputs": [
        {
          "indexed": false,
          "internalType": "uint256",
          "name": "amount",
          "type": "uint256"
        },
        {
          "indexed": false,
          "internalType": "address",
          "name": "wallet",
          "type": "address"
        }
      ],
      "name": "TokensWithdrawn",
      "type": "event"
    },
    {
      "anonymous": false,
      "inputs": [
        {
          "indexed": false,
          "internalType": "address",
          "name": "account",
          "type": "address"
        }
      ],
      "name": "Unpaused",
      "type": "event"
    },
    {
      "anonymous": false,
      "inputs": [
        {
          "indexed": false,
          "internalType": "uint256",
          "name": "amount",
          "type": "uint256"
        },
        {
          "indexed": false,
          "internalType": "address",
          "name": "wallet",
          "type": "address"
        }
      ],
      "name": "Withdrawn",
      "type": "event"
    },
    {
      "inputs": [],
      "name": "MIN_BID_INCREMENT_PERCENT",
      "outputs": [
        {
          "internalType": "uint8",
          "name": "",
          "type": "uint8"
        }
      ],
      "stateMutability": "view",
      "type": "function"
    },
    {
      "inputs": [],
      "name": "TIME_BUFFER",
      "outputs": [
        {
          "internalType": "uint16",
          "name": "",
          "type": "uint16"
        }
      ],
      "stateMutability": "view",
      "type": "function"
    },
    {
      "inputs": [],
      "name": "WBNBAddress",
      "outputs": [
        {
          "internalType": "address",
          "name": "",
          "type": "address"
        }
      ],
      "stateMutability": "view",
      "type": "function"
    },
    {
      "inputs": [
        {
          "internalType": "uint256[]",
          "name": "_newtokenIds",
          "type": "uint256[]"
        },
        {
          "internalType": "address[]",
          "name": "_creators",
          "type": "address[]"
        },
        {
          "internalType": "uint256[]",
          "name": "_prices",
          "type": "uint256[]"
        },
        {
          "internalType": "address[]",
          "name": "_owners",
          "type": "address[]"
        },
        {
          "internalType": "uint256[]",
          "name": "_royalties",
          "type": "uint256[]"
        },
        {
          "internalType": "bool[]",
          "name": "_listedMap",
          "type": "bool[]"
        }
      ],
      "name": "addCreatorMap",
      "outputs": [],
      "stateMutability": "nonpayable",
      "type": "function"
    },
    {
      "inputs": [],
      "name": "adminRecoveryAddress",
      "outputs": [
        {
          "internalType": "address",
          "name": "",
          "type": "address"
        }
      ],
      "stateMutability": "view",
      "type": "function"
    },
    {
      "inputs": [],
      "name": "adminRecoveryEnabled",
      "outputs": [
        {
          "internalType": "bool",
          "name": "",
          "type": "bool"
        }
      ],
      "stateMutability": "view",
      "type": "function"
    },
    {
      "inputs": [
        {
          "internalType": "uint256",
          "name": "",
          "type": "uint256"
        }
      ],
      "name": "auctions",
      "outputs": [
        {
          "internalType": "uint256",
          "name": "amount",
          "type": "uint256"
        },
        {
          "internalType": "uint256",
          "name": "duration",
          "type": "uint256"
        },
        {
          "internalType": "uint256",
          "name": "firstBidTime",
          "type": "uint256"
        },
        {
          "internalType": "uint256",
          "name": "reservePrice",
          "type": "uint256"
        },
        {
          "internalType": "string",
          "name": "paymentType",
          "type": "string"
        },
        {
          "internalType": "uint8",
          "name": "CreatorFeePercent",
          "type": "uint8"
        },
        {
          "internalType": "address",
          "name": "Creator",
          "type": "address"
        },
        {
          "internalType": "address payable",
          "name": "bidder",
          "type": "address"
        },
        {
          "internalType": "address payable",
          "name": "fundsRecipient",
          "type": "address"
        }
      ],
      "stateMutability": "view",
      "type": "function"
    },
    {
      "inputs": [
        {
          "internalType": "uint256",
          "name": "_id",
          "type": "uint256"
        }
      ],
      "name": "burn",
      "outputs": [],
      "stateMutability": "nonpayable",
      "type": "function"
    },
    {
      "inputs": [
        {
          "internalType": "uint256",
          "name": "_id",
          "type": "uint256"
        },
        {
          "internalType": "uint256",
          "name": "_price",
          "type": "uint256"
        },
        {
          "internalType": "string",
          "name": "paymentType",
          "type": "string"
        }
      ],
      "name": "buy",
      "outputs": [],
      "stateMutability": "payable",
      "type": "function"
    },
    {
      "inputs": [
        {
          "internalType": "uint256",
          "name": "tokenId",
          "type": "uint256"
        }
      ],
      "name": "cancelAuction",
      "outputs": [],
      "stateMutability": "nonpayable",
      "type": "function"
    },
    {
      "inputs": [
        {
          "internalType": "uint256",
          "name": "_id",
          "type": "uint256"
        }
      ],
      "name": "closeTrade",
      "outputs": [],
      "stateMutability": "nonpayable",
      "type": "function"
    },
    {
      "inputs": [
        {
          "internalType": "uint256",
          "name": "tokenId",
          "type": "uint256"
        },
        {
          "internalType": "uint256",
          "name": "duration",
          "type": "uint256"
        },
        {
          "internalType": "uint256",
          "name": "reservePrice",
          "type": "uint256"
        },
        {
          "internalType": "string",
          "name": "paymentType",
          "type": "string"
        },
        {
          "internalType": "address",
          "name": "Creator",
          "type": "address"
        }
      ],
      "name": "createAuction",
      "outputs": [],
      "stateMutability": "nonpayable",
      "type": "function"
    },
    {
      "inputs": [
        {
          "internalType": "uint256",
          "name": "tokenId",
          "type": "uint256"
        },
        {
          "internalType": "string",
          "name": "paymentType",
          "type": "string"
        },
        {
          "internalType": "uint256",
          "name": "amount",
          "type": "uint256"
        }
      ],
      "name": "createBid",
      "outputs": [],
      "stateMutability": "payable",
      "type": "function"
    },
    {
      "inputs": [
        {
          "internalType": "uint256",
          "name": "",
          "type": "uint256"
        }
      ],
      "name": "creatorMap",
      "outputs": [
        {
          "internalType": "address",
          "name": "",
          "type": "address"
        }
      ],
      "stateMutability": "view",
      "type": "function"
    },
    {
      "inputs": [
        {
          "internalType": "uint256",
          "name": "tokenId",
          "type": "uint256"
        }
      ],
      "name": "endAuction",
      "outputs": [],
      "stateMutability": "nonpayable",
      "type": "function"
    },
    {
      "inputs": [],
      "name": "getVersion",
      "outputs": [
        {
          "internalType": "uint256",
          "name": "version",
          "type": "uint256"
        }
      ],
      "stateMutability": "pure",
      "type": "function"
    },
    {
      "inputs": [
        {
          "internalType": "address",
          "name": "_to",
          "type": "address"
        },
        {
          "internalType": "uint256",
          "name": "_id",
          "type": "uint256"
        }
      ],
      "name": "giveaway",
      "outputs": [],
      "stateMutability": "nonpayable",
      "type": "function"
    },
    {
      "inputs": [
        {
          "internalType": "uint256",
          "name": "",
          "type": "uint256"
        }
      ],
      "name": "listedMap",
      "outputs": [
        {
          "internalType": "bool",
          "name": "",
          "type": "bool"
        }
      ],
      "stateMutability": "view",
      "type": "function"
    },
    {
      "inputs": [],
      "name": "marketFeeForBNB",
      "outputs": [
        {
          "internalType": "uint256",
          "name": "",
          "type": "uint256"
        }
      ],
      "stateMutability": "view",
      "type": "function"
    },
    {
      "inputs": [],
      "name": "marketFeeForToken",
      "outputs": [
        {
          "internalType": "uint256",
          "name": "",
          "type": "uint256"
        }
      ],
      "stateMutability": "view",
      "type": "function"
    },
    {
      "inputs": [
        {
          "internalType": "uint256",
          "name": "number",
          "type": "uint256"
        },
        {
          "internalType": "uint256[]",
          "name": "_level",
          "type": "uint256[]"
        }
      ],
      "name": "mint",
      "outputs": [],
      "stateMutability": "payable",
      "type": "function"
    },
    {
      "inputs": [],
      "name": "mintPrice",
      "outputs": [
        {
          "internalType": "uint256",
          "name": "",
          "type": "uint256"
        }
      ],
      "stateMutability": "view",
      "type": "function"
    },
    {
      "inputs": [],
      "name": "nftContract",
      "outputs": [
        {
          "internalType": "address",
          "name": "",
          "type": "address"
        }
      ],
      "stateMutability": "view",
      "type": "function"
    },
    {
      "inputs": [
        {
          "internalType": "uint256",
          "name": "_id",
          "type": "uint256"
        },
        {
          "internalType": "uint256",
          "name": "_price",
          "type": "uint256"
        },
        {
          "internalType": "string",
          "name": "paymentType",
          "type": "string"
        }
      ],
      "name": "openTrade",
      "outputs": [],
      "stateMutability": "nonpayable",
      "type": "function"
    },
    {
      "inputs": [],
      "name": "owner",
      "outputs": [
        {
          "internalType": "address",
          "name": "",
          "type": "address"
        }
      ],
      "stateMutability": "view",
      "type": "function"
    },
    {
      "inputs": [
        {
          "internalType": "uint256",
          "name": "",
          "type": "uint256"
        }
      ],
      "name": "ownerMap",
      "outputs": [
        {
          "internalType": "address",
          "name": "",
          "type": "address"
        }
      ],
      "stateMutability": "view",
      "type": "function"
    },
    {
      "inputs": [],
      "name": "pauseContract",
      "outputs": [],
      "stateMutability": "nonpayable",
      "type": "function"
    },
    {
      "inputs": [],
      "name": "paused",
      "outputs": [
        {
          "internalType": "bool",
          "name": "",
          "type": "bool"
        }
      ],
      "stateMutability": "view",
      "type": "function"
    },
    {
      "inputs": [
        {
          "internalType": "uint256",
          "name": "",
          "type": "uint256"
        }
      ],
      "name": "paymentTokenMap",
      "outputs": [
        {
          "internalType": "string",
          "name": "",
          "type": "string"
        }
      ],
      "stateMutability": "view",
      "type": "function"
    },
    {
      "inputs": [
        {
          "internalType": "string",
          "name": "",
          "type": "string"
        }
      ],
      "name": "payoutAddressMap",
      "outputs": [
        {
          "internalType": "address",
          "name": "",
          "type": "address"
        }
      ],
      "stateMutability": "view",
      "type": "function"
    },
    {
      "inputs": [
        {
          "internalType": "uint256",
          "name": "",
          "type": "uint256"
        }
      ],
      "name": "price",
      "outputs": [
        {
          "internalType": "uint256",
          "name": "",
          "type": "uint256"
        }
      ],
      "stateMutability": "view",
      "type": "function"
    },
    {
      "inputs": [
        {
          "internalType": "uint256",
          "name": "amount",
          "type": "uint256"
        }
      ],
      "name": "recoverBNB",
      "outputs": [
        {
          "internalType": "bool",
          "name": "success",
          "type": "bool"
        }
      ],
      "stateMutability": "nonpayable",
      "type": "function"
    },
    {
      "inputs": [
        {
          "internalType": "uint256",
          "name": "tokenId",
          "type": "uint256"
        }
      ],
      "name": "recoverNFT",
      "outputs": [],
      "stateMutability": "nonpayable",
      "type": "function"
    },
    {
      "inputs": [],
      "name": "renounceOwnership",
      "outputs": [],
      "stateMutability": "nonpayable",
      "type": "function"
    },
    {
      "inputs": [
        {
          "internalType": "uint256",
          "name": "",
          "type": "uint256"
        }
      ],
      "name": "royaltyMap",
      "outputs": [
        {
          "internalType": "uint256",
          "name": "",
          "type": "uint256"
        }
      ],
      "stateMutability": "view",
      "type": "function"
    },
    {
      "inputs": [
        {
          "internalType": "uint256",
          "name": "_newMarketFeeForBNB",
          "type": "uint256"
        }
      ],
      "name": "setMarketFeeForBNB",
      "outputs": [],
      "stateMutability": "nonpayable",
      "type": "function"
    },
    {
      "inputs": [
        {
          "internalType": "uint256",
          "name": "_newMarketFeeForToken",
          "type": "uint256"
        }
      ],
      "name": "setMarketFeeForToken",
      "outputs": [],
      "stateMutability": "nonpayable",
      "type": "function"
    },
    {
      "inputs": [
        {
          "internalType": "string",
          "name": "_paymentToken",
          "type": "string"
        },
        {
          "internalType": "address",
          "name": "_tokenAddress",
          "type": "address"
        },
        {
          "internalType": "address",
          "name": "_payoutAddress",
          "type": "address"
        }
      ],
      "name": "setTokenAddress",
      "outputs": [],
      "stateMutability": "nonpayable",
      "type": "function"
    },
    {
      "inputs": [
        {
          "internalType": "string",
          "name": "",
          "type": "string"
        }
      ],
      "name": "tokenAddressMap",
      "outputs": [
        {
          "internalType": "address",
          "name": "",
          "type": "address"
        }
      ],
      "stateMutability": "view",
      "type": "function"
    },
    {
      "inputs": [
        {
          "internalType": "address",
          "name": "newOwner",
          "type": "address"
        }
      ],
      "name": "transferOwnership",
      "outputs": [],
      "stateMutability": "nonpayable",
      "type": "function"
    },
    {
      "inputs": [],
      "name": "turnOffAdminRecovery",
      "outputs": [],
      "stateMutability": "nonpayable",
      "type": "function"
    },
    {
      "inputs": [],
      "name": "unpauseContract",
      "outputs": [],
      "stateMutability": "nonpayable",
      "type": "function"
    },
    {
      "inputs": [
        {
          "internalType": "uint256",
          "name": "_tokenId",
          "type": "uint256"
        },
        {
          "internalType": "bool",
          "name": "shouldBeListed",
          "type": "bool"
        }
      ],
      "name": "updateListingStatus",
      "outputs": [
        {
          "internalType": "bool",
          "name": "",
          "type": "bool"
        }
      ],
      "stateMutability": "nonpayable",
      "type": "function"
    },
    {
      "inputs": [
        {
          "internalType": "uint256",
          "name": "_tokenId",
          "type": "uint256"
        },
        {
          "internalType": "uint256",
          "name": "_price",
          "type": "uint256"
        },
        {
          "internalType": "string",
          "name": "paymentType",
          "type": "string"
        }
      ],
      "name": "updatePrice",
      "outputs": [
        {
          "internalType": "bool",
          "name": "",
          "type": "bool"
        }
      ],
      "stateMutability": "nonpayable",
      "type": "function"
    },
    {
      "inputs": [],
      "name": "withdraw",
      "outputs": [],
      "stateMutability": "nonpayable",
      "type": "function"
    },
    {
      "inputs": [
        {
          "internalType": "string",
          "name": "_tokenName",
          "type": "string"
        },
        {
          "internalType": "uint256",
          "name": "_amount",
          "type": "uint256"
        }
      ],
      "name": "withdrawToken",
      "outputs": [],
      "stateMutability": "nonpayable",
      "type": "function"
    },
    {
      "stateMutability": "payable",
      "type": "receive"
    }
  ],
  "bytecode": "0x60e0604052600160005560326003556032600455600f6005553480156200002557600080fd5b506040516200571838038062005718833981016040819052620000489162000267565b6200005333620001f8565b6040516301ffc9a760e01b81526380ac58cd60e01b60048201526001600160a01b038616906301ffc9a79060240160206040518083038186803b1580156200009a57600080fd5b505afa158015620000af573d6000803e3d6000fd5b505050506040513d601f19601f82011682018060405250810190620000d59190620002d6565b6200014c5760405162461bcd60e51b815260206004820152603f60248201527f436f6e7472616374206174206e6674436f6e74726163745f206164647265737360448201527f20646f6573206e6f7420737570706f7274204e465420696e7465726661636500606482015260840160405180910390fd5b6001600160601b0319606086811b821660805285811b821660a05284901b1660c0526040518290600f90620001899061424360f01b815260020190565b9081526040805191829003602001822080546001600160a01b039485166001600160a01b03199182161790915561424360f01b8352600d6002840152905191829003602201909120805493909216921691909117905550506006805461ffff1916600117905550620002ff9050565b600180546001600160a01b038381166001600160a01b0319831681179093556040519116919082907f8be0079c531659141344cd1fd0a4f28419497f9722a3daafe3b4186f6b6457e090600090a35050565b80516001600160a01b03811681146200026257600080fd5b919050565b600080600080600060a086880312156200027f578081fd5b6200028a866200024a565b94506200029a602087016200024a565b9350620002aa604087016200024a565b9250620002ba606087016200024a565b9150620002ca608087016200024a565b90509295509295909350565b600060208284031215620002e8578081fd5b81518015158114620002f8578182fd5b9392505050565b60805160601c60a05160601c60c05160601c615300620004186000396000818161098d01528181610d17015281816117a001528181611f8e0152818161203d0152818161254e0152818161288c01528181612bc80152818161308a015281816135d9015281816136be01528181613e06015281816144e4015261457b0152600081816105c9015281816145d5015261466a0152600081816108f9015281816109f101528181610ae901528181610dd2015281816115c7015281816116f60152818161206c015281816122ea015281816123870152818161240a01528181612d9b01528181612f7001528181613449015281816134fd01528181613b38015281816142da0152818161435e01526147e701526153006000f3fe6080604052600436106103015760003560e01c80639037bab21161018f578063b9a2de3a116100e1578063ca1ce2af1161008a578063f2fde38b11610064578063f2fde38b1461093b578063f603939b1461095b578063fafe0d1f1461097b57600080fd5b8063ca1ce2af146108ba578063d56d229d146108e7578063f27da5e51461091b57600080fd5b8063bc8ba28f116100bb578063bc8ba28f14610843578063bc99681914610873578063c97a413a1461089a57600080fd5b8063b9a2de3a146107e3578063ba8a12b414610803578063bb7adeb41461082357600080fd5b806398c0559111610143578063a39cea841161011d578063a39cea8414610781578063a6e9d546146107a1578063b33712c5146107ce57600080fd5b806398c055911461072357806399331fdf146107385780639a8bfa2b1461074b57600080fd5b80639486e0a4116101745780639486e0a4146106c357806396b5a755146106e357806398214bcb1461070357600080fd5b80639037bab21461066c578063941d66db1461068257600080fd5b8063536531311161025357806370081fb9116101fc57806382b465b7116101d657806382b465b714610618578063892d5d94146106385780638da5cb5b1461064e57600080fd5b806370081fb9146105b7578063715018a6146105eb5780637788a3871461060057600080fd5b80635c975abb1161022d5780635c975abb146105435780636749b0ba146105605780636817c76c146105a157600080fd5b806353653131146104b557806353a636dd146104de578063571a26a01461050e57600080fd5b80632d69044f116102b55780633ccfd60b1161028f5780633ccfd60b1461046b57806342966c6814610480578063439766ce146104a057600080fd5b80632d69044f146103f757806333209e651461040a57806338a4cb5b1461041d57600080fd5b80630d8e6e2c116102e65780630d8e6e2c1461038757806317aa7f03146103aa57806326a49e37146103ca57600080fd5b8063050225ea146103455780630d6b33781461036757600080fd5b3661034057604080513381523460208201527f88a5966d370b9919b20f3e2c13ff65706f196a4e32cc2c12bf57088f88525874910160405180910390a1005b600080fd5b34801561035157600080fd5b50610365610360366004614bda565b6109af565b005b34801561037357600080fd5b50610365610382366004614def565b610bb4565b34801561039357600080fd5b5060015b6040519081526020015b60405180910390f35b3480156103b657600080fd5b506103656103c5366004614def565b610c63565b3480156103d657600080fd5b506103976103e5366004614def565b60076020526000908152604090205481565b610365610405366004614e1f565b610d12565b610365610418366004614e93565b610ef7565b34801561042957600080fd5b50610453610438366004614def565b600a602052600090815260409020546001600160a01b031681565b6040516001600160a01b0390911681526020016103a1565b34801561047757600080fd5b5061036561163a565b34801561048c57600080fd5b5061036561049b366004614def565b6116c7565b3480156104ac57600080fd5b5061036561179e565b3480156104c157600080fd5b506104cb61038481565b60405161ffff90911681526020016103a1565b3480156104ea57600080fd5b506104fe6104f9366004614ee1565b611877565b60405190151581526020016103a1565b34801561051a57600080fd5b5061052e610529366004614def565b611960565b6040516103a1999897969594939291906150d2565b34801561054f57600080fd5b50600654610100900460ff166104fe565b34801561056c57600080fd5b5061045361057b366004614d0f565b8051602081830181018051600f825292820191909301209152546001600160a01b031681565b3480156105ad57600080fd5b5061039760055481565b3480156105c357600080fd5b506104537f000000000000000000000000000000000000000000000000000000000000000081565b3480156105f757600080fd5b50610365611a44565b34801561060c57600080fd5b5060065460ff166104fe565b34801561062457600080fd5b50610365610633366004614c05565b611aaa565b34801561064457600080fd5b5061039760035481565b34801561065a57600080fd5b506001546001600160a01b0316610453565b34801561067857600080fd5b5061039760045481565b34801561068e57600080fd5b5061045361069d366004614d0f565b8051602081830181018051600d825292820191909301209152546001600160a01b031681565b3480156106cf57600080fd5b506103656106de366004614def565b611f8c565b3480156106ef57600080fd5b506103656106fe366004614def565b6120cb565b34801561070f57600080fd5b506104fe61071e366004614e64565b6123f1565b34801561072f57600080fd5b5061036561254c565b610365610746366004614ee1565b6125ec565b34801561075757600080fd5b50610453610766366004614def565b600c602052600090815260409020546001600160a01b031681565b34801561078d57600080fd5b5061036561079c366004614def565b612e85565b3480156107ad57600080fd5b506103976107bc366004614def565b600b6020526000908152604090205481565b3480156107da57600080fd5b50610365613088565b3480156107ef57600080fd5b506103656107fe366004614def565b613157565b34801561080f57600080fd5b5061036561081e366004614d4a565b613bbf565b34801561082f57600080fd5b5061036561083e366004614f2f565b613ca1565b34801561084f57600080fd5b506104fe61085e366004614def565b60086020526000908152604090205460ff1681565b34801561087f57600080fd5b50610888600a81565b60405160ff90911681526020016103a1565b3480156108a657600080fd5b506103656108b5366004614dac565b613f3a565b3480156108c657600080fd5b506108da6108d5366004614def565b614146565b6040516103a1919061507f565b3480156108f357600080fd5b506104537f000000000000000000000000000000000000000000000000000000000000000081565b34801561092757600080fd5b50610365610936366004614ee1565b6141e0565b34801561094757600080fd5b50610365610956366004614ba2565b614401565b34801561096757600080fd5b506104fe610976366004614def565b6144e0565b34801561098757600080fd5b506104537f000000000000000000000000000000000000000000000000000000000000000081565b60008181526008602052604090205460ff16610a52576040516323b872dd60e01b81523360048201526001600160a01b038381166024830152604482018390527f000000000000000000000000000000000000000000000000000000000000000016906323b872dd90606401600060405180830381600087803b158015610a3557600080fd5b505af1158015610a49573d6000803e3d6000fd5b50505050610b50565b6000818152600c60205260409020546001600160a01b03163314610abd5760405162461bcd60e51b815260206004820152601360248201527f73656e646572206973206e6f74206f776e65720000000000000000000000000060448201526064015b60405180910390fd5b6040516323b872dd60e01b81523060048201526001600160a01b038381166024830152604482018390527f000000000000000000000000000000000000000000000000000000000000000016906323b872dd90606401600060405180830381600087803b158015610b2d57600080fd5b505af1158015610b41573d6000803e3d6000fd5b50505060008290525060086020525b6000818152600c602090815260409182902080546001600160a01b0319166001600160a01b038616908117909155915183815233917f4abe537933cf6821c78fd52b40560aa40ad6f997168b53f9ea55a9b34420069b910160405180910390a35050565b6001546001600160a01b03163314610c0e5760405162461bcd60e51b815260206004820181905260248201527f4f776e61626c653a2063616c6c6572206973206e6f7420746865206f776e65726044820152606401610ab4565b60018111610c5e5760405162461bcd60e51b815260206004820152601b60248201527f496e76616c6964204d61726b657446656520466f7220546f6b656e00000000006044820152606401610ab4565b600455565b6001546001600160a01b03163314610cbd5760405162461bcd60e51b815260206004820181905260248201527f4f776e61626c653a2063616c6c6572206973206e6f7420746865206f776e65726044820152606401610ab4565b60018111610d0d5760405162461bcd60e51b815260206004820152601960248201527f496e76616c6964204d61726b657446656520466f7220424e42000000000000006044820152606401610ab4565b600355565b610d5b7f0000000000000000000000000000000000000000000000000000000000000000610d5684610d5060646005546145a690919063ffffffff16565b906145b9565b6145c5565b60005b82811015610ef2576000610d7160025490565b9050610d81600280546001019055565b6000818152600a602090815260408083208054336001600160a01b03199182168117909255600c84528285208054909116909117905560089091529020805460ff1916905582516001600160a01b037f000000000000000000000000000000000000000000000000000000000000000016906394bf804d90859085908110610e1957634e487b7160e01b600052603260045260246000fd5b6020026020010151336040518363ffffffff1660e01b8152600401610e519291909182526001600160a01b0316602082015260400190565b602060405180830381600087803b158015610e6b57600080fd5b505af1158015610e7f573d6000803e3d6000fd5b505050506040513d601f19601f82011682018060405250810190610ea39190614e07565b50604080518281526000602082015233917f53ad8893610de0fa6656f026deb942f5cde3d84f4c68f80c8b376f70c1a0f389910160405180910390a25080610eea81615260565b915050610d5e565b505050565b6001600080828254610f09919061518b565b9091555050600054600654610100900460ff1615610f5e5760405162461bcd60e51b815260206004820152601260248201527110dbdb9d1c9858dd081a5cc81c185d5cd95960721b6044820152606401610ab4565b83610f878160009081526009602052604090206005015461010090046001600160a01b03161590565b15610fd45760405162461bcd60e51b815260206004820152601560248201527f41756374696f6e20646f65736e277420657869737400000000000000000000006044820152606401610ab4565b60008581526009602052604090206002015485901580610ffb5750610ff8816146ea565b42105b6110475760405162461bcd60e51b815260206004820152600f60248201527f41756374696f6e206578706972656400000000000000000000000000000000006044820152606401610ab4565b600084116110975760405162461bcd60e51b815260206004820152601d60248201527f416d6f756e74206d7573742062652067726561746572207468616e20300000006044820152606401610ab4565b60008681526009602090815260409182902091516110b9926004019101614fe4565b60405160208183030381529060405280519060200120856040516020016110e09190614fc8565b60405160208183030381529060405280519060200120146111435760405162461bcd60e51b815260206004820152601d60248201527f5061796d656e7454797065206973206e6f74206d69736d6174636865640000006044820152606401610ab4565b6040516221272160e91b6020820152602301604051602081830303815290604052805190602001208560405160200161117c9190614fc8565b6040516020818303038152906040528051906020012014156111ec573484146111e75760405162461bcd60e51b815260206004820152601e60248201527f416d6f756e7420646f65736e277420657175616c206d73672e76616c756500006044820152606401610ab4565b6112ce565b600d856040516111fc9190614fc8565b908152604051908190036020018120546370a0823160e01b82523360048301526001600160a01b0316906370a082319060240160206040518083038186803b15801561124757600080fd5b505afa15801561125b573d6000803e3d6000fd5b505050506040513d601f19601f8201168201806040525081019061127f9190614e07565b8410156112ce5760405162461bcd60e51b815260206004820152601a60248201527f496e73756666696369656e7420746f6b656e2062616c616e63650000000000006044820152606401610ab4565b600086815260096020526040902054611347576000868152600960205260409020600301548410156113425760405162461bcd60e51b815260206004820152601d60248201527f4d7573742062696420726573657276655072696365206f72206d6f72650000006044820152606401610ab4565b611535565b600086815260096020526040902054611387906113729060649061136c90600a6145b9565b906145a6565b60008881526009602052604090205490614708565b8410156113fc5760405162461bcd60e51b815260206004820152603f60248201527f4d75737420626964206d6f7265207468616e206c61737420626964206279204d60448201527f494e5f4249445f494e4352454d454e545f50455243454e5420616d6f756e74006064820152608401610ab4565b6040516221272160e91b602082015260230160405160208183030381529060405280519060200120856040516020016114359190614fc8565b60405160208183030381529060405280519060200120141561147957600086815260096020526040902060068101549054611342916001600160a01b0316906145c5565b600d856040516114899190614fc8565b90815260408051602092819003830181205460008a81526009909452919092206006810154905463a9059cbb60e01b84526001600160a01b0391821660048501526024840152169063a9059cbb90604401602060405180830381600087803b1580156114f457600080fd5b505af1158015611508573d6000803e3d6000fd5b505050506040513d601f19601f8201168201806040525081019061152c9190614cf3565b61153557600080fd5b600086815260096020526040902084815560060180546001600160a01b0319163317905561156542610384614708565b61156e876146ea565b10156115b957611592611580876146ea565b61158c42610384614708565b90614714565b600087815260096020526040812060010180549091906115b390849061518b565b90915550505b604080516001600160a01b037f000000000000000000000000000000000000000000000000000000000000000016815233602082015290810185905286907f3bb6f40a8aeb5dda33c401527cd8f6bd335757d2b1ed2827f0321a090c66b8249060600160405180910390a25050600054811461163457600080fd5b50505050565b6001546001600160a01b031633146116945760405162461bcd60e51b815260206004820181905260248201527f4f776e61626c653a2063616c6c6572206973206e6f7420746865206f776e65726044820152606401610ab4565b6040514790339082156108fc029083906000818181858888f193505050501580156116c3573d6000803e3d6000fd5b5050565b6040517f42966c68000000000000000000000000000000000000000000000000000000008152600481018290527f00000000000000000000000000000000000000000000000000000000000000006001600160a01b0316906342966c6890602401600060405180830381600087803b15801561174257600080fd5b505af1158015611756573d6000803e3d6000fd5b505050600091825250600a6020908152604080832080546001600160a01b0319908116909155600b8352818420849055600c8352818420805490911690556007909152812055565b7f00000000000000000000000000000000000000000000000000000000000000006001600160a01b0316331480156117d8575060065460ff165b6118325760405162461bcd60e51b815260206004820152602560248201527f43616c6c657220646f6573206e6f7420686176652061646d696e2070726976696044820152646c6567657360d81b6064820152608401610ab4565b6006805461ff0019166101001790556040513381527f62e78cea01bee320cd4e420270b5ea74000d11b0c9f74754ebdbfc544b05a258906020015b60405180910390a1565b600083815260076020908152604080832054600c9092528220546001600160a01b031633146118e85760405162461bcd60e51b815260206004820152601c60248201527f4572726f722c20796f7520617265206e6f7420746865206f776e6572000000006044820152606401610ab4565b6000858152600760209081526040808320879055600e825290912084516119119286019061492d565b50604080518281526020810186905290810186905233907f8647dab5101cbe18afb171756e9753802f9d66725bf2346b079b8b1a275e01169060600160405180910390a2506001949350505050565b60096020526000908152604090208054600182015460028301546003840154600485018054949593949293919261199690615225565b80601f01602080910402602001604051908101604052809291908181526020018280546119c290615225565b8015611a0f5780601f106119e457610100808354040283529160200191611a0f565b820191906000526020600020905b8154815290600101906020018083116119f257829003601f168201915b50505060058401546006850154600790950154939460ff8216946001600160a01b036101009093048316945090821692501689565b6001546001600160a01b03163314611a9e5760405162461bcd60e51b815260206004820181905260248201527f4f776e61626c653a2063616c6c6572206973206e6f7420746865206f776e65726044820152606401610ab4565b611aa86000614720565b565b6001546001600160a01b03163314611b045760405162461bcd60e51b815260206004820181905260248201527f4f776e61626c653a2063616c6c6572206973206e6f7420746865206f776e65726044820152606401610ab4565b8451865114611b7b5760405162461bcd60e51b815260206004820152602860248201527f746f6b656e49447320616e642063726561746f727320617265206e6f74206d6960448201527f736d6174636865640000000000000000000000000000000000000000000000006064820152608401610ab4565b8351865114611bdc5760405162461bcd60e51b815260206004820152602760248201527f746f6b656e49447320616e64205f70726963657320617265206e6f74206d69736044820152661b585d18da195960ca1b6064820152608401610ab4565b8251865114611c3d5760405162461bcd60e51b815260206004820152602760248201527f746f6b656e49447320616e64205f6f776e65727320617265206e6f74206d69736044820152661b585d18da195960ca1b6064820152608401610ab4565b8151865114611ca15760405162461bcd60e51b815260206004820152602a60248201527f746f6b656e49447320616e64205f726f79616c7469657320617265206e6f74206044820152691b5a5cdb585d18da195960b21b6064820152608401610ab4565b8051865114611d055760405162461bcd60e51b815260206004820152602a60248201527f746f6b656e49447320616e64205f6c69737465644d617020617265206e6f74206044820152691b5a5cdb585d18da195960b21b6064820152608401610ab4565b60005b8651811015611f8357611d1f600280546001019055565b858181518110611d3f57634e487b7160e01b600052603260045260246000fd5b6020026020010151600a6000898481518110611d6b57634e487b7160e01b600052603260045260246000fd5b6020026020010151815260200190815260200160002060006101000a8154816001600160a01b0302191690836001600160a01b03160217905550848181518110611dc557634e487b7160e01b600052603260045260246000fd5b602002602001015160076000898481518110611df157634e487b7160e01b600052603260045260246000fd5b6020026020010151815260200190815260200160002081905550838181518110611e2b57634e487b7160e01b600052603260045260246000fd5b6020026020010151600c6000898481518110611e5757634e487b7160e01b600052603260045260246000fd5b6020026020010151815260200190815260200160002060006101000a8154816001600160a01b0302191690836001600160a01b03160217905550828181518110611eb157634e487b7160e01b600052603260045260246000fd5b6020026020010151600b6000898481518110611edd57634e487b7160e01b600052603260045260246000fd5b6020026020010151815260200190815260200160002081905550818181518110611f1757634e487b7160e01b600052603260045260246000fd5b602002602001015160086000898481518110611f4357634e487b7160e01b600052603260045260246000fd5b6020026020010151815260200190815260200160002060006101000a81548160ff0219169083151502179055508080611f7b90615260565b915050611d08565b50505050505050565b7f00000000000000000000000000000000000000000000000000000000000000006001600160a01b031633148015611fc6575060065460ff165b6120205760405162461bcd60e51b815260206004820152602560248201527f43616c6c657220646f6573206e6f7420686176652061646d696e2070726976696044820152646c6567657360d81b6064820152608401610ab4565b6040516323b872dd60e01b81523060048201526001600160a01b037f000000000000000000000000000000000000000000000000000000000000000081166024830152604482018390527f000000000000000000000000000000000000000000000000000000000000000016906323b872dd90606401600060405180830381600087803b1580156120b057600080fd5b505af11580156120c4573d6000803e3d6000fd5b5050505050565b60016000808282546120dd919061518b565b90915550506000548161210e8160009081526009602052604090206005015461010090046001600160a01b03161590565b1561215b5760405162461bcd60e51b815260206004820152601560248201527f41756374696f6e20646f65736e277420657869737400000000000000000000006044820152606401610ab4565b600083815260096020526040902060050154839061010090046001600160a01b031633146121d95760405162461bcd60e51b815260206004820152602560248201527f43616e206f6e6c792062652063616c6c65642062792061756374696f6e20437260448201526432b0ba37b960d91b6064820152608401610ab4565b600084815260096020526040902054156122355760405162461bcd60e51b815260206004820152601760248201527f41756374696f6e20616c726561647920737461727465640000000000000000006044820152606401610ab4565b6000848152600960205260408120600581015482825560018201839055600282018390556003820183905561010090046001600160a01b03169161227c60048301826149b1565b5060058101805474ffffffffffffffffffffffffffffffffffffffffff191690556006810180546001600160a01b03199081169091556007909101805490911690556040516323b872dd60e01b81523060048201526001600160a01b038281166024830152604482018790527f000000000000000000000000000000000000000000000000000000000000000016906323b872dd90606401600060405180830381600087803b15801561232e57600080fd5b505af1158015612342573d6000803e3d6000fd5b5050506000868152600860209081526040808320805460ff19169055600c82529182902080546001600160a01b0319166001600160a01b0386811691821790925583517f00000000000000000000000000000000000000000000000000000000000000009092168252918101919091528792507f31e46b3372adff8978a18a1c543a6b3a925ee693bdf7a7c54df36f30f87d290e910160405180910390a250505060005481146116c357600080fd5b6040516331a9108f60e11b8152600481018390526000907f00000000000000000000000000000000000000000000000000000000000000006001600160a01b031690636352211e9060240160206040518083038186803b15801561245457600080fd5b505afa158015612468573d6000803e3d6000fd5b505050506040513d601f19601f8201168201806040525081019061248c9190614bbe565b6001600160a01b0316336001600160a01b0316146124ec5760405162461bcd60e51b815260206004820152601c60248201527f4572726f722c20796f7520617265206e6f7420746865206f776e6572000000006044820152606401610ab4565b600083815260086020908152604091829020805460ff191685151590811790915582518681529182015233917f3fd63d9ca8dc693a1b9911e664951294721009a4f6239c862d6719a160a1edfc910160405180910390a250600192915050565b7f00000000000000000000000000000000000000000000000000000000000000006001600160a01b031633148015612586575060065460ff165b6125e05760405162461bcd60e51b815260206004820152602560248201527f43616c6c657220646f6573206e6f7420686176652061646d696e2070726976696044820152646c6567657360d81b6064820152608401610ab4565b6006805460ff19169055565b6125f583614772565b60008381526007602052604090205482146126525760405162461bcd60e51b815260206004820152601960248201527f4572726f722c207072696365206973206e6f74206d61746368000000000000006044820152606401610ab4565b6000838152600e60209081526040918290209151612671929101614fe4565b60405160208183030381529060405280519060200120816040516020016126989190614fc8565b60405160208183030381529060405280519060200120146126fb5760405162461bcd60e51b815260206004820181905260248201527f4572726f722c205061796d656e742054797065206973206e6f74206d617463686044820152606401610ab4565b6000838152600c602090815260408083205490516001600160a01b03909116929161273091016221272160e91b815260030190565b60405160208183030381529060405280519060200120836040516020016127579190614fc8565b6040516020818303038152906040528051906020012014156128b8576000858152600760205260409020543410156127f75760405162461bcd60e51b815260206004820152602a60248201527f6d73672e76616c75652073686f756c6420626520657175616c20746f2074686560448201527f20627579416d6f756e74000000000000000000000000000000000000000000006064820152608401610ab4565b600354600086815260076020526040812054909161281d916103e89161136c91906145b9565b6000878152600760205260408120549192509061284090849061158c9085614714565b6000888152600c6020526040902054909150612865906001600160a01b0316826145c5565b6000878152600a6020526040902054612887906001600160a01b0316846145c5565b6128b17f0000000000000000000000000000000000000000000000000000000000000000836145c5565b5050612d79565b60008581526007602052604090819020549051600d906128d9908690614fc8565b908152604051908190036020018120546370a0823160e01b82523360048301526001600160a01b0316906370a082319060240160206040518083038186803b15801561292457600080fd5b505afa158015612938573d6000803e3d6000fd5b505050506040513d601f19601f8201168201806040525081019061295c9190614e07565b10156129d05760405162461bcd60e51b815260206004820152603260248201527f746f6b656e2062616c616e63652073686f756c6420626520677265617465722060448201527f7468616e2074686520627579416d6f756e7400000000000000000000000000006064820152608401610ab4565b60045460008681526007602052604081205490916129f6916103e89161136c91906145b9565b60008781526007602052604081205491925090612a1990849061158c9085614714565b9050600d85604051612a2b9190614fc8565b90815260408051602092819003830181205460008b8152600c90945291909220546323b872dd60e01b83523360048401526001600160a01b0390811660248401526044830184905216906323b872dd90606401602060405180830381600087803b158015612a9857600080fd5b505af1158015612aac573d6000803e3d6000fd5b505050506040513d601f19601f82011682018060405250810190612ad09190614cf3565b612ad957600080fd5b600d85604051612ae99190614fc8565b90815260408051602092819003830181205460008b8152600a90945291909220546323b872dd60e01b83523360048401526001600160a01b0390811660248401526044830186905216906323b872dd90606401602060405180830381600087803b158015612b5657600080fd5b505af1158015612b6a573d6000803e3d6000fd5b505050506040513d601f19601f82011682018060405250810190612b8e9190614cf3565b612b9757600080fd5b600d85604051612ba79190614fc8565b908152604051908190036020019020546001600160a01b03166323b872dd337f0000000000000000000000000000000000000000000000000000000000000000612bf28660026145a6565b6040516001600160e01b031960e086901b1681526001600160a01b0393841660048201529290911660248301526044820152606401602060405180830381600087803b158015612c4157600080fd5b505af1158015612c55573d6000803e3d6000fd5b505050506040513d601f19601f82011682018060405250810190612c799190614cf3565b612c8257600080fd5b600d85604051612c929190614fc8565b908152604051908190036020018120546001600160a01b0316906323b872dd903390600f90612cc2908a90614fc8565b908152604051908190036020019020546001600160a01b0316612ce68660026145a6565b6040516001600160e01b031960e086901b1681526001600160a01b0393841660048201529290911660248301526044820152606401602060405180830381600087803b158015612d3557600080fd5b505af1158015612d49573d6000803e3d6000fd5b505050506040513d601f19601f82011682018060405250810190612d6d9190614cf3565b612d7657600080fd5b50505b6040516323b872dd60e01b8152306004820152336024820152604481018690527f00000000000000000000000000000000000000000000000000000000000000006001600160a01b0316906323b872dd90606401600060405180830381600087803b158015612de757600080fd5b505af1158015612dfb573d6000803e3d6000fd5b5050506000868152600c6020908152604080832080546001600160a01b0319163390811790915560088352818420805460ff1916905560078352928190205481519081529182018990529192506001600160a01b038516917f46661dab58311a6838247afecbee792192b4f27fc8b3e7168c66bc55ec2e404e910160405180910390a35050505050565b6000818152600c60205260409020546001600160a01b03163314612eeb5760405162461bcd60e51b815260206004820152601360248201527f73656e646572206973206e6f74206f776e6572000000000000000000000000006044820152606401610ab4565b60008181526008602052604090205460ff161515600114612f4e5760405162461bcd60e51b815260206004820152600e60248201527f416c726561647920636f6c7365640000000000000000000000000000000000006044820152606401610ab4565b6040516323b872dd60e01b8152306004820152336024820152604481018290527f00000000000000000000000000000000000000000000000000000000000000006001600160a01b0316906323b872dd90606401600060405180830381600087803b158015612fbc57600080fd5b505af1158015612fd0573d6000803e3d6000fd5b5050506000828152600860209081526040808320805460ff19169055600990915290206005015461010090046001600160a01b031633141590506130855760008181526009602052604081208181556001810182905560028101829055600381018290559061304260048301826149b1565b5060058101805474ffffffffffffffffffffffffffffffffffffffffff191690556006810180546001600160a01b03199081169091556007909101805490911690555b50565b7f00000000000000000000000000000000000000000000000000000000000000006001600160a01b0316331480156130c2575060065460ff165b61311c5760405162461bcd60e51b815260206004820152602560248201527f43616c6c657220646f6573206e6f7420686176652061646d696e2070726976696044820152646c6567657360d81b6064820152608401610ab4565b6006805461ff00191690556040513381527f5db9ee0a495bf2e6ff9c91a7834c1ba4fdd244a5e8aa4e537bd38aeae4b073aa9060200161186d565b6001600080828254613169919061518b565b9091555050600054600654610100900460ff16156131be5760405162461bcd60e51b815260206004820152601260248201527110dbdb9d1c9858dd081a5cc81c185d5cd95960721b6044820152606401610ab4565b6000828152600960205260409020600201548290158015906131e857506131e4816146ea565b4210155b6132345760405162461bcd60e51b815260206004820152601860248201527f41756374696f6e206861736e277420636f6d706c6574656400000000000000006044820152606401610ab4565b600083815260096020526040902060050154839061010090046001600160a01b031633148061327c57506000818152600960205260409020600601546001600160a01b031633145b6132d65760405162461bcd60e51b815260206004820152602560248201527f43616e206f6e6c792062652063616c6c65642062792061756374696f6e20437260448201526432b0ba37b960d91b6064820152608401610ab4565b6000848152600960205260408120600681015481546005830154600490930180546001600160a01b0393841695929461010090049093169261331790615225565b80601f016020809104026020016040519081016040528092919081815260200182805461334390615225565b80156133905780601f1061336557610100808354040283529160200191613390565b820191906000526020600020905b81548152906001019060200180831161337357829003601f168201915b50505060008b815260096020526040812081815560018101829055600281018290556003810182905593945091506133cd905060048301826149b1565b5060058101805474ffffffffffffffffffffffffffffffffffffffffff191690556006810180546001600160a01b03199081169091556007909101805490911690556001600160a01b0384166134d1576040516323b872dd60e01b81523060048201526001600160a01b038381166024830152604482018a90527f000000000000000000000000000000000000000000000000000000000000000016906323b872dd90606401600060405180830381600087803b15801561348d57600080fd5b505af11580156134a1573d6000803e3d6000fd5b5050506000898152600c6020526040902080546001600160a01b0319166001600160a01b03851617905550613b0a565b6040516323b872dd60e01b81523060048201526001600160a01b038581166024830152604482018a90527f000000000000000000000000000000000000000000000000000000000000000016906323b872dd90606401600060405180830381600087803b15801561354157600080fd5b505af1158015613555573d6000803e3d6000fd5b50505050604051602001613572906221272160e91b815260030190565b60405160208183030381529060405280519060200120816040516020016135999190614fc8565b60405160208183030381529060405280519060200120141561366f5760006135d26103e861136c600354876145b990919063ffffffff16565b90506135fe7f0000000000000000000000000000000000000000000000000000000000000000826145c5565b6000898152600a60205260409020546001600160a01b03848116911614156136335761362e83610d568684614714565b613669565b6000898152600a6020526040812054613655906001600160a01b0316826145c5565b61366784610d568461158c8986614714565b505b50613ae2565b600061368c6103e861136c600454876145b990919063ffffffff16565b9050600d8260405161369e9190614fc8565b908152604051908190036020019020546001600160a01b031663a9059cbb7f00000000000000000000000000000000000000000000000000000000000000006136e88460026145a6565b6040516001600160e01b031960e085901b1681526001600160a01b0390921660048301526024820152604401602060405180830381600087803b15801561372e57600080fd5b505af1158015613742573d6000803e3d6000fd5b505050506040513d601f19601f820116820180604052508101906137669190614cf3565b61376f57600080fd5b600d8260405161377f9190614fc8565b908152604051908190036020018120546001600160a01b03169063a9059cbb90600f906137ad908690614fc8565b908152604051908190036020019020546001600160a01b03166137d18460026145a6565b6040516001600160e01b031960e085901b1681526001600160a01b0390921660048301526024820152604401602060405180830381600087803b15801561381757600080fd5b505af115801561382b573d6000803e3d6000fd5b505050506040513d601f19601f8201168201806040525081019061384f9190614cf3565b61385857600080fd5b6000898152600a60205260409020546001600160a01b038481169116141561393f57600d8260405161388a9190614fc8565b908152604051908190036020019020546001600160a01b031663a9059cbb846138b38785614714565b6040516001600160e01b031960e085901b1681526001600160a01b0390921660048301526024820152604401602060405180830381600087803b1580156138f957600080fd5b505af115801561390d573d6000803e3d6000fd5b505050506040513d601f19601f820116820180604052508101906139319190614cf3565b61393a57600080fd5b613ae0565b6000898152600b60205260408120546139609060649061136c9088906145b9565b9050600d836040516139729190614fc8565b90815260408051602092819003830181205460008e8152600a909452919092205463a9059cbb60e01b83526001600160a01b03908116600484015260248301849052169063a9059cbb90604401602060405180830381600087803b1580156139d957600080fd5b505af11580156139ed573d6000803e3d6000fd5b505050506040513d601f19601f82011682018060405250810190613a119190614cf3565b613a1a57600080fd5b600d83604051613a2a9190614fc8565b908152604051908190036020019020546001600160a01b031663a9059cbb85613a578561158c8a87614714565b6040516001600160e01b031960e085901b1681526001600160a01b0390921660048301526024820152604401602060405180830381600087803b158015613a9d57600080fd5b505af1158015613ab1573d6000803e3d6000fd5b505050506040513d601f19601f82011682018060405250810190613ad59190614cf3565b613ade57600080fd5b505b505b6000888152600c6020526040902080546001600160a01b0319166001600160a01b0386161790555b6000888152600860209081526040808320805460ff19169055600a8252918290205482516001600160a01b037f00000000000000000000000000000000000000000000000000000000000000008116825280871693820193909352828816938101939093526060830186905216608082015288907f28e48213ce86ac133ca69274548aa4243a6e2433eee55213af64b46a2e719caf9060a00160405180910390a250505050505060005481146116c357600080fd5b6001546001600160a01b03163314613c195760405162461bcd60e51b815260206004820181905260248201527f4f776e61626c653a2063616c6c6572206973206e6f7420746865206f776e65726044820152606401610ab4565b81600d84604051613c2a9190614fc8565b908152602001604051809103902060006101000a8154816001600160a01b0302191690836001600160a01b0316021790555080600f84604051613c6d9190614fc8565b90815260405190819003602001902080546001600160a01b03929092166001600160a01b0319909216919091179055505050565b6001600080828254613cb3919061518b565b9091555050600054600654610100900460ff1615613d085760405162461bcd60e51b815260206004820152601260248201527110dbdb9d1c9858dd081a5cc81c185d5cd95960721b6044820152606401610ab4565b85613d318160009081526009602052604090206005015461010090046001600160a01b03161590565b613d7d5760405162461bcd60e51b815260206004820152601660248201527f41756374696f6e20616c726561647920657869737473000000000000000000006044820152606401610ab4565b6001600160a01b038316613d9057600080fd5b6000878152600c6020526040902080546001600160a01b03191633179055613db98786866141e0565b6040805161012081018252600080825260208083018a815242848601818152606086018c8152608087018c8152603260a08901526001600160a01b03808d1660c08a015260e089018890527f0000000000000000000000000000000000000000000000000000000000000000166101008901528f8752600986529790952086518155925160018401555160028301559251600382015593518051929492613e66926004850192019061492d565b5060a082015160058201805460c085015160ff90931674ffffffffffffffffffffffffffffffffffffffffff19909116176101006001600160a01b0393841681029190911790915560e08401516006840180546001600160a01b031990811692851692909217905593015160079092018054909316911617905560405188907faf28756bc1e562d40cb95e5867314a58926ea413130138ca11b3b2d6db787c6190613f1a9084908b908b908b908b90615092565b60405180910390a250506000548114613f3257600080fd5b505050505050565b6001546001600160a01b03163314613f945760405162461bcd60e51b815260206004820181905260248201527f4f776e61626c653a2063616c6c6572206973206e6f7420746865206f776e65726044820152606401610ab4565b6000600d83604051613fa69190614fc8565b908152604051908190036020018120546370a0823160e01b82523060048301526001600160a01b0316906370a082319060240160206040518083038186803b158015613ff157600080fd5b505afa158015614005573d6000803e3d6000fd5b505050506040513d601f19601f820116820180604052508101906140299190614e07565b9050808211156140a15760405162461bcd60e51b815260206004820152602660248201527f496e73756666696369656e7420746f6b656e2062616c616e636520746f20776960448201527f74686472617700000000000000000000000000000000000000000000000000006064820152608401610ab4565b600d836040516140b19190614fc8565b9081526040519081900360200181205463a9059cbb60e01b8252336004830152602482018390526001600160a01b03169063a9059cbb90604401602060405180830381600087803b15801561410557600080fd5b505af1158015614119573d6000803e3d6000fd5b505050506040513d601f19601f8201168201806040525081019061413d9190614cf3565b610ef257600080fd5b600e602052600090815260409020805461415f90615225565b80601f016020809104026020016040519081016040528092919081815260200182805461418b90615225565b80156141d85780601f106141ad576101008083540402835291602001916141d8565b820191906000526020600020905b8154815290600101906020018083116141bb57829003601f168201915b505050505081565b6000838152600c60205260409020546001600160a01b031633146142465760405162461bcd60e51b815260206004820152601360248201527f73656e646572206973206e6f74206f776e6572000000000000000000000000006044820152606401610ab4565b60008381526008602052604090205460ff16156142a55760405162461bcd60e51b815260206004820152600e60248201527f416c7265616479206f70656e65640000000000000000000000000000000000006044820152606401610ab4565b6040517f095ea7b3000000000000000000000000000000000000000000000000000000008152306004820152602481018490527f00000000000000000000000000000000000000000000000000000000000000006001600160a01b03169063095ea7b390604401600060405180830381600087803b15801561432657600080fd5b505af115801561433a573d6000803e3d6000fd5b50506040516323b872dd60e01b8152336004820152306024820152604481018690527f00000000000000000000000000000000000000000000000000000000000000006001600160a01b031692506323b872dd9150606401600060405180830381600087803b1580156143ac57600080fd5b505af11580156143c0573d6000803e3d6000fd5b5050506000848152600860209081526040808320805460ff1916600117905560078252808320869055600e825290912083516116349350909184019061492d565b6001546001600160a01b0316331461445b5760405162461bcd60e51b815260206004820181905260248201527f4f776e61626c653a2063616c6c6572206973206e6f7420746865206f776e65726044820152606401610ab4565b6001600160a01b0381166144d75760405162461bcd60e51b815260206004820152602660248201527f4f776e61626c653a206e6577206f776e657220697320746865207a65726f206160448201527f64647265737300000000000000000000000000000000000000000000000000006064820152608401610ab4565b61308581614720565b60007f00000000000000000000000000000000000000000000000000000000000000006001600160a01b03163314801561451c575060065460ff165b6145765760405162461bcd60e51b815260206004820152602560248201527f43616c6c657220646f6573206e6f7420686176652061646d696e2070726976696044820152646c6567657360d81b6064820152608401610ab4565b6145a07f0000000000000000000000000000000000000000000000000000000000000000836148ca565b92915050565b60006145b282846151a3565b9392505050565b60006145b282846151c3565b6145cf82826148ca565b6116c3577f00000000000000000000000000000000000000000000000000000000000000006001600160a01b031663d0e30db0826040518263ffffffff1660e01b81526004016000604051808303818588803b15801561462e57600080fd5b505af1158015614642573d6000803e3d6000fd5b505060405163a9059cbb60e01b81526001600160a01b038681166004830152602482018690527f000000000000000000000000000000000000000000000000000000000000000016935063a9059cbb92506044019050602060405180830381600087803b1580156146b257600080fd5b505af11580156146c6573d6000803e3d6000fd5b505050506040513d601f19601f82011682018060405250810190610ef29190614cf3565b600081815260096020526040812060018101546002909101546145a0915b60006145b2828461518b565b60006145b282846151e2565b600180546001600160a01b038381166001600160a01b0319831681179093556040519116919082907f8be0079c531659141344cd1fd0a4f28419497f9722a3daafe3b4186f6b6457e090600090a35050565b60008181526008602052604090205460ff16806147d15760405162461bcd60e51b815260206004820152601960248201527f4974656d206e6f74206c69737465642063757272656e746c79000000000000006044820152606401610ab4565b6040516331a9108f60e11b8152600481018390527f00000000000000000000000000000000000000000000000000000000000000006001600160a01b031690636352211e9060240160206040518083038186803b15801561483157600080fd5b505afa158015614845573d6000803e3d6000fd5b505050506040513d601f19601f820116820180604052508101906148699190614bbe565b6001600160a01b0316336001600160a01b031614156116c35760405162461bcd60e51b815260206004820152601860248201527f43616e206e6f7420627579207768617420796f75206f776e00000000000000006044820152606401610ab4565b600080836001600160a01b03168361753090604051600060405180830381858888f193505050503d806000811461491d576040519150601f19603f3d011682016040523d82523d6000602084013e614922565b606091505b509095945050505050565b82805461493990615225565b90600052602060002090601f01602090048101928261495b57600085556149a1565b82601f1061497457805160ff19168380011785556149a1565b828001600101855582156149a1579182015b828111156149a1578251825591602001919060010190614986565b506149ad9291506149e7565b5090565b5080546149bd90615225565b6000825580601f106149cd575050565b601f01602090049060005260206000209081019061308591905b5b808211156149ad57600081556001016149e8565b600082601f830112614a0c578081fd5b81356020614a21614a1c83615167565b615136565b80838252828201915082860187848660051b8901011115614a40578586fd5b855b85811015614a67578135614a55816152a7565b84529284019290840190600101614a42565b5090979650505050505050565b600082601f830112614a84578081fd5b81356020614a94614a1c83615167565b80838252828201915082860187848660051b8901011115614ab3578586fd5b855b85811015614a67578135614ac8816152bc565b84529284019290840190600101614ab5565b600082601f830112614aea578081fd5b81356020614afa614a1c83615167565b80838252828201915082860187848660051b8901011115614b19578586fd5b855b85811015614a6757813584529284019290840190600101614b1b565b600082601f830112614b47578081fd5b813567ffffffffffffffff811115614b6157614b61615291565b614b74601f8201601f1916602001615136565b818152846020838601011115614b88578283fd5b816020850160208301379081016020019190915292915050565b600060208284031215614bb3578081fd5b81356145b2816152a7565b600060208284031215614bcf578081fd5b81516145b2816152a7565b60008060408385031215614bec578081fd5b8235614bf7816152a7565b946020939093013593505050565b60008060008060008060c08789031215614c1d578182fd5b863567ffffffffffffffff80821115614c34578384fd5b614c408a838b01614ada565b97506020890135915080821115614c55578384fd5b614c618a838b016149fc565b96506040890135915080821115614c76578384fd5b614c828a838b01614ada565b95506060890135915080821115614c97578384fd5b614ca38a838b016149fc565b94506080890135915080821115614cb8578384fd5b614cc48a838b01614ada565b935060a0890135915080821115614cd9578283fd5b50614ce689828a01614a74565b9150509295509295509295565b600060208284031215614d04578081fd5b81516145b2816152bc565b600060208284031215614d20578081fd5b813567ffffffffffffffff811115614d36578182fd5b614d4284828501614b37565b949350505050565b600080600060608486031215614d5e578283fd5b833567ffffffffffffffff811115614d74578384fd5b614d8086828701614b37565b9350506020840135614d91816152a7565b91506040840135614da1816152a7565b809150509250925092565b60008060408385031215614dbe578182fd5b823567ffffffffffffffff811115614dd4578283fd5b614de085828601614b37565b95602094909401359450505050565b600060208284031215614e00578081fd5b5035919050565b600060208284031215614e18578081fd5b5051919050565b60008060408385031215614e31578182fd5b82359150602083013567ffffffffffffffff811115614e4e578182fd5b614e5a85828601614ada565b9150509250929050565b60008060408385031215614e76578182fd5b823591506020830135614e88816152bc565b809150509250929050565b600080600060608486031215614ea7578081fd5b83359250602084013567ffffffffffffffff811115614ec4578182fd5b614ed086828701614b37565b925050604084013590509250925092565b600080600060608486031215614ef5578081fd5b8335925060208401359150604084013567ffffffffffffffff811115614f19578182fd5b614f2586828701614b37565b9150509250925092565b600080600080600060a08688031215614f46578283fd5b853594506020860135935060408601359250606086013567ffffffffffffffff811115614f71578182fd5b614f7d88828901614b37565b9250506080860135614f8e816152a7565b809150509295509295909350565b60008151808452614fb48160208601602086016151f9565b601f01601f19169290920160200192915050565b60008251614fda8184602087016151f9565b9190910192915050565b600080835482600182811c91508083168061500057607f831692505b602080841082141561502057634e487b7160e01b87526022600452602487fd5b818015615034576001811461504557615071565b60ff19861689528489019650615071565b60008a815260209020885b868110156150695781548b820152908501908301615050565b505084890196505b509498975050505050505050565b6020815260006145b26020830184614f9c565b85815284602082015283604082015260a0606082015260006150b760a0830185614f9c565b90506001600160a01b03831660808301529695505050505050565b60006101208b83528a60208401528960408401528860608401528060808401526150fe81840189614f9c565b60ff9790971660a084015250506001600160a01b0393841660c082015291831660e08301529091166101009091015295945050505050565b604051601f8201601f1916810167ffffffffffffffff8111828210171561515f5761515f615291565b604052919050565b600067ffffffffffffffff82111561518157615181615291565b5060051b60200190565b6000821982111561519e5761519e61527b565b500190565b6000826151be57634e487b7160e01b81526012600452602481fd5b500490565b60008160001904831182151516156151dd576151dd61527b565b500290565b6000828210156151f4576151f461527b565b500390565b60005b838110156152145781810151838201526020016151fc565b838111156116345750506000910152565b600181811c9082168061523957607f821691505b6020821081141561525a57634e487b7160e01b600052602260045260246000fd5b50919050565b60006000198214156152745761527461527b565b5060010190565b634e487b7160e01b600052601160045260246000fd5b634e487b7160e01b600052604160045260246000fd5b6001600160a01b038116811461308557600080fd5b801515811461308557600080fdfea264697066735822122094a13985d1e548d1cde3e9ccab9d42667c2ef99646d8a5386ff37e820d5037d064736f6c63430008040033",
  "linkReferences": {},
  "deployedLinkReferences": {}
}